:020000021000EC
:108000000040002075DD0100BDDD0100BFDD010085
:108010000000000000000000000000000000000060
:10802000000000000000000000000000C1DD0100B1
:108030000000000000000000C3DD0100C5DD0100FC
:10804000C7DD0100C7DD0100219C0100C59E0100C4
:10805000C7DD010000000000C7DD0100B99F01007D
:10806000C7DD0100E59801002D980100C7DD010082
:10807000C7DD0100C7DD0100C7DD0100C7DD01006C
:10808000C7DD010051C20100C7DD0100C7DD0100ED
:1080900031C3010031A3010041DD0100C7DD010052
:1080A000C7DD0100C7DD0100000000000000000086
:1080B00000000000000000000000000000000000C0
:1080C00010B5064C2378002B07D1054B002B02D0AE
:1080D000044800E000BF0123237010BDB42000203D
:1080E00000000000CC400200084B10B5002B03D06C
:1080F0000749084800E000BF07480368002B00D18B
:1081000010BD064B002BFBD09847F9E7000000009C
:10811000B8200020CC400200B42000200000000065
:10812000164B002B00D1144B9D46402292029A1A06
:10813000924600218B460F461348144A121A00F04B
:1081400067F80F4B002B00D098470E4B002B00D048
:1081500098470020002104000D000D48002802D09F
:108160000C4800E000BF00F02DF82000290000F0CE
:1081700095FA00F011F8C046000008000040002009
:108180000000000000000000B4200020C42A0020ED
:108190000000000000000000084B10B50400002B98
:1081A00002D0002100E000BF054B1868836A002B55
:1081B00000D09847200000F033F8C04600000000CF
:1081C000C82902000E4B70B500251E000D4CE41AA4
:1081D000A410A54204D0AB00F35898470135F8E746
:1081E0000AF0E4FB084B00251E00084CE41AA4101A
:1081F000A54204D0AB00F35898470135F8E770BDAD
:10820000AC200020AC200020AC200020B0200020BA
:1082100003008218934202D019700133FAE77047C5
:10822000FEE7C0461D4B1B78012B00D070471C4B4E
:108230001B681B07FAD1F0221A4B1B68134018D198
:10824000194B1B6813421CD0154B1B681B07EDD143
:10825000F022144B1B681340402BE7D1124B1B68D4
:108260001342E3D1C12380220121DB00D205D1508A
:10827000DCE7102B01D0302BEAD10B4B1B681342EB
:10828000E6D10A4A0A4B1A6080220A4B12021A608F
:10829000024B1B78012BD7D0C8E7C046E00F00F097
:1082A000E40F00F0E80F00F0EC0F00F0DFFF07C074
:1082B00004050040186C004082B00190019B002B27
:1082C00014D0019B0A48013B01930138C046C046C7
:1082D000C046C046C046C046C046C046C046C0466E
:1082E000C046C046F1D1019B002BEAD102B07047D5
:1082F000E703000070B5092800D9BFE0734B800088
:108300001B589F46724C2378082B09D0002B2AD18A
:1083100000F02AFE002826D06E4B1B78002B22D0BE
:10832000082323701FE06C4809F0B4FA6B4C04E09A
:1083300001F03EFB002800D08FE00022A35E002B5E
:10834000F6DC0222A35E002BF2DC0422A35E002BEB
:10835000EEDC0622A35E002BEADC00225D4B1A70E5
:108360005B4B09321A7070BD594C2378032B01D036
:10837000012B0BD800235A48237009F08BFAF2E73F
:10838000534C2378002B65D0032B63D0012323703B
:10839000E9E74F4C2378002B7BD14E4B1B78002B09
:1083A000E1D002232370DEE7494C2378042B09D067
:1083B000002BD8D100F0D8FD0028D4D0454B1B7835
:1083C000002BD0D004232370CDE7414C2378002B21
:1083D000C9D101F0DDFA0500424809F05BFA00F06E
:1083E00003FF01F0D5FAFA21401B890006F094FA48
:1083F00001003D4809F04EFA012001F085F9032300
:108400002370B0E7324C2378062B09D0002BAAD179
:1084100000F0AAFD0028A6D02E4B1B78002BA2D07E
:10842000062323709FE72A4C2378072B03D0002BC9
:1084300037D0052B97D10723237094E7244C23785A
:10844000052B04D0002B36D0042B00D08BE705235E
:10845000237088E70023237085E72388053B23806A
:108460006388053B6380A388053BA380E388053BC5
:10847000E38000F0EDFA01F0A1FA5EE7A02380218D
:108480001A4ADB059A58C903520206D5184A995070
:1084900069E7022B00D066E783E7A122D20099505A
:1084A00061E700F061FD002803D00A4B1B78002B28
:1084B000C1D12378BDE700F057FD002803D0054B5C
:1084C0001B78002BC3D12378BEE7C046CC2902001D
:1084D0003327002066290020682A0200842A002011
:1084E0001C2A0200282A0200402A0200040500007B
:1084F0000C05000070B5092800D9A3E0594B800095
:108500001B589F460022584B1A805A809A80DA8066
:1085100000F09EFA554B1B78002B00D07DE0544BA9
:108520001B785BB2002B00D077E0524B1B785BB21C
:10853000002B00D071E0504B1B785BB2002B00D0B9
:108540006BE001224D4B1A7070BD00F053FCFBE74D
:1085500001224B4B1A70F7E74A4809F09BF9424C4D
:1085600003E001F025FA00285BD10022A35E002B76
:10857000F7DC0222A35E002BF3DC0422A35E002BB7
:10858000EFDC0622A35E002BEBDC00233B4A1370DA
:108590003D4A1370D8E7022200213C4B324C1A703E
:1085A000344B334A59563A4B12781D88324B52B2EB
:1085B0001B7889B25BB292B25B009BB24819AE1ACB
:1085C000691AAA18C01A9E19C91A9B1800B236B2A5
:1085D00009B21BB220806680A180E380B42D0FD940
:1085E000B32801DCB4222280B32E01DCB4226280E5
:1085F000B32901DCB422A280B32B01DCB423E380D5
:1086000000F026FAA0E703221F4B1A709CE700F047
:1086100067FA99E700F0A6FB96E70022174B1A705D
:1086200092E72388053B23806388053B6380A3880A
:10863000053BA380E388053BE38000F009FA01F0E5
:10864000BDF992E7A0238021124ADB059A58C9039D
:10865000520202D5104A995076E7A122D2009950D1
:1086600072E7C046F4290200842A00205028002026
:10867000792900207829002070290020662900200F
:108680008E2A0020682A0200332700206229002059
:108690003A270020040500000C050000F0B54D4607
:1086A00044465F465646F0B489B001F0FBFA01F04B
:1086B00071F801F089F901F091FC01F03BFC6421B3
:1086C000012003F0E3FC01F081FD01F089FF01F0DE
:1086D00037FE002001F03AF8052009F003F8774B47
:1086E000774A1860984600231370764A764D1370C7
:1086F000764A2B701370764A022113701322754B41
:1087000000261A700123744A744C1370744A117055
:10871000744A1370744B9946744B9B4607E003F000
:10872000A5FC002867D1664B1B78002B69D101F0AE
:108730003FF90028F3D0404600F044FF6C4B1A7814
:108740009300D318002A04D0782A6FD953009B33A2
:10875000FF332380C8229200934200D92280654BC8
:1087600018782B78984202D0FFF7C4FD2B781800B8
:10877000FFF7C0FE731C14213000069306F052F977
:1087800000292FD1A0235C4ADB0599588022D2050D
:10879000114248D1A121C9005A504846574B0626DC
:1087A000805F574A1B78127829780590484604263E
:1087B000805F5BB2049048460226805F52B203900D
:1087C00048460026805F02904948007801904D4855
:1087D000007840B200904C4809F05CF800F0C4FB0F
:1087E000002827D101F018FC01F0E8F8069E03F0FC
:1087F0003DFC002897D003F02DFB314B1B78002B5C
:1088000095D04346186808F077FF404809F042F8D1
:108810006420FFF751FDBFF34F8F3D4A3D4BDA60B7
:10882000BFF34F8FFEE73C495A50B6E732339BB255
:1088300023808FE701F0F0FB072000F09BFB08F09E
:1088400047FF5B46824603201B68DA171040C318B7
:10885000981008F089FE314A314B08F061F80600A3
:108860000F005046642106F0E1F808F07DFE2B4A27
:108870002C4B08F055F802000B003000390007F0CF
:10888000FFF808F03BFE0790072000F073FB06009E
:10889000082000F06FFB0700092000F06BFB824608
:1088A0000A2000F067FB534631B2079E00901BB2CE
:1088B0003AB201961C4808F0EDFF93E72426002009
:1088C0008E2A00204427002033270020662900201C
:1088D000392700208F2A0020212600203A27002057
:1088E0003227002058280020842A0020402700201A
:1088F000502800204527002004050000782900208A
:108900007929002070290020AC2A0200002B0200E7
:108910000400FA0500ED00E00C0500009A99999911
:108920009999E93F9999C93FE42A0200F0B5414B72
:108930001C88414B0021595E404B66181D88404BF6
:10894000611A1888471BBFB2BE1933B29C466246F3
:108950003C4B28181A803C4A80B20026925F791856
:10896000A51AA218451982182DB209B212B25D805B
:108970009980DA809F2C3CD800221A805A809A80F5
:10898000DA8002215A5EFA2189008A4218DD598074
:1089900004215A5EFA2189008A421BDD9980062152
:1089A0005A5EFA2189008A421EDDD980274A198839
:1089B00011805988518099889180DB88D380F0BDDF
:1089C000002AE5DA00225A8004215A5EFA21890041
:1089D0008A42E3DC002AE2DA00229A8006215A5E0B
:1089E000FA2189008A42E0DC002ADFDA0022DA80FC
:1089F000DCE7B42C10D96046B32801DCB420188021
:108A0000B32D01DCB4205880B32901DCB421998056
:108A1000B32A01DCB422DA800022995EFA229200A5
:108A2000914201DD1A80ACE70029AADA00221A80FF
:108A3000A7E7C0463A270020942A00209A2A00205F
:108A4000A02A0020842A00209E2A002068290020D5
:108A5000214B0022995EFA229200914230DC0029DB
:108A600030DB0222995EFA229200914226DC002934
:108A70002BDB0422995EFA229200914212DC00293B
:108A800026DB06215A5EFA2189008A4211DDD9804F
:108A9000124A198811805988518099889180DB8801
:108AA000D38070479A8006215A5EFA2189008A4253
:108AB000EDDC002AECDA0022DA80E9E75A80D8E718
:108AC0001A80CEE700221A80CBE700225A80D0E736
:108AD00000229A80D5E7C046842A00206829002019
:108AE00070B5062082B000F045FA0302181AC517C7
:108AF0006D046D0C2818C01305B20020324B0521FF
:108B00001D80324B185605F091FF314E40B233783C
:108B1000401958432F4B80B22F4A1B8804B214804F
:108B2000191BF92932DCFA24E41AA4B200192B49E2
:108B3000644224B2088014801919E1208000814227
:108B400034DD27498C4663449BB224491C195B429F
:108B50000C801CB21480002C0AD0062000F00AFA07
:108B6000327803B2009221002A001E4808F092FEDB
:108B700000221D4B9A561D4B1A8000221C4B9A5600
:108B80001C4B1A80FFF7D2FE02B070BD1919F929EB
:108B9000D3DCFA24E41AA4B21049201A0880E12098
:108BA00024B21919148080008142CADC191B814249
:108BB000D1DD0B498C4663449BB208491C1B0C80D9
:108BC0001CB21480C7E7C046A42A002070290020E8
:108BD0008F2A00203A2700209A2A0020962A002077
:108BE0007CFCFFFF102B0200792900209E2A002028
:108BF00078290020942A0020F8B54F4646460520E3
:108C0000C0B400F0B7F90400042000F0B3F94B4AF7
:108C10004B4B0021515E24111B7822B28A1A00119D
:108C20005A434849434300254D5F92B2EF1AA94683
:108C3000BFB2454D3BB22B80AC46444D444E2D88CF
:108C400014B23480E91AF92944DCFA23B8465B1BD4
:108C50009BB2984441463F4F5B42398061461BB20C
:108C60000B80E9188846E127BF00B84556DD9846D5
:108C70003949384B6F18BFB2B84441461980614634
:108C80007B421BB20B802F1BF92F3ADCFA24641BAA
:108C9000A4B21219314F644224B23A8034802F19A1
:108CA000E1229200974220DD2B4A94466544ADB202
:108CB0002A4A2C196D4214803580002B04D002B250
:108CC0004946274808F0E6FD002333800CBC904657
:108CD0009946F8BDE9188846F929C4DCFA235B1BDC
:108CE0009BB21C49DF1B0F80B8E72F1B9742E4DDC6
:108CF000194A94466544ADB2184A2C1B148035803D
:108D0000DBE72F19F92FCBDCFA24641BA4B2134F35
:108D1000A21A24B23A8034802F19C1E7E91AB94265
:108D2000B1DD0D496F18BFB2FB1A98464146094B99
:108D3000198061463BB20B80A5E7C0469C2A002003
:108D400032270020A62A00209E2A00203A27002051
:108D5000942A0020902A00207CFCFFFFA82A0020F3
:108D6000442B020070B51C4B05211878421C1A7068
:108D700005F058FECCB2002C29D1012000F0FAF801
:108D80000500022000F0F6F80022144B9A56EB0181
:108D90005B1B9B00D9174904490CCB180021DB133E
:108DA000D21A0F4B1E780F4B5956C301181AC5170C
:108DB0006D046D0C2818C01340B2081A70430A4B9A
:108DC000188013007343094A1380094B1C80FFF776
:108DD00013FFFFF7ABFD70BDD020002079290020E4
:108DE00021260020782900209C2A0020A62A002085
:108DF0009A2A0020F0B55F4656464D464446F0B4E8
:108E000083B06B4600AF7B604A4B90B09A464A4BAA
:108E10006E46002400259B4603F028F90028FBD06D
:108E200001F0FAF853461968013502C6584664182D
:108E300008F030FDEBB25DB20F2BEDD10F21200019
:108E400005F0F4FD3D4E04000100300008F022FD65
:108E50007B683B4D9D46002390B02C60E946002482
:108E6000984603F003F90028FBD001F0D5F85346EB
:108E700019684B46584602C39946641808F00AFD23
:108E800043460133DBB25AB290460F2BE9D10F2192
:108E9000200005F0CBFD04000100300008F0FAFCD2
:108EA0007B682A689D46274BA41A1B7805215C43E2
:108EB000254B1C60254B1878421C1A7005F0B2FD3A
:108EC000CCB2002C29D1012000F054F8050002207A
:108ED00000F050F800211E4B5956EB015B1B00259A
:108EE0009B00DA175204520CD318DB13C91A194B22
:108EF000C2011E78184B101A5D57C3175B045B0C38
:108F00001818C01343B2EA1A7243144B1A800B00AC
:108F10007343134A1380134B1C80FFF76DFEFFF75A
:108F200005FDBD4603B03CBC90469946A246AB4603
:108F3000F0BDC04640270020742B02007C2B0200AD
:108F4000AC2A002058280020A02A0020D020002091
:108F50007929002021260020782900209C2A002041
:108F6000A62A00209A2A0020014B18787047C04694
:108F7000D12000200A2851D8294B80001B589F4639
:108F8000284B294A1B681068181A7047274B002283
:108F90009B5E274A0020105E181AF6E7254B002238
:108FA0009B5E254A0020105E181AEEE7234B002234
:108FB0009B5E234A0020105E181AE6E7214B002230
:108FC0009B5E214A0020105E181ADEE71F4B00222C
:108FD0009B5E1F4A0020105E181AD6E71D4B002228
:108FE0009B5E1D4A0020105E181ACEE71B4B002224
:108FF0009B5E1B4A0020105E181AC6E7194B002220
:109000009B5E194A0020105E181ABEE7174B00221B
:109010009B5E174A0020105E181AB6E70020B4E7DE
:10902000882B020040270020E42000203027002069
:10903000DE2000203C270020E82000201E26002003
:10904000E020002064290020D820002052280020A1
:10905000DA2000208C2A0020DC2000204E2800206E
:10906000D42000201A260020D6200020222600200E
:10907000D2200020A023F0B5564644465F464D4618
:10908000C35CF0B45C0021520026A8240655043CC1
:10909000045983B001924F2C1DD8A125425D520086
:1090A000125E8A4200DA4355A225425D5200125EEA
:1090B0008A4239DCA422013484505A1CD2B24F2A8D
:1090C0002FD9A0224F3B835403B03CBC9046994615
:1090D000A246AB46F0BDA122855C9046AB4225D0AE
:1090E0006D002D5E0095A94202DB4246009183543B
:1090F000A226855DAB4244D06D002D5EA94201DC05
:109100000D008355009A571B019A9742D2DAA82284
:1091100001218154A422013484505A1CD2B24F2A16
:10912000CFD8A023C254CFE74355C3E70025425F01
:109130000125944642468654821C0092A122914603
:10914000793A9346009A9B4409E04A464746B4461A
:109150008754009A013502320092502D38D0EEB279
:10916000B0460026965F6645F3DBEED1434501D25B
:10917000AB45EEDA28229246AA44B4465345E8DCD1
:10918000E3E70021425E00219446A22291467A3A0A
:10919000934681559B44861C013107E04A46474669
:1091A000AC46875401310236502917D0CDB2A846BB
:1091B0000022B55E6545F5DCF0D1434501D28B4513
:1091C000F0DA282292468A44AC465345EADCE5E7C9
:1091D0005135455D6D002D5E009589E75231415C4A
:1091E00049000D5E8EE7C046F0B5444656464D46F2
:1091F0005F460023A022F0B49D4CA54411ACA354BB
:109200000232A354013AA3540332A3500432A354AC
:10921000A432A3540232A3544E22FF32A354033289
:10922000A3500432A354A432A3540232A354FA220A
:10923000FF32A3540332A3500432A354A432A354E4
:109240008C4AA3548C4AA3540332A3500432A3542F
:10925000A432A354894AA354894AA3540332A35085
:109260000432A354A432A354864AA354864AA35476
:109270000332A350854AA354A432A354844AA3546E
:10928000844AA354844AA3500432A354834AA35467
:10929000834AA354834AA3540332A350824AA3545B
:1092A000A432A354814AA354814AA354814AA350AF
:1092B0000432A354804B9A46804B9946804B984683
:1092C000A823AA270A269B4601257F005B46E35C6C
:1092D000E25D6B4019001300AB229200A25C6B4070
:1092E0006A400B431343D6229200A25C6A401343A8
:1092F000664AA25C6A4013439622D200A25C6A408E
:109300001343694AA25C6A401343C122D200A25CA3
:10931000DBB29A423ED802F0A9FE0028FBD0013E03
:10932000F6B202F097FD002ED0D153461B8803AD54
:109330002B804B461B8827006B8043461B88AB80E5
:10934000604B1B88EB80604B1B882B815F4B1B881D
:109350006B815F4B1B88AB815E4B1B88EB815E4B47
:109360001B882B82A95F38000A220236FFF782FE93
:10937000AC370C2EF6D10026FFAF5037AB193800B2
:109380000C21595E78220236FFF774FEAC37062EA8
:10939000F4D195E700F040FE2422002108A8FEF752
:1093A00037FFC92602AB9C46F60008AD6644200094
:1093B00023002A68A0300027D95F02335218834265
:1093C000F9D1AC3404C5B442F1D10898502105F06C
:1093D0002DFB424B50211880099B1800019305F08A
:1093E00025FB3F4B502118800A9B1800019305F084
:1093F0001DFB3C4B502118800B9B1800019305F07E
:1094000015FB394B502118800C9B1800019305F077
:109410000DFB364B502118800D9B1800019305F071
:1094200005FB334B502118800E9B1800019305F06B
:10943000FDFA304B502118800F9B1800019305F066
:10944000F5FA2D4B50211880109805F0EFFA2B4BB0
:1094500018802B4B1A682B4B1A6001222A4B1A706A
:109460002A4B9D443CBC90469946A246AB46F0BD73
:10947000ACF9FFFFA6020000A502000052030000A5
:1094800051030000FE030000FD030000040400007F
:10949000AA040000A9040000AC0400005405000068
:1094A00056050000550500005C050000020600009E
:1094B0000106000004060000302700203C270020A1
:1094C0001E260020642900208C2A0020522800201B
:1094D0004E2800201A26002022260020DE20002010
:1094E000E8200020E0200020D8200020DA20002002
:1094F000DC200020D4200020D6200020D220002014
:1095000040270020E4200020D12000205406000045
:1095100030B504000020002907D00023034DE25C91
:1095200001335040285C8B42F9DB30BDB42B020084
:1095300010B50F240078044040060C70400F062838
:109540002BD81849800009588F461A78012A01D073
:10955000013A1A7010BD029B1B78FF2BFAD0029AB9
:1095600001331370F6E7029B1B78012BF2D0029AAD
:10957000013B1370EEE71378FF2BEBD00133137030
:10958000E8E71378012BE5D0013B1370E2E71A7886
:10959000FF2ADFD001321A70DCE7034808F07AF9BD
:1095A000D8E7C046B42C0200D02C020010B50478D5
:1095B0000C704178117082781A70C378029A137017
:1095C00010BDC046F0B54D465F46444656463F4B3B
:1095D00083469946F0B43E4D3E4C87B082267600D5
:1095E000A35B062B3BD900F0D3F92860200000F0E4
:1095F000C1FBFF28F4D1200000F0BCFB6B46002724
:10960000D87203AE200000F0B5FBF0550137042FEF
:10961000F8D104AB98466B4642461120DB7A310004
:1096200013706844042208F080F8200000F0A2FBC8
:10963000052182464046FFF76BFF824520D04B460E
:109640004A461B7824480133137008F023F94B462F
:109650001B78022BC2D90122204B1A7009E000F0BE
:1096600097F92B681E4AC11A914224DC00221D4B37
:109670001A7007B03CBC90469946A246AB46F0BD76
:109680000B20194B194A00931449194B6844FFF7F2
:109690004FFF184B184A00931849194B3000FFF739
:1096A00085FF5B4605221868414608F03EF8002217
:1096B000064B1A7092E7002BDBD00124074A147086
:1096C0000200104808F0E6F8D3E7C046F02000207A
:1096D000EC20002028260020F42C02004527002042
:1096E000E0930400F1200020322700208F2A002080
:1096F00021260020502800207829002079290020E8
:1097000070290020102D020010B5040000F01AFF8F
:1097100000280ED00023094A1360094A1380002C48
:1097200003D00022074B1A7010BD0122054B1A709E
:10973000FAE7054808F0AEF8F6E7C046F420002046
:10974000F2200020F8200020442D020070B50C4BC0
:1097500004001B88002B04D10A4D634263412B7027
:1097600070BD094808F096F8064D2B78002B03D001
:10977000064808F08FF8F0E7054808F08BF8ECE7AA
:10978000F2200020F82000205C2D0200C02D0200F5
:10979000E82D0200A222194B1949D200995019490B
:1097A000194A802099501949043299501849194A88
:1097B000C0039950A023EB210322DB05C9005A50B6
:1097C00008315A5010315A5008315A50A121C9005D
:1097D0005850802040045850802040055850802028
:1097E000C00558500C495A5004315A5028395A5023
:1097F00008395A500021094A9950704700600040CA
:1098000003151300031713001405000003191300B8
:10981000031D13001C0500004C0700001407000086
:109820000122014B1A707047B42A0020A622274B50
:1098300052009958002931D00021995024490A68D2
:109840003932FF320A6001229A64224A1278002AD1
:1098500024D1A922D2009A58F423FF339A421DD86A
:109860001D4B0422995E1D4A914218DDFA22FA200E
:1098700092009A800622995E184AC00091421BDC31
:109880000A1C00291DDBFA2112B289005118DA8066
:10989000A8220E4BD2009850114A995070470A1CCA
:1098A000002910DBFA2112B2890050189A80062292
:1098B000995E0A4A9142E3DDFA21FA22C900920038
:1098C000E5E70022DFE70022ECE7C04600A0004009
:1098D000B02A00206729002068290020E703000043
:1098E00044050000A622254B5200995800292DD08E
:1098F000002199504C3AFF3A9A64214A1278002A82
:1099000024D1A922D2009A58F423FF339A421DD8B9
:109910001C4B0022995E1C4A914218DDFA22FA2063
:1099200092001A800222995E174AC00091421BDC05
:109930000A1C00291DDBFA2112B2890051185A8035
:10994000A8220E4BD2009850104A995070470A1C1A
:10995000002910DBFA2112B2890050181A80022265
:10996000995E094A9142E3DDFA21FA22C900920088
:10997000E5E70022DFE70022ECE7C0460090004068
:109980006729002068290020E70300004405000043
:109990000122054B9A64A922D2009858034BC008B3
:1099A0001B68C0187047C04600A00040B02A0020C5
:1099B000014B18787047C046B42A00200022014BA2
:1099C0001A707047B42A0020F8B55F4656464D46D7
:1099D00044460023504AF0B41360504AA226137044
:1099E000C1239B009A4680231B039B4601215346BB
:1099F0005846A8254A4AF6009151D0504948E433C8
:109A0000ED0053519C461350474B48488027135054
:109A10009946082350465C46BF00D3519846444BB4
:109A2000D16099511C5060463E4C585118514846DF
:109A30003E4C18514046D851D9601160C0225200A6
:109A400094468022D2009046196062464146394BC6
:109A5000043C9950F8395A5891464846364A0240D3
:109A6000C020000402435A5042461A6062469F508A
:109A70005A5894466046314A0240C02000020243D0
:109A80005A501F602E4A2F4B2F499A512F4A0836A1
:109A90005A502F49234899512E4E9A51A4222E4EA6
:109AA000D2009E502D4A2E4E9A51043699512D497E
:109AB00010365A50A6222C49D20099502B4A2C49D4
:109AC0005A502C4999512C4E9A512C4A5A512C4A91
:109AD0001A501951154900205A50FF21294A99500E
:109AE0000023294AFA3902F089FE002803D0002217
:109AF000002102F051FB254A0121254802F0F0FE29
:109B000000222449244802F005FF3CBC90469946B7
:109B1000A246AB46F8BDC046B02A0020B42A0020B9
:109B200000A0004044050000C40900004C050000EE
:109B30000090004000E100E0FFFF00FFFF00FFFF9A
:109B40004091004000F0014014050000006000401A
:109B50004C9100401C05000044910040046000400E
:109B6000240500002C05000040A1004008600040D2
:109B7000340500004CA100403C05000044A1004019
:109B80000C60004004050000FC200020219801002A
:109B9000A02F020066060000C4220020F0B55F4638
:109BA00056464D464446F0B483B00192002A24DD67
:109BB000802399467C3B9246984600230C008A44B9
:109BC000124E134D04279B4609E05B46114A337041
:109BD000114B0134D15043462B6054450DD04B46B8
:109BE0002178EF503378002BEFD10C4800F0B4F817
:109BF000434601342B605445F1D1019803B03CBC7D
:109C000090469946A246AB46F0BDC046642000206F
:109C100000E100E0002000401C0500004827002073
:109C2000842210B5194B5200995800291ED18E2359
:109C3000164C5B00E258002A09D000221448E2507A
:109C4000183BC35A002B1BD10122124B1A709222CF
:109C50000E4B52009958002907D0002199509022AC
:109C6000D20099580C4807F015FE10BD00219950FC
:109C7000A322D20099580948C9B200F06DF8D6E77E
:109C800000F078F8064BE050E1E7C04600200040C5
:109C90004827002064200020A42F0200282600204E
:109CA0001C05000010B51E4800F04CF81D4800F0DF
:109CB00049F8A023E7220321DB05D2009950E821CF
:109CC00000220E20C9005A50174B18495850184905
:109CD00002305850174818495850A0200421C0009D
:109CE0001950842040001A5014301A5001329A60E2
:109CF0001A60C2221E38FF3892009850A120043A00
:109D000080009850C0230D4A5B00D1507C3014581D
:109D10000B4B2340C024240423431350116010BD77
:109D20002826002048270020002000400C050000C5
:109D30001405000000E0D7012405000000E100E068
:109D4000FFFF00FF80220023FF21520083520232D6
:109D50008152023283527047812210B5FF24520093
:109D6000835A013323408352C1540232835A013350
:109D7000835210BD802110B5FF2402004900435AD0
:109D8000C05C0133234053520431535A013B5352B8
:109D900010BDC046F0B557464E4645468446E0B431
:109DA00089469A460120002A3BD0B123002761460C
:109DB000244E254D254CDB002F702770F15049466D
:109DC000234BF150802189007750B0602978002919
:109DD000FCD000212970012A2ED0802101251948AC
:109DE000890045500121174889460160802189007A
:109DF0008846FF39A325FF39534600268C46ED00DF
:109E000021780029FCD026704159013AD2B219704C
:109E1000012A0BD049460162002A01D00133EFE745
:109E200000201CBC90469946A246F0BD41466746BC
:109E3000013347500262E3E780210225014889008F
:109E40004550CFE700300040E4220020E52200200A
:109E50001C050000F0B5474680B407000120002A29
:109E600027D00025B126A846134CF6002570134DC7
:109E7000AF5180274646BF00EE51114EA951A86050
:109E800021780029FCD000210020013A2170D1B2B4
:109E900001310A4E0A4D59181A7872512278002A57
:109EA000FCD0013320708B42F6D101220020034BFD
:109EB0005A6104BC9046F0BDE4220020003000400E
:109EC0001C050000F8B58423154A5B00D158002911
:109ED00004D00021D1500122124B1A708E23104A57
:109EE0005B00D158002904D00021D15001220E4B33
:109EF0001A7092250A4C6D006359002B0FD00B4E3F
:109F0000A759FFF745FDB123DB000200E3583900F4
:109F1000074807F0BFFC0323A35100236351F8BD9A
:109F200000300040E5220020E4220020C4040000AC
:109F3000B82F0200A023E2211A4ADB05C90010B5A0
:109F40005A5008395A500421174B053AFF3A995094
:109F5000164A023999500022CD200731FF315A505C
:109F600014315A501249C0045850A120C121800018
:109F7000890058500539FF395A50A022FC39FF3961
:109F8000D2009950C023C0240A4A03315B00D1504B
:109F90007C30135824061B021B0A23431350116004
:109FA00010BDC0460C060000003000400C0500004B
:109FB0002405000000E100E080220021054B520052
:109FC0009950A122D2009A58D3009B1A024A1380BA
:109FD0007047C04600700040562800200A4B0B49CD
:109FE0000B4AC0209950A0210122C9005A50FD39C6
:109FF000FF395A50074A000653581B021B0A0343F5
:10A00000535080231360704700700040041000001C
:10A010000405000000E100E0F0B5474680B4604C64
:10A0200082B02578012D32D0002D1CD0022D07D111
:10A03000FFF7AEFC5B4B1B68C01A5B4B984250D8D5
:10A0400032200138C046C046C046C046C046C04661
:10A05000C046C046C046C046C046C046F1D102B068
:10A0600004BC9046F0BDB1227721504BD2009950EC
:10A0700080227539920099504D4A463199500122FB
:10A080009A602270FFF784FC464B1860D8E7FFF710
:10A090007FFC444E3368C01A434B9842D0D9454F99
:10A0A00003223B0000217720FFF774FE3B787721E5
:10A0B0001A047B7858201B021343BA7813433E4A94
:10A0C0001360B122394BD200995002228A31FF31FC
:10A0D0005A50374958509D602270FFF759FC306044
:10A0E000AEE7344D03222B0000217720FFF752FE0C
:10A0F0002B7800211A046B781B021343AA782F4D8A
:10A1000013432F4A13606A89288912029B1A9846C2
:10A110001A00002304F0EEFD4E06CB110021C20907
:10A120003243AE88300412184B4100920193002153
:10A13000E8884246002304F0DDFD0E06020A3243A1
:10A140006E880B12F003002116001F0042463618DD
:10A150004F410023A889002104F0CCFDFA23DB0045
:10A160009C464902C00D0843164B60441860124BD0
:10A170003200186800213B0004F0BCFDCD02420D06
:10A180004B152A4300980199121A8B4111005B0468
:10A19000CA0B1A430C4B1A600023237050E7C046C9
:10A1A000E6220020002300200F270000003000409E
:10A1B0001C050000F8220020BC2A0020E822002014
:10A1C000B82A0020342700204027002070B5A024A2
:10A1D000094E0A4D2B00022221007720FFF7DAFDFD
:10A1E0002B786A781B0202341343E4B233800236C0
:10A1F000B02CEFD170BDC046E8220020FC22002028
:10A2000076DF70477ADF70477CDF70477FDF70470B
:10A21000A9DF704760DF70472EDF704732DF70477D
:10A2200033DF70474CDF70478021A02210B5044B0C
:10A230004904D205D1500022002101F0ADFF10BD2C
:10A240000C050000F8B50E00151E08D00024044FC0
:10A25000315D38000134FFF77FFDAC42F8D3F8BD23
:10A260005C28002010B5040003F026FB21001F48E5
:10A2700003F07EFB2388112B2BD01ED9132B0ED07D
:10A28000522B08D11A4B0022188800210023FFF717
:10A29000BFFF00280CD1200003F0D4F910BD144BEF
:10A2A0000022188885210023FFF7B0FF0028F2D094
:10A2B0000022002101F070FFEDE7102BEBD180218F
:10A2C000A0220C4BD2054905D150A288084B1A8018
:10A2D000E1E78021A123A022DB00D2054905D1506E
:10A2E0000122034B52421A80D5E7C04604230020C6
:10A2F0006C2000200C05000010B50378002B00D066
:10A3000010BD8021A022084BC903D205D150074BB4
:10A310003B211888FFF774FF0028F1D000220021AC
:10A3200001F03AFFECE7C0460C0500006C2000206D
:10A330000123024A11784B401370704767290020AF
:10A34000F0B57248A9B0FFF7FDFC7148FFF7FAFCC1
:10A35000002348226F49082003F0C2FC002800D0E7
:10A36000CEE01AAC082200212000FDF751FF0122A7
:10A370002378200093432370FFF74CFF002800D080
:10A38000B9E0654803F0D2FC002803D00022002188
:10A3900001F002FF0022614B15201A70FFF73EFF0B
:10A3A00001211520FFF73CFF1520FFF735FF0221A3
:10A3B0000320FFF737FF0F21012203AE337820007F
:10A3C0008B43134310220B4013433370D023544A62
:10A3D0005449D358FF221340534A07F087FA20000C
:10A3E00007F0A6FA210082B23000FFF70DFF002827
:10A3F00000D07BE00CAD082200212800FDF708FF0B
:10A4000006232B8006336B800023AB809133FF3310
:10A410002800EB80FFF7F6FE002803D00022002181
:10A4200001F0BAFE002104222000FDF7F1FE3F4BAF
:10A4300021003F481A9303F0CBFA002803D00022F2
:10A44000002101F0A9FE382200212800FDF7E0FEDE
:10A45000022300272B703822043300212000EB70E8
:10A46000AF70FDF7D5FE01232382324B2422002159
:10A4700030006361FDF7CCFE0123337340233200CB
:10A480003361210000970023280003F01BF8002807
:10A4900003D00022002101F07FFE1C2200212000B9
:10A4A000FDF7B6FE244A00236260F0221203A26088
:10A4B00005221A93E38101332374204B200063614A
:10A4C0001F4B2273A36103F0BBF9002803D00022C5
:10A4D000002101F061FE032003F096F8002803D06C
:10A4E0000022002101F058FE29B0F0BD0022002119
:10A4F00001F052FE7EE70022002101F04DFE40E710
:10A500000022002101F048FE2BE7C0465C28002015
:10A510007C2900202023002065A20100672900205B
:10A5200000100010FC2F0200F02F020045A20100D5
:10A530000423002068200020CD0C0000F9A20100B7
:10A5400029A2010030B501252048214BA022186026
:10A55000204BD205DB7A84249D401F4B6400D550EC
:10A560000023062203511D4B83B0C250842103599E
:10A57000164A4900002BF9D0A323DB00D358A020B2
:10A580000093A123C005DB00C550009B013300935D
:10A59000114BC550002360205350104BD0505358DE
:10A5A000002BFCD0A323094ADB00D358A02201933F
:10A5B000A123D205DB00D550019B64200133019318
:10A5C000FDF77AFE012003B030BDC04600400040D8
:10A5D00074230020682300200C0500001C050000E7
:10A5E000F0B55F4656464D464446F0B489B006ADD8
:10A5F000062200212800FDF70BFE40236B70353B3F
:10A60000AB70023BEB7009332B71013B6B71784BE4
:10A610002900981D06229A4607F087F8AB78032296
:10A6200098464146A0230020C131FF31DB05890057
:10A63000CA50E97884468946C131FF318900CA5041
:10A64000297944468B46C131FF318900C8506F7962
:10A65000A12039004E46C131FF318900CA506549F9
:10A66000C0000C50644C0E515E46A04604340E519E
:10A6700001263400BC401C506F78604C3F060F51DF
:10A680002F785F4D64464F518427543D7F00CC5155
:10A690004E51E025ED005A515A4D5A5180229201F7
:10A6A0001E501A505246584D2960D27A9640424662
:10A6B0009E505022554BCC51CA508422C8594D4B04
:10A6C00052000028F9D0A321C9005958A0200191B7
:10A6D000A121C005C900465001990127013101910E
:10A6E000454946500020494998505F5058508427AA
:10A6F000995840487F000029F9D00023C351A32373
:10A70000DB00C35802938421C3593A4A4900002B05
:10A71000F9D0A323DB00D358A0200293A123C005C6
:10A72000DB00C650029B01330293334BC65000231B
:10A7300006205350354BD050842753582D487F0066
:10A74000002BF9D0A323DB00C358A0220393A1233D
:10A75000D205DB00D650039B01330393264BD65022
:10A7600000236022C351294BC250224B98468423B8
:10A770005B009946C359002BF7D0A3234246DB0068
:10A78000D358A0270493A123FF05DB00FE50049BB0
:10A79000642001330493FDF78FFD43462B6053463D
:10A7A0000121DB7A42469940134B4846F950002379
:10A7B000135006224046154BC25043464A4698580D
:10A7C0000028FCD0A3230B4ADB00D358A02205931A
:10A7D000A1230120DB00D205D150059B0133059355
:10A7E00009B03CBC90469946A246AB46F0BDC04677
:10A7F00068230020004000400C05000024050000F4
:10A800005405000034070000742300201C050000DC
:10A8100030B5554C83B0A37A002B00D197E06B463E
:10A82000DD1D00232B7023680122597C6368187892
:10A830002B00FFF70FFB002800D088E023680122DF
:10A840005979636818782B00FFF704FB002800D0C3
:10A850007DE0236801221979636818782B00FFF7DF
:10A86000F9FA002800D072E02423E35C002B36D0F4
:10A870000C232B70236801221979636818782B0048
:10A88000FFF7E8FA002862D13230FDF715FDC0234A
:10A890002B70A37ADB0762D42368012219796368DD
:10A8A00018782B00FFF7D6FA002850D1637C002BD4
:10A8B00058D12B7023680122597C636818782B00CB
:10A8C000FFF7C8FA002842D12368287059796368D5
:10A8D000012218782B00FFF7BDFA404235E004232F
:10A8E0002B70236801221979636818782B00FFF711
:10A8F000B1FA00282BD1A27C4023002A2AD02B7049
:10A90000236801221979636818782B00FFF7A2FAEF
:10A9100000281CD13230FDF7CFFC637C5A1E9341D6
:10A920002B7023680122597C636818782B00FFF78D
:10A9300091FA00280BD12300226810335179626804
:10A9400010780122FFF786FA404203B030BD0120A3
:10A950004042FAE7A27AD207D1D52033CFE7E023ED
:10A960002B7099E70223A4E77020002070B5060041
:10A9700082B0282800D9BBE02323694C01ADE35CF9
:10A9800000282CD1002B18D02870A27C8023002A0C
:10A9900002D07E3B2B7080332222A25C002A00D0A2
:10A9A0008AE023680122D97D636818782B00FFF7BD
:10A9B00051FA002801D12323E05400232B700733E0
:10A9C0006B7023680222597D636818782B00FFF7AB
:10A9D00041FA002800D08BE0207502B070BD012B39
:10A9E00019D030232B70A27C8033002A02D07E3B0A
:10A9F0002B7080332222A25C002A5BD123680122C3
:10AA0000D97D636818782B00FFF724FA002802D15B
:10AA100001222323E25420232B70012E6BD0052E1C
:10AA200059D9142E4AD903236B70A37A002B6FD007
:10AA300004236A46D370E37A042B69D02368012289
:10AA40009978636818786B460333FFF703FA002898
:10AA500060D16B460722DB78E3726B789B0113436E
:10AA6000DBB26B7023680222597D636818782B0073
:10AA7000FFF7F0F900283BD108230122A3722073CD
:10AA800022751C33E35C002B12D12374637C002BF2
:10AA90000ED16B46DA702368597C636818786B4670
:10AAA0000333FFF7D7F9002802D16B46DB786374D4
:10AAB000002092E72B70A1E72B7072E702236B70E6
:10AAC000A37A002B05D005236A46D370E37A052BC1
:10AAD000B4D18723C5E701236B70A37A002B05D07F
:10AAE00006236A46D370E37A062BA7D14723B8E73B
:10AAF0000120404271E700236B70A37A002B05D040
:10AB000006236A46D370E37A062B97D10723A8E77A
:10AB1000C723A6E76B789A0107231343DBB2A0E7AC
:10AB20007020002010B5114A0100537A012B19D072
:10AB3000002B13D0022B0AD0032B0CD1102320247E
:10AB40000370D37C0020002B00D00C7010BD0823B4
:10AB500010240370F5E701204042F7E702230424A4
:10AB60000370EEE7042308240370EAE77020002056
:10AB700070B51C4C82B0A37A002B27D06B46DD1D2C
:10AB8000BB2816D8612817D902232B70E27A002639
:10AB90009A420BD0236801229978636818782B00B9
:10ABA000FFF758F9002811D12B78E372300002B07A
:10ABB00070BD01232B70E9E7292804D8132808D990
:10ABC00004232B70E2E703232B70DFE70126764294
:10ABD000ECE7092802D905232B70D7E706232B7051
:10ABE000D4E7C0467020002070B5584C82B0A37ADC
:10ABF0000600002B00D196E02423E35C002B00D05C
:10AC000091E0227D002A30D0421E272A00D885E01C
:10AC10002322A25C01AD002A18D02B70A37C8022D5
:10AC2000002B02D0022302322B702223E35C002B84
:10AC300000D071E023680122D97D636818782B0069
:10AC4000FFF708F9002801D12323E05400232B70DB
:10AC500007336B7023680222597D636818782B00D4
:10AC6000FFF7F8F8002800D12075F920032E31D81D
:10AC70006B46D870236801225978636818786B4650
:10AC80000333FFF7E7F800284DD16B46FA20D97857
:10AC90008000013103F0CAFEA37A80B2E08140084F
:10ACA000002B14D001ADBB2821D9012301222B7028
:10ACB000E37A93420BD0236801229978636818786D
:10ACC0002B00FFF7C7F8002801D12B78E372002092
:10ACD00002B070BDFA23311C9B009E420FD8FA20AF
:10ACE00089B2800003F0A2FE0138C0B2C0E761283B
:10ACF0000ED829281AD9032303222B70D8E7FA206B
:10AD0000191C89B2800003F091FE0138C0B2AFE790
:10AD1000022302222B70CBE72A708BE7C0B2FFF729
:10AD200025FE0020D4E701204042D1E7132805D8B2
:10AD3000092807D9052305222B70B9E7042304222B
:10AD40002B70B5E7062306222B70B1E77020002098
:10AD5000F0B54746242380B4304D82B0EB5C00242C
:10AD6000002B2BD1AC7A002C54D0013398430440F3
:10AD70002F7C2C74041B621E944106006442002840
:10AD800021D12A7D002A30D06A7C002A16D10732D0
:10AD90006A4413702B689046597C6B6818781300CE
:10ADA0000122FFF757F8002808D143461B786B743F
:10ADB000002E03D0FFF72CFD002827D1200002B081
:10ADC00004BC9046F0BD6A7C002AF3D107226A4495
:10ADD00013702B689046597C6B6818781300012219
:10ADE000FFF738F80028E0D0E4E76B46DA712B680B
:10ADF0000122597C6B6818786B460733FFF72AF8F5
:10AE00000028DBD16B46DB796B74D7E701242F7404
:10AE10006442D3E701246442D0E7C046702000209A
:10AE2000F0B54F4646467023C0B4050083B00340DA
:10AE300069D06B469E1D01233370484C0122236864
:10AE4000597D636818783300FFF704F8002800D0B4
:10AE50007EE0402233783070934323732A4266D0D9
:10AE60003A20844637388146013838233922012177
:10AE70003B278046A80604D443463A00337049462F
:10AE80006346E80601D4130031702A0700D43370FA
:10AE900023680122997D636818783300FEF7DAFF92
:10AEA000002855D108232A009A4320D02323E35CAD
:10AEB000002B1CD06B46D871A37C8022002B03D0C2
:10AEC0006A460223D37182222223E35C002B01D045
:10AED0006B46DA7123680122D97D636818786B4666
:10AEE0000733FEF7B7FF002801D12323E0540023E6
:10AEF0003220A5722375FDF7DFF9002003B00CBCEA
:10AF000090469946F0BD00281ED16B464027134C51
:10AF10009E1D23683770597D6368012218783300BD
:10AF2000FEF798FF002813D13378BB4323733E20EC
:10AF30000423844637388146013833703D22383344
:10AF400005213F27804695E76A46961D337074E7D2
:10AF500000230120A3724042D0E7C04670200020A9
:10AF6000802370B5774C84B002AD2B70236801222A
:10AF7000597D636818782B00FEF76CFF061E00D021
:10AF8000C2E06420FDF798F923682E70597D63684C
:10AF9000012218782B00FEF75DFF002800D0B3E0F7
:10AFA00070232B7023680122D97E636818782B00E8
:10AFB000FEF750FF002800D0B5E023680622597E36
:10AFC000636818782B00FEF7E5FE002800D09BE0B0
:10AFD00004216B7901269B0019400223EA78520074
:10AFE00013406A780B433240134300D182E0D9B258
:10AFF000012B03D0022900D098E00023E374002342
:10B000002B7023680122D97E636818782B00FEF725
:10B0100021FF051E00D086E00122FF235242A372C9
:10B0200023726372E372E2812274A3742332FE3BC3
:10B03000A35423732233E054607520752000163A20
:10B0400016300021FDF7E4F82423E5540133E554DC
:10B05000A37AE584002B57D06B46DD1D18232B7097
:10B06000237A032B0FD0236801229979636818781B
:10B070002B00FEF7EFFE002846D12B78DB08237269
:10B08000A37A002B40D000232B70637A002B0FD0C3
:10B0900023680122D979636818782B00FEF7DAFE5D
:10B0A000002831D12B78DB086372A37A002B2BD0D8
:10B0B00005232B70E37A052B0BD0236801229978A6
:10B0C000636818782B00FEF7C5FE00281CD12B788A
:10B0D000E372FA208000FFF787FD002814D10020DA
:10B0E000FFF736FE041E0FD10020FFF799FE200067
:10B0F00004B070BD23680122D978636818782B00EA
:10B10000FEF748FE002802D001246442EFE70F2238
:10B110002B78134010D0042B00D06EE70A4806F0BD
:10B12000B9FBE6746BE703246442E0E701240748B7
:10B1300006F0B0FB6442DAE70124054806F0AAFBFA
:10B140006442D4E770200020B43002003C3002009A
:10B1500064300200F0B54F4646462423C0B4284C64
:10B1600083B0E35C070089469046002B3BD0A37A6E
:10B17000002B38D0236801AE197B6368022218784F
:10B180003300FEF707FE00282DD1357873782D02A5
:10B190001D43BD422AD3606843885B089D420CD999
:10B1A00023680078D97C01223300FEF7F3FD0028E4
:10B1B00019D13378DB061DD460682368FAB2597B55
:10B1C00000784B46FEF7E6FD00280CD13900280038
:10B1D00003F0A2FB434601381870002003B00CBCFA
:10B1E00090469946F0BD01204042F7E7434618706B
:10B1F0000138F3E7FFF70CFB02204042EEE7C046C0
:10B20000702000202223024AD05400207047C046FC
:10B2100070200020232370B5174C82B0E35C05003A
:10B22000834224D000281DD18022822002260021C2
:10B230006B4607331970A17C002901D002001E70F3
:10B240002221615C002900D01A702268D17D6268D9
:10B2500010780122FEF7FEFD00280AD12323E554D1
:10B2600002B070BDB022B22032263021E0E70020CB
:10B27000F6E701204042F3E77020002070B50D0092
:10B2800082B0161E20D0124CA37A002B1CD0020ACA
:10B2900001AB1A70C0B26268587040185189884278
:10B2A00012DC21681078C97E0222FEF7D3FD002847
:10B2B0000AD12368EAB2197E636818783300FEF772
:10B2C000C9FD404202B070BD01204042FAE7C046CD
:10B2D00070200020F0B556465F464D464446F0B417
:10B2E0008BB003932523514E01910292F35C824669
:10B2F000002B75D1002973D0002800D194E0040000
:10B30000102800DD75E0A3B29B46B37A002B67D00E
:10B31000002305AF70683B707B7043899C425FDC03
:10B32000019B0025984638E033681078D97E0222C8
:10B330003B00FEF78FFD002852D133684A46197E44
:10B340007368187806ABFEF725FD002848D1220067
:10B3500006A9404606F0DAF900284CD15D44ADB2AA
:10B36000AA454BD953465C1B102C00DD1024A3B218
:10B370009B46019B9846A8444346002B30D0B37AA5
:10B38000002B2DD02B0A3B707068EBB222047B702F
:10B39000120CD3184289934222DC33680078D97E9C
:10B3A00002223B00FEF756FD002819D1E3B2994670
:10B3B00033684A46197E736818784346FEF74AFD9B
:10B3C00000280DD1B37A002B0AD02B0A3B7072688B
:10B3D000EBB27B702404240C51891B198B42A3DD32
:10B3E000012040420BB03CBC90469946A246AB4679
:10B3F000F0BD102487E702204042F3E7029A130AC7
:10B400003B7033687A70597F7368022218783B006A
:10B41000FEF720FD0028E3D125230122F2546B46DC
:10B420009B890020F384DDE705AFE8E7702000206A
:10B43000242330B55A4C83B0E35C834276D0002895
:10B4400000D17AE02522A25C002A00D19EE0002BE8
:10B4500000D06EE0A27A002A00D19AE06A46D51D9B
:10B460002B7023680122597C636818782B00FEF743
:10B47000F1FC002801D12B786374A37C002B36D01B
:10B48000236801221979636818782B00FEF782FC83
:10B4900000282CD1A37ADB0700D56FE020222B787F
:10B4A00093432B70236801221979636818782B0065
:10B4B000FEF7D0FC00281AD10330FCF7FDFE222352
:10B4C000E35C3022002B01D0802380322B702323B9
:10B4D000E35C002B00D02A7023680122D97D6368C9
:10B4E00018782B00FEF7B6FC002800D1A074E08C81
:10B4F000FFF77AFB6B46002206331A70626823213D
:10B5000010780122FEF7A6FC24230122E254223BFC
:10B510002B702368597C636818782B00FEF79AFC1F
:10B52000002801D12B786374FFF772F9002003B073
:10B5300030BD6B46DD1D002392E7002B22D1A27A9D
:10B54000002A29D06A46D51D2B7023680122597C18
:10B55000636818782B00FEF77DFC002801D12B785A
:10B560006374237C01222B706368232118782B00DD
:10B57000FEF770FC00222423E254D5E720232A782A
:10B5800013438EE76B46DD1D2870DEE70120404245
:10B59000CDE76B46DD1D70E76B46DD1DE1E7C0467C
:10B5A00070200020802210B5C823D2000249034831
:10B5B000FFF790FE10BDC0464C310200F60B0000B4
:10B5C000F0B5404C87B002AF050003AE2100032266
:10B5D000380006F0AAF8211D0322300006F0A5F875
:10B5E00021000322083104A806F09FF8210003225D
:10B5F0000C3105A806F099F8032108006A466C464C
:10B6000028403B5C1370EA080A40BB5CB25C637084
:10B61000AB090B40F95CF35CA170315C01AC2170AB
:10B62000627003216A462848A370FFF727FE0028AE
:10B6300045D1220003212548FFF720FE00283ED1F6
:10B64000032204A9684606F070F8032205A9200029
:10B6500006F06BF86B0708D56A4601236946127835
:10B660001A430A70227813432370AB0608D56A4642
:10B670000123694652781A434A7062781343637013
:10B68000EB0512D488206A460321C000FFF7F6FDBF
:10B69000002814D1220003210D48FFF7EFFD0028F8
:10B6A0000DD10C4B1D8107B0F0BD6A4601236946E0
:10B6B00092781A438A70A2781343A370E2E70120BC
:10B6C0004042F0E700310200260400002A04000096
:10B6D000310400007823002010B5144986B004001E
:10B6E0000C22103103A806F020F8C82C1AD821002B
:10B6F000C82003F09BF9013880B201AA030A5070F8
:10B7000002210B481370FFF7B9FD00280AD103AAE4
:10B710000C210848FFF7B2FD002803D1064B9C819D
:10B7200006B010BD01204042FAE7C04600310200D9
:10B7300016020000C10A000078230020F0B50500C1
:10B7400083B043076BD0C823DB00994267D8080059
:10B7500004F058F94D4903F087FC6B46DC1C071CCC
:10B760002000FFF7DFF92378042B00D17DE033D9E7
:10B77000082B6AD0102B52D18A21381CC90503F03E
:10B780003DFE03F0E3FA424986B2381C03F036FE70
:10B7900003F0DCFA80B201AC330A2370030A66704E
:10B7A000A370E070EB0729D4AB073CD400206B07F3
:10B7B00037D5EE20220002214000FFF75FFD002870
:10B7C0002DD16B462D309A1D0221FF30FFF756FD1B
:10B7D000431E9841404224E0022B20D18D21381C89
:10B7E000C90503F00BFE03F0B1FA2A4986B2381CF2
:10B7F00003F004FE03F0AAFA80B2CCE7EA202200AC
:10B8000002214000FFF73AFD002808D16B462530A1
:10B810009A1D0221FF30FFF731FD0028C4D001201E
:10B82000404203B0F0BDEC20220002214000FFF7AF
:10B8300025FD0028F3D16B4629309A1D0221FF30E7
:10B84000FFF71CFD0028B1D0E9E78B21381CC905A2
:10B8500003F0D4FD03F07AFA0F4986B2381C03F0E6
:10B86000CDFD03F073FA80B295E78C21381CC90531
:10B8700003F0C4FD03F06AFA084986B2381C03F0ED
:10B88000BDFD03F063FA80B285E7C046000048437F
:10B890000000C04400004046000040450000C04594
:10B8A000F0B54E4645465746E0B486B0924B03ACE1
:10B8B00006002200042168200393FFF7DFFC4022EA
:10B8C000A32332402370904600D10DE11D336370F5
:10B8D0000833A370063BE370C0277F00374000D1D8
:10B8E000FDE0C423237108336371063BA371A323D6
:10B8F00022000A218148E37123726372FFF7BEFCC4
:10B900000323334099464A462023002A00D1B83306
:10B91000220001217A4823706D46FFF7AFFC09220F
:10B920007849B30600D4D8E01C31280005F0FDFEAC
:10B9300097202A000921C000FFF7A0FC002F09D0A2
:10B94000F30500D5D4E0704B0393220004216F4827
:10B95000FFF794FCF30700D4B6E08B20F823220015
:10B96000012100012370FFF789FCFA210720FFF76E
:10B97000E5FEA4203F232A00012140002B70FFF7A1
:10B980007DFC002350209A462A000121FF302B70B5
:10B99000FFF774FC5346EF202B7014232A0002217A
:10B9A00040006B70FFF76AFC5346ED202B70642358
:10B9B0002A00022140006B70FFF760FC53462B7099
:10B9C0008E23AE206B706B33AB702A00693B042171
:10B9D0004000EB70FFF752FC5346AD202B7008235C
:10B9E0002A00022140006B70FFF748FC5346AC2050
:10B9F0002B7002232A00022140006B70FFF73EFCEF
:10BA0000B307DB0FD8332200012141482370FFF731
:10BA100035FC730752D53F4B00932A0004213E4862
:10BA2000FFF72CFCFEF7F4FEF30641D53B4B0093E9
:10BA30002A0004213A48FFF721FCFEF7E9FE08231B
:10BA4000384C33436381FEF7E3FE4346002B22D19B
:10BA50000A20434684460C3082461038A3731422D1
:10BA6000042310211A258046002F04D043462A00C3
:10BA7000A373514663461420304201D01300A173D2
:10BA80004A46002A00D0A373002006B01CBC904692
:10BA90009946A246F0BD1020062384460C3082460B
:10BAA0001038A3731A220433162120258046DBE7C1
:10BAB0000422A3212800FCF7ABFBB9E704228B2169
:10BAC0002800FCF7A5FBA8E78B20D8232200012142
:10BAD00000012370FFF7D2FB92E7283125E7A3236B
:10BAE00023716371A37102E76370A370E370F3E6DF
:10BAF0000D4B039329E7C04602CAE309A70A0000D9
:10BB0000B60A000000310200B080B490A20A000022
:10BB10003D070000C0C2C4C6980A00002028303883
:10BB20009E0A000078230020B28BB69BF0B54446F5
:10BB30005F4656464D460023F0B491B01A9C06006D
:10BB400023807C4B0F00987B914608A91B9AFFF736
:10BB500001FB03B298462380181E74D11422754B42
:10BB60005B891A4200D075E00325AC46013DA8462A
:10BB7000013DA94600250C2100220420AA46079178
:10BB80000139069101390591013904910139039177
:10BB9000013993460291063201390191009201392F
:10BBA0005D062DD5524608ADAA5C120292462A00C7
:10BBB0004D46525D554615433D80454608AA525DA7
:10BBC00065461202904608AA525D4546154308AAEA
:10BBD000515C105C009A00029346079A0843009259
:10BBE000049A08219446039A7D809046029AB88070
:10BBF0009146019A20889246014321800598069932
:10BC0000C0277F003B421BD0554608AA575D4D46D2
:10BC1000525D45463F02174308AA3780575D654687
:10BC2000525D3F02174308AA105C515C00020143B9
:10BC3000B180009A7021934677802088014321804B
:10BC40009B0752D1002011B03CBC90469946A246B9
:10BC5000AB46F0BD089A11BA4A461160099A091418
:10BC600010BA4A4650600A9A8C4612BA92464A4620
:10BC7000554695604D460B9A514612BAEA606546A4
:10BC80006D43AC4600140914404312144943524317
:10BC9000604440188018F1221206944680226044C5
:10BCA000920490423FD88021228849000A43228092
:10BCB000102293460632009206320792013A06920B
:10BCC000013A0592013A0492013A0392013A029232
:10BCD000013A0192033A9446013A9046013A91465C
:10BCE000013AEB39142092465AE708AB9C465C4671
:10BCF00064446378E678DA070BD50E4A1268002AA6
:10BD000007D007200100F308314018400131904767
:10BD100063781B0796D5074B5B68002B92D0B00960
:10BD2000984700208FE7FEF773FD434601202380EC
:10BD3000404288E7782300200023F0B5C356002B4B
:10BD400036DD3022002320240821282610259446A1
:10BD5000382703228256002A18DD06214156002288
:10BD6000002902DD134398B2F0BD00293AD1072122
:10BD7000415640320029F5DC51D10821415640326C
:10BD80000029EFDC59D1E0225200EBE7002A27D14D
:10BD9000042282560B00002ADFDC3ED105228256A7
:10BDA0002B00002AD9DC3B00002AD6D06346D4E71A
:10BDB000002B0CD10123C356002B16DD31220123A9
:10BDC000212409212926112594463927C1E7342247
:10BDD000042324240C212C26142594463C27B8E760
:10BDE0002300BAE780225200BCE7002B0CD10223CB
:10BDF000C356002B16DD3222022322240A212A26D2
:10BE0000122594463A27A4E73522052325240D213F
:10BE10002D26152594463D279BE733009DE7A0225C
:10BE200052009FE7002B0BD13722072327240F2135
:10BE30002F26172594463F278BE70132FF3291E7E3
:10BE40003622062326240E212E26162594463E272A
:10BE50007FE7C046F0B55F4656464D464446F0B4CF
:10BE6000774B91B004AA944601930E236344009348
:10BE70000CAA00230AA908A8FFF758FE43B2002025
:10BE8000002B06D011B03CBC90469946A246AB466A
:10BE9000F0BD0C9803F06EFDC221890503F0AEFAE7
:10BEA000041C0D9803F066FDC221890503F0A6FA73
:10BEB00080460E9803F05EFDC221890503F09EFACC
:10BEC00081460F9803F056FDC221890503F096FACA
:10BED000211C051C201C03F091FA4146071C40461A
:10BEE00003F08CFA49468246484603F087FA291C3B
:10BEF0000290281C03F082FA5146061C381C03F0FD
:10BF000091FB029903F08EFB311C039602F036FF81
:10BF100005F06CFB04900591291C484603F06EFA6D
:10BF200041468346201C03F069FA011C584602F082
:10BF300025FF05F05BFB02000B0003F0A1FD049A56
:10BF4000059B01F0A7FF00223E4B04F0E9FC05F041
:10BF5000D5FA3D4B291C1880404603F04FFA49465C
:10BF60008346201C03F04AFA011C584603F05AFB92
:10BF700005F03CFBC02300221B0604F0D1FC01F0BD
:10BF800027FF80268B46844636065E4460460022A4
:10BF90002C4B310004F0C4FC05F0B0FA2B4B514699
:10BFA0001880381C02F0EAFE029903F03BFB03996B
:10BFB00003F038FB05F01AFB06000F004046494627
:10BFC00003F01CFA291C8046201C03F017FA011C00
:10BFD000404602F0D3FE05F009FB02000B0003F01F
:10BFE0004FFD32003B0001F055FF0022154B04F0DD
:10BFF00097FC05F083FA7022154B188004ABDB899F
:10C000001A4210D101201B0700D43BE704AB1A8B66
:10C01000104B1A8004AB5A8B0F4B1A8004AB9A8BCF
:10C020000E4B1A802EE704AA118A0D4A118004AA29
:10C03000518A0C4A118004AA918A0B4A1180E1E7C7
:10C0400020260020005FC440302700203C2700202D
:10C050001E2600204E2800201A260020222600201E
:10C0600064290020522800208C2A0020A223A0222C
:10C07000DB00D205D35801209B0604D4024B18786C
:10C08000431E9841C0B270472026002070B50500BD
:10C0900082B000200E00FEF763FF0100324805F079
:10C0A000F9FB7820FEF7BCFE0100304805F0F2FBFA
:10C0B0007820FEF74DFE01002D4805F0EBFB002037
:10C0C000FFF7A0F80120FFF7A5F8002D1FD16B4660
:10C0D000DC1D0122DD711A2123006820FDF7BAFE64
:10C0E0000100244805F0D6FBFA203100400102F09F
:10C0F0009DFC013820701921230001226820FDF7E2
:10C10000A9FE01001C4805F0C5FB02B070BDFFF799
:10C1100049FA0100194805F0BDFB1948FFF70CFE6C
:10C12000FFF74EFA0100174805F0B4FB7220FF300C
:10C13000FFF7B6FB0100144805F0ACFB6420FFF7E5
:10C14000CBFA0100114805F0A5FB0120FFF770F9BB
:10C1500001000F4805F09EFB0A20FEF709FD0100D3
:10C160000C4805F097FBD0E7683D0200803D0200D7
:10C17000983D0200403E0200583E0200B03D0200E1
:10C180009C200020C83D0200E03D0200F83D020076
:10C19000103E0200283E020010B50B0001000B48C3
:10C1A00005F078FB8021A123A022FA20C900DB0042
:10C1B000D205D150C000FCF77FF8BFF34F8F044A7F
:10C1C000044BDA60BFF34F8FFEE7C046703E0200BB
:10C1D0000400FA0500ED00E080218023184A89025E
:10C1E000D1508022D221174B520289005A50403937
:10C1F0005A5001222F205A600138C046C046C0461E
:10C20000C046C046C046C046C046C046C046C046FE
:10C21000C046F1D19A6000230B4A2F2013600138E9
:10C22000C046C046C046C046C046C046C046C046DE
:10C23000C046C046C046C046F1D1044A137070479C
:10C2400000E100E00010014088230020A823002026
:10C25000A021F0B5002347462C4A490080B4535032
:10C260000431535004315350043153504C3953501E
:10C2700004315350264B1B68002B37D0254900262C
:10C2800052582549254F0C68141B00222402240A09
:10C29000904602E0002D1AD02B001A68A24216D850
:10C2A000A41AB6181A7CDD69002AF3D042469969AF
:10C2B0001A745A693B68002B1BD01000984700285D
:10C2C000E8D000220021FFF767FF002DE4D1144BD6
:10C2D00014491A780B789A420ED0134A9B009E504C
:10C2E00080218023114A49035B00D15004BC904651
:10C2F000F0BD08009047CDE70132D3B2022B01D048
:10C300000B70EAE700230B70E7E7C046001001401E
:10C310008C230020040500008823002090230020A7
:10C320009C2300209D230020A023002000E100E0AA
:10C33000F0B55F4656464D464446F0B4C54BC64A36
:10C340001B68C6498BB0059309781378994200D1D0
:10C3500057E10133DBB2022B00D100231370C04A36
:10C360009B009B58BB4A9A46059B53441B021B0AE1
:10C37000136001230193BB4B00241B689B46BA4BFF
:10C380005A461B78914619000393B84B88461B68A0
:10C3900047460493AF4B013F1B680793B44B1B7890
:10C3A000099300239C4606930893FBB26646984681
:10C3B000FF2B32D04346D800049B9C4613006044B8
:10C3C0000178457800961A00A9421FD046684A00B5
:10C3D000B446521886780131D200C9B262448E4206
:10C3E00000D1EDE01678022E00D1C7E0032EEAD18D
:10C3F000002BE8D01C74DB69002BFBD1013345789E
:10C400000093002399461A00A942DFD14746013F15
:10C41000FBB2009E9846FF2BCCD1089BC8460292E7
:10C42000B446002B00D0F0E0069B002B02D0894BD5
:10C43000079A1A606346002B02D04246894B1A6065
:10C44000019B002B00D02DE15B46029A00259B1A30
:10C450005A1E9341DBB205937E4B00271B6802995D
:10C460009C46804B1B689B46814B1B7806930023A0
:10C470000193804B994601230093039B013BDBB260
:10C480000393FF2B00D1F9E0049ADB0092460E00E3
:10C490009A44002D28D06A68A9682C00ED6963468B
:10C4A000D31A1B021B0A4B4552D86A4612785B18F6
:10C4B00023606760A7602274E761002E58D031685E
:10C4C0003000994205D3B9E01168994200D3A3E046
:10C4D0001000C2695B1A002AF6D1E26132002360C3
:10C4E000C4611600002DD6D153461A785B7831000E
:10C4F0009342C2D0514649685300884651469B1822
:10C500000132D2B20A708978DB004344914200D1F3
:10C510009DE0197832000129E3D15C68227C9046C5
:10C52000414632000029DCD19A686260D968A16076
:10C530001869E0605B69A361069B002BAFD043469E
:10C54000002263606346D31A1B021B0A4B45ACD919
:10C5500063469A1A1202120A8A4264D28B1A6A46F7
:10C56000127823606760A7602274E761002EA6D16D
:10C5700022000123A34601931600B3E75668002B5F
:10C5800030D09E421ED0009A1F00944602E0964290
:10C5900006D01700FA69002AF9D16246009212E724
:10C5A00065460095BA420FD01568D269FA61002A33
:10C5B00016D013689C466544156045784B4602E7E3
:10C5C00000210FE71A001F00DE69002E0CD00125A4
:10C5D00000951568D269B1463300FA61002AE8D1A6
:10C5E0004578F0E60023EEE60125234B9D6000959B
:10C5F000069500250023079501359946089509956C
:10C60000D2E700239A460193B5E66A4624215218E0
:10C61000174B12781A7007E7C91A1160E26123609C
:10C620003200C4615DE76B461B7827606760A760D6
:10C630002374E761002E9BD000233168CB1A33604E
:10C6400022000123E661A346019316004AE7524601
:10C6500015705EE7882300209C2300209D23002086
:10C66000A02300208C230020942300209823002066
:10C670009E230020FEFF7F0000100140019B002B45
:10C6800000D09DE0029B994236D1059B002B33D10F
:10C690000023534A13700BB03CBC90469946A24607
:10C6A000AB46F0BD4F4B002418680025029B0021CB
:10C6B0000026574615E01A68BA4200D984E0D868C7
:10C6C000BF1A89181E60DC69002807D0DD611D00D3
:10C6D000059A986052181202120A5A60230020002C
:10C6E000019C002BE7D1002C01D03E4B18600023A9
:10C6F000029301330593AFE6002900D15DE00B689A
:10C7000039489846394B3A4DC4583A4B2E781B68F5
:10C71000E11A0902090A0331002E2DD042468A424D
:10C7200000D20A00A820D21812022F49130AC00012
:10C730002E4D0B504A591B1B121B1202120A1B02D0
:10C7400003321B0A9A42A3D94B590B502F200138B0
:10C75000C046C046C046C046C046C046C046C046A9
:10C76000C046C046C046C046F1D180218023224A3F
:10C7700089025B00D1508BE78026D1277602BF006B
:10C78000C651403FC651C02280271B4EBF025200F7
:10C79000B7503760012606602F200138C046C046DA
:10C7A000C046C046C046C046C046C046C046C04659
:10C7B000C046C046F1D12E70B0E7FFF70DFD67E728
:10C7C0005A46084B1A605DE7BA46002C01D005496D
:10C7D00008605146521A1A600293012305933BE602
:10C7E0009E2300208C23002000100140040500003F
:10C7F000A82300208823002000E100E0F8B54F4680
:10C800004646C0B40326350080460F001400994602
:10C8100015400720002D03D00CBC90469946F8BD6A
:10C82000002A44D0FFF7D8FC4A46224B80201A60E9
:10C830002200214B18321E70204B62601C607B006E
:10C84000DB19DB00D218E260D318C02263612570C7
:10C850006570A77025726572A77225746574A774D8
:10C86000C524FF21164B40031D60164B52001D705E
:10C87000154BA4001D70154B98501A598A433F3927
:10C880000A431A51A122186040461149D20088502B
:10C89000C42080001C580F4A2240C0242402224396
:10C8A0001A500D4B0020CA580C4B1A60B4E7034BCA
:10C8B0001A60B1E7902300209423002098230020E1
:10C8C0008C2300209C2300209D23002000E100E019
:10C8D00000100140FF00FFFF040500008823002036
:10C8E00010B50B4B1B68002B0BD0002A07D000287B
:10C8F00005D0036808201C7C002C04D010BD072044
:10C90000FCE70820FAE759745A610020F6E7C046B0
:10C9100098230020F0B5344B1C68002C06D000286A
:10C9200004D00723042903D81800F0BD0823FBE72F
:10C930004369002BFAD0437C012B44D000262B4BBB
:10C9400010255B68DB05DB0D25D164196378A578BC
:10C950005F1CFFB2BD423AD02578BD4235D05D00A4
:10C96000ED186368ED009C4665440423002DDBD080
:10C97000033B2B7068601E4B1E48C358E960AB60D8
:10C98000802180236A611C4A5B0049032E61677025
:10C99000D1500023C8E7103B5DB2002D19DBAD0874
:10C9A000C035154FAD00ED5903273B40DB00DD409E
:10C9B000AB093B40DBB20025012BC6D00835032B69
:10C9C000C3D00835C1E70E00B9E70423ACE7002760
:10C9D000C2E70F25094FDBB2BC461D40083DAD083C
:10C9E000AD0065446D68DFE79823002000ED00E0AE
:10C9F000040500000010014000E100E018ED00E037
:10CA000010B52C4A03001168082000292AD0002BF9
:10CA100028D05A69002A25D000221A74264A0830E4
:10CA20005268D205D20D1ED109184A788878541C54
:10CA3000E4B2A04231D00878A0422CD05000821835
:10CA40004868D200844662440420002A0AD0023892
:10CA5000107053604C70802380210020174A4903D6
:10CA60005B00D15010BD103A50B2002817DB80088F
:10CA7000C030124C8000005903242240D200D04024
:10CA800082092240D2B20020012ACDD00830032AE8
:10CA9000CAD00830C8E70420E4E70024CBE70F2021
:10CAA000074CD2B2A4461040083880088000604489
:10CAB0004068E1E79823002000ED00E000E100E09D
:10CAC00018ED00E0074B1A680823520701D418003C
:10CAD0007047002804D0044B5B7803600023F6E71E
:10CAE0000E23F4E778240020AC23002071DF704788
:10CAF00072DF704779DF70477DDF704765DF704711
:10CB0000F0B55F4656464D464446F0B485B09A4669
:10CB10000EAB80CB06001B8800919B463B8801939F
:10CB20000388002B63D00023994602ABDD1C3B0039
:10CB300000241700984603E033880134A3422CDD1B
:10CB40007368A1009C460422614403A804F0EDFD33
:10CB50000022290003A8FFF7D1FF002829D12B7854
:10CB6000BB42E9D14B46002B2AD043461A88D31941
:10CB70005B453EDC5244290003A8FFF7BFFF0028B5
:10CB800017D143462A781B880134D31842461380B4
:10CB9000012399463388A342D2DC4B464746002BFB
:10CBA00025D03B88019A013B9B1A9BB20C20FF2B9E
:10CBB0001AD905B03CBC90469946A246AB46F0BD9A
:10CBC00043461B88DA1902325A4512DC42460133C9
:10CBD00069469BB2138052460978D15443461A885D
:10CBE000013292B21A80C5E7110052465354002018
:10CBF000DFE70C20DDE7C046F0B55F4656464D4600
:10CC000044460023F0B417881380436B87B00600B6
:10CC10000D001400002B00D19CE1022F00D891E1FF
:10CC20001A7802230B701121238801339BB22380D1
:10CC3000E954238801339BB22380EA5423880133CB
:10CC40009BB22380326B002A00D170E019001231B0
:10CC5000B94200D976E11121E95423880139013321
:10CC60009BB22380E954238801339BB22380D17B7C
:10CC7000E954238801339BB22380917BE9542388B4
:10CC800001339BB22380517BE954238801339BB24B
:10CC90002380117BE954238801339BB22380D17A0E
:10CCA000E954238801339BB22380917AE954238885
:10CCB00001339BB22380517AE954238801339BB21C
:10CCC0002380117AE954238801339BB22380D179E0
:10CCD000E954238801339BB223809179E954238856
:10CCE00001339BB223805179E954238801339BB2ED
:10CCF00023801179E954238801339BB22380D178B2
:10CD0000E954238801339BB223809178E954238826
:10CD100001339BB223805178E954238801339BB2BD
:10CD200023801278EA54238801339BB223802E2279
:10CD3000B25C002A00D00FE12D22B25C002A00D0A4
:10CD40002CE1B278002A00D055E1F278002A14D004
:10CD5000D91CB94200D9F5E00221E95423880139F0
:10CD600001339BB22380E954238801339BB2238093
:10CD7000EA54238801339BB223807268002A15D0BD
:10CD8000D91CB94200D9DDE002211278E954238888
:10CD9000083101339BB22380E954238852B2013316
:10CDA0009BB22380EA542388013323803389002BEC
:10CDB00000D09BE1338A002B00D0B1E1338B002BF4
:10CDC00000D0C7E1336A002B4BD022880C20911D84
:10CDD0009346B94200D9B6E0198805388A46052934
:10CDE00000D8B0E0BB496A468C46D4446146D18144
:10CDF000D1898C46B84988468C4500D8A3E059882B
:10CE00008C46052900D89EE0B2496144D18189B29F
:10CE1000414500D897E0B1498A4504D08C4502D0FD
:10CE2000E24500D98FE005215A46A95422880D31E8
:10CE3000013292B22280A9542288013292B2228019
:10CE40001988AA181170090A51702288023292B208
:10CE500022805988AB181970090A59702388023347
:10CE60002380736A9846002B30D09A882188131D3E
:10CE70005B180C20BB4266D8931CFE2B63D8033290
:10CE80006A54FF22238801339BB22380EA5442462E
:10CE9000238801339BB223801288EB181A70120A80
:10CEA0005A704246238802339BB223809288002A1C
:10CEB0000CD0414689680538002944D0E81804F0B0
:10CEC00034FC434622889B88D31823802C23F35CB0
:10CED000002B00D0B0E033780020002B33D0328814
:10CEE0000720012A2FD02288901CB8422AD8012B73
:10CEF00004D1737802339B189F4223D3023FBA1A9E
:10CF000004AF93B22818390098463B80FFF7F4FD30
:10CF1000002818D13378022B00D141E1012B00D138
:10CF2000DEE043460821FE2B0CD822885E1CAE545E
:10CF30002288013292B22280A954228801329B18A1
:10CF4000238000E00C2007B03CBC90469946A246E6
:10CF5000AB46F0BD002375E6D91C0C20B942F2D8CF
:10CF60000221E9542388103001339BB22380E85416
:10CF7000238801339BB22380022A00D10BE100D821
:10CF800004E1032A00D109E1042A00D0FCE00322D5
:10CF9000EA54238801339BB22380CDE609330C2069
:10CFA000BB42D0D804A8FFF7A1FD0028CBD10822AE
:10CFB00023880921EA542388133201339BB223804A
:10CFC000EA5402AB9C462088153A013080B220809A
:10CFD0006144281804F0A9FB238802AA0633127AB8
:10CFE0009BB22380002A00D00122EA542388013317
:10CFF0009BB22380A5E604330C20BB42A3D804A82F
:10D00000FFF778FD00289ED103222388EA54238865
:10D01000163201339BB22380EA54238802AA0133DB
:10D020009BB212892380EB181A70120A5A70238857
:10D0300002339BB2238088E6B36A9846002B00D166
:10D04000A2E09B880233FE2B00D97BE700229146A9
:10D05000163292461632208893460CE04B46B26A4E
:10D060005B0090464B449B00984443469B880233A8
:10D07000FE2B00D966E7524601332B542388013337
:10D080009BB22380EA544246238801339BB223801B
:10D090001288EB181A70120A5A7043462088023020
:10D0A00080B220809A88002A0BD0996800296BD022
:10D0B000281804F03AFB434620889B88C01880B2A9
:10D0C00020804B460133DBB299465B46F35C4B450F
:10D0D000C4D800E77FF3FFFF7DF30000FFFF0000EF
:10D0E0007378984500D31DE743461BE7082398460D
:10D0F000B044019700942B00022202214046FFF722
:10D10000FFFC002800D01EE7019700942B0010229E
:10D1100006214046FFF7F4FC002800D013E749E65B
:10D1200010239846B044019700942B00022203215B
:10D130004046FFF7E5FC002800D004E70197009483
:10D140002B00102207214046FFF7DAFC002800D010
:10D15000F9E633E618239846B044019700942B0073
:10D16000022214214046FFF7CBFC002800D0EAE65B
:10D17000019700942B00102215214046FFF7C0FCB8
:10D18000002800D0DFE61DE60720DCE6012AFBD1FF
:10D190000022EA54FDE60122EA54FAE6E954F8E6F0
:10D1A0003B880921984500D3BDE64346BAE6C04610
:10D1B00030B593B01F236A460C009380D3800028BB
:10D1C00022D0C3785B071CD501AA02A9FFF714FD82
:10D1D00002AD002816D1002C19D0E378002B10D115
:10D1E0006B460AA99A1D2000FFF706FD002809D109
:10D1F0006B469B790AAA694628000979FFF778FCF3
:10D2000000E0072013B030BD90800025E3E76B46B7
:10D210000022DC800023EEE773DF704770B59F4E7D
:10D2200086B0072200213000FAF7F2FF9C4C6378A9
:10D23000002B6ED09B4D2B78012B05D0A278002AB5
:10D2400000D1EFE0022B0FD1974A1268002A00D1DB
:10D25000FDE00121954B0820197090472B78012B98
:10D2600000D1F7E0022B5FD0227B002A01D1032BF3
:10D270007AD0227E002A02D1042B00D107E18A4A0B
:10D280001268002A02D0033B012B77D90022884B79
:10D290001A70182200216846FAF7BAFF00236A467E
:10D2A000137013722A7801930393022A00D18BE042
:10D2B00072D9032A00D194E0042A22D16B46A28BB2
:10D2C0001A82228C5A827B4B1A79002A00D1B6E04E
:10D2D0002278002A00D1B6E0774A1278002A00D0DE
:10D2E000B1E0694603930423023274480A720021B4
:10D2F000C370FFF75DFF002864D10622704B1A70DF
:10D300002A78002A51D1684B1B68002B56D1002087
:10D3100058E0A378634D002BA0D02B78022B93D03C
:10D32000012BA1D102232B70A378002B17D0737887
:10D33000002B00D0B0E0B378002B00D0ACE0F37845
:10D34000002B00D0A8E03379002B00D0A4E0737943
:10D35000002B00D0A0E0B379002B00D09CE0032389
:10D360002B70237B002B61D104232B70237E002B99
:10D3700000D18CE04C4B1A68002A87D02378002B10
:10D3800084D04D4B1B78002B00D07FE70121484B08
:10D390000720197090477CE7012AB2D169464B8279
:10D3A0000B82474B01960A701A706846FFF734FFEC
:10D3B000002807D13C4B1B68002BA8D0404A1078AE
:10D3C0009847002006B070BD012369460B706B467C
:10D3D000218901965982694663680B82384B1A701D
:10D3E000E3E76B46A28A5A82228A1A82314B1A7963
:10D3F000002A1DD02278002A1DD02F4A1278002A38
:10D4000019D169460393042302322C480A72002181
:10D41000C370FFF7CDFE0028D4D10522284B1A7027
:10D420002A786EE7022B00D01EE798E7032326E751
:10D430001A7B002ADED10322214B1A70B5E71A7B32
:10D44000002A00D044E704221D4B1A70ADE71749AB
:10D450000A7004E76278002A00D163E77278002A34
:10D4600000D00CE7B278002A00D008E7F278002A52
:10D4700000D004E73279002A00D000E77279002A50
:10D4800000D0FCE6B279002A00D14BE7F7E6002392
:10D490000B4A2B701370F9E60223F0E6EC2400200F
:10D4A000F42400208C250020C02400208D2500209D
:10D4B0006B2500203C250020E72400207C24002050
:10D4C000A0250020F8B504000E000E20002C00D18D
:10D4D0007BE0002A79D000203C4908703C490B6071
:10D4E00006993C4B19603C490B0023CA23C323CA4D
:10D4F00023C323CA23C3072200213848FAF788FE32
:10D50000374B384A384D1A60384A00219A60280053
:10D510003822FAF77DFE237822002B70A378103290
:10D52000AB70E378EB7063786B702B00103303CA39
:10D5300003C32B00103A083303CA03C32B0008327D
:10D54000183303CA03C3636A002B11D0284B294F39
:10D550006B62616A9F600A881A80888898800028B8
:10D5600006D000238A68D25CFA5401338342F9D191
:10D57000A36A002B14D0204B204FAB62A06A9F609F
:10D580008188998002881A800023002905D082684A
:10D59000D25CFA5401338B42F9D12C23E25CEA5479
:10D5A000236A002B06D0164B2B62226A51885980C1
:10D5B00012881A806368002B03D0124B6B6063687B
:10D5C0006B6031002800FFF7F3FDF8BD8C250020CB
:10D5D000C0240020E8240020F4240020EC240020B3
:10D5E0003C250020182500207C2400206C250020EC
:10D5F000B4240020C8240020942500204C250020BD
:10D60000902500203825002010B500240B4B82B057
:10D61000187001A80194FFF755FA082809D00028CE
:10D6200005D1019B002B05D00122054B1A7002B0D9
:10D6300010BD0194FFF7F2FDF9E7C0468C250020EC
:10D64000C424002030B5038883B0112B1ED0192BC1
:10D6500007D0102B01D003B030BD82882D4B1A802B
:10D66000F9E78479002CF6D12B4B1D78022D4ED092
:10D6700038D9032D23D0042DEDD1284B1C70284B15
:10D680001B68002BE7D000209847E4E70024254BD7
:10D690001C70204B82881B889A42DCD101251E4BCE
:10D6A00001A81D700194FFF70DFA082824D0002866
:10D6B00027D1019B002B20D01B4B1D70CBE7174AB5
:10D6C0001570042201A81A700194FFF7FBF90828CD
:10D6D00012D0002815D1019B002B0ED00122124B35
:10D6E0001A70B8E7012DB6D1022201A81A70019470
:10D6F000FFF7E8F90828DAD10194FFF78FFD002839
:10D70000A9D00A4B1B68002BA5D09847A3E703229A
:10D71000D8E7C046A62000208C250020A0250020A8
:10D72000C0240020E7240020C4240020E824002096
:10D7300075DF704776DF70477ADF70477BDF7047B1
:10D7400010B5184B82B01888174B984214D0174A5E
:10D75000174C13780133DBB21370217B99420DD241
:10D7600000231370237C002B12D16369002B03D09C
:10D77000002201A80270984702B010BD0D49FFF7C2
:10D78000D7FF0028F8D0A369002BF5D09847F3E71E
:10D790003B21FFF7CFFF0028E7D0A369002BE4D09F
:10D7A0009847E2E7EC250020FFFF0000AC250020B1
:10D7B000B0250020F025002030B51B4B1B4A5B88AC
:10D7C000118883B099420FD852889A420CD3184BD3
:10D7D0005B69002B03D0012201A802709847154C09
:10D7E0000023237003B030BD124C2378002B08D0E7
:10D7F0000F4B5B69002BF3D0002201A80270984701
:10D80000EEE70D4B0A4D1B78002B0BD0A9680022C8
:10D810000A48FFF77FF80028E2D0AB69002BDFD081
:10D820009847DDE76968F2E7A4250020F02500208D
:10D83000B0250020A1250020AC250020CC2500200B
:10D84000164902000B0070B532CA32C332CA32C365
:10D8500012681A600022124B01681A70002916D053
:10D86000104C0832200003F060FF2000FFF764FF37
:10D8700000280BD101220C4B52421A8000220B4B84
:10D8800000211A700A480B4AFFF72AF870BD0548B4
:10D89000FFF754FF0028EDD0F8E7C046B025002080
:10D8A000A1250020F0250020EC250020AC2500203B
:10D8B000983E020041D7010010B50388112B35D0E6
:10D8C00021D9122B17D0502B1CD1214CC288E389AF
:10D8D0009A4217D1C38B022B14D11E33C35CDB07D2
:10D8E0000ED41C48FFF78CF800280BD0A369002B3E
:10D8F00008D0984706E0811D0822174803F015FF5D
:10D90000FFF75AFF10BD102BFCD101008288134B8A
:10D9100016311A801048082203F007FF0022104B2E
:10D920001A700B4BDB89002BECD1E9E701220B4B82
:10D9300052421A8000220A4B06481A70FFF760F81C
:10D940000028DFD0024B9B69002BDBD09847D9E73A
:10D95000B0250020CC250020A4250020EC250020A7
:10D96000AC250020A0DF7047A2DF704763DF70475F
:10D9700010B5002808D0002906D00B88112B15D02F
:10D98000502B02D0102B0ED010BDCB88028A9A42A9
:10D9900010D082889A42F7D18369002BF4D0CA8BC9
:10D9A00020319847F0E78B888382EDE701235B42C3
:10D9B0008382E9E7CA8B022AEBD12023CA5C1F3B92
:10D9C000134002D001238375DEE78375DCE7C04690
:10D9D000F0B54D465F46444656461023F0B495B028
:10D9E00004000D0010227B4904A899460E2703F07D
:10D9F0009CFE002C0ED0002D0CD001235B42A38294
:10DA00002B682100A361002304A8A375FFF7AEFFD4
:10DA1000071E07D0380015B03CBC90469946A24678
:10DA2000AB46F0BD237802A98B700123A21C012014
:10DA30000B80FFF797FF071EECD1032200216846F9
:10DA4000FAF7E6FB6B460F221B78924693430122BE
:10DA500093465A461343524613401022904642467C
:10DA600013436A4613705378524693435A461343FE
:10DA700052461340424613436A4653709378062237
:10DA80009343043A13436A460DAD937000211C2260
:10DA90002800FAF7BDFB42462B7801AE13432B70EA
:10DAA0006B466A466B612378002193730323300031
:10DAB000938103226F60EF602F61AF61FAF7A8FBDB
:10DAC00052463378002193435A461343524613403B
:10DAD0004246134352463370737808A893435A461C
