:020000021000EC
:108000000040002015DD01005DDD01005FDD0100A5
:108010000000000000000000000000000000000060
:1080200000000000000000000000000061DD010011
:10803000000000000000000063DD010065DD0100BC
:1080400067DD010067DD0100819B01004D9E01009D
:1080500067DD01000000000067DD0100599F01009D
:1080600067DD0100459801008D97010067DD010083
:1080700067DD010067DD010067DD010067DD0100EC
:1080800067DD0100F1C1010067DD010067DD01006E
:10809000D1C20100D1A20100E1DC010067DD0100D5
:1080A00067DD010067DD0100000000000000000046
:1080B00000000000000000000000000000000000C0
:1080C00010B5064C2378002B07D1054B002B02D0AE
:1080D000044800E000BF0123237010BDB42000203D
:1080E000000000000C3F0200084B10B5002B03D02D
:1080F0000749084800E000BF07480368002B00D18B
:1081000010BD064B002BFBD09847F9E7000000009C
:10811000B82000200C3F0200B42000200000000026
:10812000164B002B00D1144B9D46402292029A1A06
:10813000924600218B460F461348144A121A00F04B
:1081400067F80F4B002B00D098470E4B002B00D048
:1081500098470020002104000D000D48002802D09F
:108160000C4800E000BF00F02DF82000290000F0CE
:1081700085FA00F011F8C046000008000040002019
:108180000000000000000000B4200020B82A0020F9
:108190000000000000000000084B10B50400002B98
:1081A00002D0002100E000BF054B1868836A002B55
:1081B00000D09847200000F033F8C04600000000CF
:1081C000DC2802000E4B70B500251E000D4CE41A91
:1081D000A410A54204D0AB00F35898470135F8E746
:1081E0000AF06EFB084B00251E00084CE41AA41090
:1081F000A54204D0AB00F35898470135F8E770BDAD
:10820000AC200020AC200020AC200020B0200020BA
:1082100003008218934202D019700133FAE77047C5
:10822000FEE7C0461D4B1B78012B00D070471C4B4E
:108230001B681B07FAD1F0221A4B1B68134018D198
:10824000194B1B6813421CD0154B1B681B07EDD143
:10825000F022144B1B681340402BE7D1124B1B68D4
:108260001342E3D1C12380220121DB00D205D1508A
:10827000DCE7102B01D0302BEAD10B4B1B681342EB
:10828000E6D10A4A0A4B1A6080220A4B12021A608F
:10829000024B1B78012BD7D0C8E7C046E00F00F097
:1082A000E40F00F0E80F00F0EC0F00F0DFFF07C074
:1082B00004050040186C004082B00190019B002B27
:1082C00014D0019B0A48013B01930138C046C046C7
:1082D000C046C046C046C046C046C046C046C0466E
:1082E000C046C046F1D1019B002BEAD102B07047D5
:1082F000E703000010B5092800D9B3E06D4B8000FA
:108300001B589F466C4C2378082B09D0002B2AD190
:1083100000F010FD002826D0684B1B78002B22D0DF
:10832000082323701FE0664809F03EFA654C04E01C
:1083300001F0EEFA002800D083E00022A35E002BBB
:10834000F6DC0222A35E002BF2DC0422A35E002BEB
:10835000EEDC0622A35E002BEADC0022574B1A70EB
:10836000554B09321A7010BD534C2378032B01D0A2
:10837000012B0BD800235448237009F015FAF2E7BB
:108380004D4C2378002B59D0032B57D00123237059
:10839000E9E7494C2378002B6FD1484B1B78002B21
:1083A000E1D002232370DEE7434C2378042B09D06D
:1083B000002BD8D100F0BEFC0028D4D03F4B1B7856
:1083C000002BD0D004232370CDE73B4C2378002B27
:1083D000C9D13E4809F0E8F900F0BEFD3C4809F07B
:1083E000E3F9012001F040F903232370BBE7324C8D
:1083F0002378062B09D0002BB5D100F09BFC002878
:10840000B1D02E4B1B78002BADD006232370AAE7EA
:10841000294C2378072B03D0002B36D0052BA2D173
:10842000072323709FE7244C2378052B03D0002BD0
:1084300035D0042B97D10523237094E700232370B4
:1084400091E723880A3B238063880A3B6380A388E3
:108450000A3BA380E3880A3BE38000F065FB01F060
:108460005DFA6AE7A02380211A4ADB059A58C903FE
:10847000520206D5184A995075E7022B00D072E7D0
:108480008FE7A122D20099506DE700F053FC00283D
:1084900003D00A4B1B78002BC2D12378BEE700F033
:1084A00049FC002803D0054B1B78002BC3D123784F
:1084B000BFE7C046E0280200282700205C290020F2
:1084C0006C2902007C2A0020302902004029020089
:1084D00058290200040500000C05000070B50928A9
:1084E00000D99EE0564B80001B589F460022554BFA
:1084F0001A805A809A80DA8000F016FB524B1B7863
:10850000002B00D078E0514B1B785BB2002B00D0E1
:1085100072E04F4B1B785BB2002B00D06CE04D4BF0
:108520001B785BB2002B67D101224B4B1A7070BDD8
:1085300000F078FBFBE70122484B1A70F7E7484848
:1085400009F032F93F4C03E001F0E2F9002857D17D
:108550000022A35E002BF7DC0222A35E002BF3DCDB
:108560000422A35E002BEFDC0622A35E002BEBDCD3
:108570000023394A13703B4A1370D8E70322394B62
:108580001A70D4E700F01AFB00F0CEFACFE701230F
:108590000021354A2B4C1370344A1370344B2B4A4C
:1085A0001E882B4B127859562A4B52B21B787518DD
:1085B0005BB29BB2B01A711AB218ED1A1818C91A28
:1085C0009B182DB200B209B21BB225806080A18039
:1085D000E380B42ED8D9B32D01DCB4222280B32895
:1085E00001DCB4226280B32901DCB422A280B32B67
:1085F000CADCB423E380C7E70022174B1A7096E762
:1086000023880A3B238063880A3B6380A3880A3B54
:10861000A380E3880A3BE38000F086FA01F07EF94C
:1086200096E7A0238021134ADB059A58C90352021A
:1086300002D5114A99507AE7A122D200995076E7E3
:10864000082902007C2A00204928002073290020E4
:1086500072290020682900205C290020862A002039
:108660006C2902002827002004260020562900201B
:1086700032270020040500000C050000F0B5564626
:108680004D4644465F46F0B489B001F0CFFA01F0A0
:1086900031F801F049F901F071FC01F00FFC64219F
:1086A000012003F0C3FC01F061FD01F069FF01F05E
:1086B00017FE002000F0FAFF052008F09DFFB04BE8
:1086C000B04A186000231370AF4AB04E1370B04A1E
:1086D000337013709A46AF4BAF4C984696239B006D
:1086E000AE4D9946C3E04A46AD4B1A8096239B0097
:1086F0000020AC4AAC491288AC4F9A1A0A80AC4AA6
:10870000AC491056AC4A127852B2821A0A80002143
:10871000AA4A5156AA4A127852B28A1A3A80A94AEB
:10872000127852B294466746A74A127852B2BA1AE1
:10873000A64F3A809B4A138062469F4B1870A04B0D
:108740001970A14B1A70A24B18783378984202D056
:10875000FFF7D0FD33781800FFF7C0FE01F0D8F81E
:1087600000287CD05346142101335046079306F06D
:1087700029F9002961D1A023964ADB059958802266
:10878000D205114200D0E6E0A121C9005A5042466C
:108790000627E05F904B12881B78317805900427FC
:1087A000E05F04900227E05F03900027E05F029003
:1087B0008A48007801908348007840B20090884849
:1087C00008F0F2FF00F0B6FA002800D19BE001208B
:1087D00000F0B6FA8246022000F0B2FA8346032087
:1087E00000F0AEFA5A4603005146280008F0DCFFBC
:1087F000042000F0A5FA8246052000F0A1FA834685
:10880000062000F09DFA5A4603005146280008F061
:10881000CBFF072000F094FA8246082000F090FA7F
:108820008346092000F08CFA5A460300514628007E
:1088300008F0BAFF6B4808F0B7FF33789A4601F0AA
:108840007FFB43461988684B994202D85346002B58
:1088500034D101F0B1FB01F061F8079B9A4603F0B7
:10886000D5FB002810D1474B1B78002B14D144486E
:1088700000F046FE594B1B785A009B184B4500D917
:1088800031E7474A138033E703F0B4FA00F094F974
:108890003C4B1B78002BEAD0394B186808F0B6FE29
:1088A000524808F081FF6420FFF706FDBFF34F8FA9
:1088B0004F4A504BDA60BFF34F8FFEE74E4808F047
:1088C00073FF43464D4A1B889342C2D84C4808F078
:1088D0006BFF03E001F01CF800283FD10022A35EEB
:1088E000002BF7DC0222A35E002BF3DC0422A35E44
:1088F000002BEFDC0622A35E002BEBDC0023244AD6
:1089000033701370A5E73F4B00229B5E3E4A002167
:10891000525E3E490020095E280008F045FF3C4BAE
:1089200000229B5E3B4A0021525E3B490020095ECB
:10893000280008F039FF394B00229B5E384A00219D
:10894000525E38490020095E280008F02DFF2548B6
:1089500008F02AFF71E734495A5018E723880A3B88
:10896000238063880A3B6380A3880A3BA380E38853
:108970000A3BE38000F0D8F800F0D0FFAEE7C04635
:1089800010260020862A00203C27002028270020CF
:108990005C2900204E2800207C2A0020E8290200C3
:1089A0003227002070290020262700205829002087
:1089B0007329002014260020082600207229002098
:1089C0000E26002068290020482800201E270020AD
:1089D0003D27002004050000872A002049280020A8
:1089E000B0290200042A02004B040000F82902000A
:1089F0000400FA0500ED00E0802902001A040000DE
:108A00006C2902000626002034270020222700209F
:108A1000842A00204A2800205A2900200C26002001
:108A200002260020462800200C05000070B5384BB7
:108A3000384A1D88384B0020125E0021595E374BA2
:108A40006C181E88A81A691AAA18354BA41B30186E
:108A5000891BB21824B200B209B212B21C8058802D
:108A60009980DA80B42D0DD9B32C01DCB4241C809C
:108A7000B32801DCB4205880B32901DCB4219980EB
:108A8000B32A38DD0022995E96229200914230DCB2
:108A9000002939DB0222995E96229200914226DC5F
:108AA00000292BDB0422995E96229200914212DC6F
:108AB000002926DB06215A5E962189008A4211DDB3
:108AC000D980184A198811805988518099889180D5
:108AD000DB88D38070BD9A8006215A5E962189007A
:108AE0008A42EDDC002AECDA0022DA80E9E75A80DB
:108AF000D8E71A80CEE7B422DA80C3E700225A8092
:108B0000D0E700229A80D5E700221A80C2E7C0464B
:108B1000322700208E2A0020882A00208A2A00205E
:108B20007C2A002060290020214B0022995E962299
:108B30009200914230DC002930DB0222995E9622BD
:108B40009200914226DC00292BDB0422995E9622BA
:108B50009200914212DC002926DB06215A5E962102
:108B600089008A4211DDD980124A198811805988FA
:108B7000518099889180DB88D38070479A80062144
:108B80005A5E962189008A42EDDC002AECDA002246
:108B9000DA80E9E75A80D8E71A80CEE700221A8007
:108BA000CBE700225A80D0E700229A80D5E7C04662
:108BB0007C2A0020602900207047C04610B50320A1
:108BC00000F0BEF80321104B1B785BB2DA170A40A5
:108BD000D3189A10C301181AC3175B045B0C18183A
:108BE000C013131A094A1078094A4343138000221C
:108BF000084B9A56084B1A800022084B9A56084B8D
:108C00001A80FFF713FF10BD68290020872A002073
:108C10008A2A0020732900208E2A00207229002031
:108C2000882A0020F8B50326364A13780133DBB2D0
:108C300013701E4227D0344D344C042000F080F8CD
:108C40000600052000F07CF8314B19780023EA5E1D
:108C5000F3019B1BDD176D046D0CEB18DB13D31AAE
:108C60004B432C4A13800023E25EC301181AC3173A
:108C70005B045B0C1818C013101A4843264B18806D
:108C8000FFF7D4FEF8BD012000F05AF804000220DE
:108C900000F056F80022214B1B4D9A56E3011B1B96
:108CA000D9174904490CCB180021DB13D21A1C4BED
:108CB0001F781C4B5956C301181A1300C4176404BB
:108CC000640C2018C013081A78437B430F4C28808B
:108CD0000320238000F034F8134B1B785BB2DA17C3
:108CE0003240D3189A10C301181AC3175B045B0CE7
:108CF0001818C013131A0D4A127853430C4A1380E4
:108D00009BE7C046D02000208C2A0020902A00201B
:108D100024270020882A00208E2A00207329002082
:108D20000A2600207229002068290020872A0020B6
:108D30008A2A0020014B18787047C046D1200020B5
:108D4000092842D8224B80001B589F46214B224ABB
:108D50001B881088181A00B27047204B204A1B88C5
:108D60001088181A00B2F7E71E4B1F4A1B8810889C
:108D7000181A00B2F0E71D4B1D4A1B881088181AFC
:108D800000B2E9E71B4B1C4A1B881088181A00B276
:108D9000E2E71A4B1A4A1B881088181A00B2DBE760
:108DA000184B194A1B881088181A00B2D4E7174BC1
:108DB000174A1B881088181A00B2CDE7154B164ABF
:108DC0001B881088181A00B2C6E70020C4E7C04606
:108DD000082A02000C260020A22A002022270020B8
:108DE000A02A0020342700209A2A002006260020EE
:108DF0009C2A00205A290020942A00204A2800207A
:108E0000962A0020842A0020922A0020462800204A
:108E1000982A0020022600209E2A0020F0B54E4607
:108E200045465746E123E0B4E62500269146C42294
:108E30005B00C45C6D006300C31819804655043D97
:108E40004659FF32E12E1DD8835C5B001B5E8B42CE
:108E500000DA8454E2225200835C5B001B5E8B428A
:108E600041DCE42301365B00C650631CDBB2E02B1F
:108E700035D9E12320345B00C4541CBC904699468C
:108E8000A246F0BD9046825C944694422DD0E225E5
:108E90006D00425D9246944247D065466A00125E7C
:108EA0008A4202DA424625008454524657003F5E09
:108EB000B94231DB6D002B5EDB1B4B45D1DAE6237B
:108EC00001225B00C254043BC658063BC45CE42349
:108ED00001365B00C650631CDBB2E02BC9D8E1222F
:108EE00052008354C9E78454BBE7010000270023E4
:108EF00000228D5EBD4202DD42462F0083540133C5
:108F0000DBB20231E12BF3D1E333C35C5B001F5EC4
:108F1000C423FF33C55CCDE7E22149004454002758
:108F2000DF5FC423FF33C55CC4E7010000270023D3
:108F3000A84600228D5EBD4202DA42462F008354CD
:108F40000133DBB20231E12BF3D1E333C35C65467D
:108F50005B001F5EAEE7C046F0B544465F4656462E
:108F60004D46E1220023F0B4AE4C5200A54408ACBB
:108F7000A3540232A354C422FF32A3540532A35097
:108F80000432A354A84AA3540232A354A74AA354B8
:108F90000532A3500432A354A54AA354A54AA354AE
:108FA000A54AA3540532A350A44AA354A44AA354E7
:108FB000A44AA354A44AA3540532A350A34AA354D9
:108FC000A34AA354A34AA354A34AA354A34AA35015
:108FD000A34AA354A34AA354A34AA354A34AA35401
:108FE000A34AA350A34AA354A34AA354A34AA354F5
:108FF000A34AA354A34AA350A34AA354A34AA354E5
:10900000A34AA354A34AA354A34AA350A34AA354D4
:10901000A34AA354A34AA354A34AA354A34AA350C4
:10902000A34AA354E62201235200A25C5A40100036
:10903000E7229200A15C0A0084495A40615C024325
:1090400059400A438649615C59400A438949615C39
:1090500059400A438C49615C59400A438F49615C1D
:109060004B401343924ADBB2A25C9A4200D935E1ED
:1090700002F0C0FE0028FBD08E4B03AD1B8802AA75
:109080002B808D4B9446E8221B8890466B808B4B3F
:1090900000221B880021AB80894B01921B88009421
:1090A000EB80884B1B882B81874B1B886B81874B00
:1090B0001B88AB81864B1B88EB81864B1B882B82E0
:1090C000ED235B00634423E05A785A445200A25EC9
:1090D0004A4500DA587047464F43BC469A78624486
:1090E0005200A25E4A4500DD98703268013232605B
:1090F0001878421CD2B2E02A4FD920301870009A5A
:10910000D133D132FF320131FF330092062946D0EC
:109110004A00AA5E1878914642464E464A43934614
:1091200012185200A6526A4612799E1D9A7232682F
:10913000E12AC9D95A789446904242D09A78924608
:10914000904257D0E3445F467F00E75F4F4501DA26
:109150008446587047464F43BB46D3445F467F0022
:10916000E75F4F4501DD82469870404648435246CE
:10917000814660464A44484440005200205EA25E58
:10918000821A042AB1DC01229A72326801323260FA
:109190001878421CD2B2E02AAFD81A70AFE702ABFF
:1091A0009C4600264C4F6744AB1938000C21595E91
:1091B0005022D1370236FFF731FEFF37062EF3D1AA
:1091C00030E700228C46B3461900130000980026B1
:1091D000875F9F4201DD3B004A700132D2B202300C
:1091E000E12AF4D10B009A78614692465A785E469D
:1091F0009446BAE70022B3460E001900B1461300A8
:1092000000980026875F9F4201DA3B008A70013296
:10921000D2B20230E12AF4D10B009A785E46494678
:109220009246A2E78CEFFFFF920300009303000039
:109230006205000064050000630500006C05000085
:109240003207000034070000330700003C0700002D
:1092500002090000040900000309000008090000D9
:109260000C090000D20A0000D40A0000D30A000052
:10927000D80A0000DC0A0000A20C0000A40C0000C8
:10928000A30C0000A80C0000AC0C0000720E000043
:10929000740E0000730E0000780E00007C0E0000BB
:1092A000421000004410000043100000481000006D
:1092B0004C10000022270020342700200626002022
:1092C0005A290020842A00204A280020462800200D
:1092D000022600200C260020F80A0000C423FF33D9
:1092E000E35C5B00E15EE2235B00E25C5200A35EB4
:1092F000CB18DA0FD318514A5B101380504BE35C44
:10930000E8335B00E15EE5239B00E25CE83252005B
:10931000A35ECB18DA0FD3184A4A5B1013804A4B6E
:10932000E35CD133FF335B00E15E484BE25CD1325A
:10933000FF325200A35ECB18DA0FD318444A5B10F9
:109340001380AE2292009446424BE35C63445B0080
:10935000E15E414BE25C62445200A35ECB18DA0F3F
:10936000D3183E4A5B101380E822920094463C4B8F
:10937000E35C63445B00E15E3A4BE25C62445200B2
:10938000A35ECB18DA0FD318374A5B1013809122F3
:10939000D2009446354BE35C63445B00E15E344BA2
:1093A000E25C62445200A35ECB18DA0FD318314A54
:1093B0005B101380AE22D20094462F4BE35C6344D3
:1093C0005B00E15E2D4BE25C62445200A35ECB1871
:1093D000DA0FD3182A4A5B101380CB22D2009446AE
:1093E000284BE35C63445B00E15E274BE25C624434
:1093F0005200A35ECB18DA0FD318244A5B101380F7
:10940000E822D2009446224BE35C63445B00E15EB9
:10941000204BE25C62445200A35ECB18DA0FD318F3
:109420001D4A5B10138001221C4B1A701C4B9D447B
:109430003CBC90469946A246AB46F0BDA02A00200F
:10944000930300009A2A00206305000064050000D1
:109450009C2A00203307000034070000942A0020D3
:109460000309000004090000962A0020D30A000026
:10947000D40A0000922A0020A30C0000A40C0000D3
:10948000982A0020730E0000740E00009E2A00200F
:109490004310000044100000A22A0020D120002028
:1094A00074100000074B0278995C42784A40995C3E
:1094B00082784A40995CC278007951405A5C4240B7
:1094C000985C7047302A020003780F2018405B0632
:1094D0005B0F08701370704710B504780C704178FA
:1094E000117082781A70C378029A137010BDC0464A
:1094F00010B504780C704178117082781A7010BD24
:10950000F0B54D465F4644465646474B834699461E
:10951000F0B4464D464C87B082267600A35B062BFE
:109520003AD900F0E5F92860200000F0E7FBFF28B9
:10953000F4D1200000F0E2FB6B460027987203AEE6
:10954000200000F0DBFBF0550137042FF8D104AB0D
:1095500098466B46424611209B7A3100137068444E
:10956000042208F06CF8200000F0C8FB8246404658
:10957000FFF798FF824520D04B464A461B782D487E
:109580000133137008F010F94B461B78022BC3D936
:109590000122294B1A7009E000F0AAF92B68274A2A
:1095A000C11A914229DC0022254B1A7007B03CBC3D
:1095B00090469946A246AB46F0BD0B236B449A46B3
:1095C0001A000A236B4418001B49FFF77DFF53461E
:1095D0001B78002B1BD0012B22D11A4B1A4A1B4996
:1095E0003000FFF785FF5B4605221868414608F00A
:1095F00026F800220C4B1A708EE7002BD6D00124DF
:109600000D4A14700200124808F0CEF8CEE7114B54
:10961000114A00931149124B3000FFF75DFFE2E75A
:10962000104808F0C1F8DEE7D8200020D420002040
:1096300018260020482B02003D270020E09304005C
:10964000D9200020242700200A260020872A002075
:10965000642B020049280020722900207329002071
:1096600068290020302B020010B5040000F03AFFFA
:1096700000280ED00023094A1360094A1380002CE9
:1096800003D00022074B1A7010BD0122054B1A703F
:10969000FAE7054808F088F8F6E7C046DC20002025
:1096A000DA200020E0200020982B020070B50C4B3F
:1096B00004001B88002B04D10A4D634263412B70C8
:1096C00070BD094808F070F8064D2B78002B03D0C8
:1096D000064808F069F8F0E7054808F065F8ECE797
:1096E000DA200020E0200020B02B0200142C020021
:1096F0003C2C0200A222194B1949D2009950194959
:10970000194A802099501949043299501849194A28
:10971000C0039950A023EB210322DB05C9005A5056
:1097200008315A5010315A5008315A50A121C900FD
:1097300058508020400458508020400558508020C8
:10974000C00558500C495A5004315A5028395A50C3
:1097500008395A500021094A99507047006000406A
:109760000315130003171300140500000319130059
:10977000031D13001C0500004C0700001407000027
:109780000122014B1A707047A82A0020A622274BFD
:1097900052009958002931D00021995024490A6873
:1097A0003932FF320A6001229A64224A1278002A72
:1097B00024D1A922D2009A58F423FF339A421DD80B
:1097C0001D4B0422995E1D4A914218DDFA22FA20AF
:1097D00092009A800622995E184AC00091421BDCD2
:1097E0000A1C00291DDBFA2112B289005118DA8007
:1097F000A8220E4BD2009850114A995070470A1C6B
:10980000002910DBFA2112B2890050189A80062232
:10981000995E0A4A9142E3DDFA21FA22C9009200D8
:10982000E5E70022DFE70022ECE7C04600A00040A9
:10983000A42A00205D29002060290020E703000001
:1098400044050000A622254B5200995800292DD02E
:10985000002199504C3AFF3A9A64214A1278002A22
:1098600024D1A922D2009A58F423FF339A421DD85A
:109870001C4B0022995E1C4A914218DDFA22FA2004
:1098800092001A800222995E174AC00091421BDCA6
:109890000A1C00291DDBFA2112B2890051185A80D6
:1098A000A8220E4BD2009850104A995070470A1CBB
:1098B000002910DBFA2112B2890050181A80022206
:1098C000995E094A9142E3DDFA21FA22C900920029
:1098D000E5E70022DFE70022ECE7C0460090004009
:1098E0005D29002060290020E703000044050000F6
:1098F0000122054B9A64A922D2009858034BC00854
:109900001B68C0187047C04600A00040A42A002071
:10991000014B18787047C046A82A00200022014B4E
:109920001A707047A82A0020F8B55F4656464D4683
:1099300044460023504AF0B41360504AA2261370E4
:10994000C1239B009A4680231B039B46012153465B
:109950005846A8254A4AF6009151D0504948E43368
:10996000ED0053519C461350474B484880271350F5
:109970009946082350465C46BF00D3519846444B55
:10998000D16099511C5060463E4C58511851484680
:109990003E4C18514046D851D9601160C022520047
:1099A00094468022D2009046196062464146394B67
:1099B000043C9950F8395A5891464846364A024074
:1099C000C020000402435A5042461A6062469F502B
:1099D0005A5894466046314A0240C0200002024371
:1099E0005A501F602E4A2F4B2F499A512F4A083642
:1099F0005A502F49234899512E4E9A51A4222E4E47
:109A0000D2009E502D4A2E4E9A51043699512D491E
:109A100010365A50A6222C49D20099502B4A2C4974
:109A20005A502C4999512C4E9A512C4A5A512C4A31
:109A30001A501951154900205A50FF21294A9950AE
:109A40000023294AFA3902F0A9FE002803D0002297
:109A5000002102F071FB254A0121254802F010FF88
:109A600000222449244802F025FF3CBC9046994638
:109A7000A246AB46F8BDC046A42A0020A82A002072
:109A800000A0004044050000C40900004C0500008F
:109A90000090004000E100E0FFFF00FFFF00FFFF3B
:109AA0004091004000F001401405000000600040BB
:109AB0004C9100401C0500004491004004600040AF
:109AC000240500002C05000040A100400860004073
:109AD000340500004CA100403C05000044A10040BA
:109AE0000C60004004050000E42000208197010084
:109AF000E42D020066060000AC220020F0B55F46AF
:109B000056464D464446F0B483B00192002A24DD07
:109B1000802399467C3B9246984600230C008A4459
:109B2000124E134D04279B4609E05B46114A3370E1
:109B3000114B0134D15043462B6054450DD04B4658
:109B40002178EF503378002BEFD10C4800F0C8F8A3
:109B5000434601342B605445F1D1019803B03CBC1D
:109B600090469946A246AB46F0BDC0466420002010
:109B700000E100E0002000401C050000402700201C
:109B8000842210B5214B5200995800292FD18E23E1
:109B90001E4C5B00E258002A09D000221C48E2500B
:109BA000183BC35A002B2CD101221A4B1A70922356
:109BB000164A5B00D358002B14D0A0238021164AEC
:109BC000DB059A58C90352020DD5144A99509222C6
:109BD00000210E4B520099509022D2009958104803
:109BE00007F0E2FD10BDA122D2009950EFE700215D
:109BF0009950A322D20099580A48C9B200F070F8CF
:109C0000C5E700F07BF8084BE050D0E700200040AB
:109C10004027002064200020040500000C050000FF
:109C2000E82D0200182600201C05000010B51E4873
:109C300000F04CF81D4800F049F8A023E72203216A
:109C4000DB05D2009950E82100220E20C9005A50AD
:109C5000174B18495850184902305850174818499E
:109C60005850A0200421C0001950842040001A50F0
:109C700014301A5001329A601A60C2221E38FF381E
:109C800092009850A120043A80009850C0230D4AB9
:109C90005B00D1507C3014580B4B2340C02424046B
:109CA00023431350116010BD1826002040270020C8
:109CB000002000400C0500001405000000E0D70162
:109CC0002405000000E100E0FFFF00FF80220023E8
:109CD000FF21520083520232815202328352704776
:109CE000812210B5FF245200835A0133234083524E
:109CF000C1540232835A0133835210BD802110B502
:109D0000FF2402004900435AC05C013323405352F0
:109D10000431535A013B535210BDC046F0B557466B
:109D20004E4645468446E0B489469A460120002ABC
:109D30003BD0B12300276146244E254D254CDB0046
:109D40002F702770F1504946234BF1508021890034
:109D50007750B06029780029FCD000212970012AB1
:109D60002ED080210125194889004550012117482E
:109D700089460160802189008846FF39A325FF3983
:109D8000534600268C46ED0021780029FCD0267031
:109D90004159013AD2B21970012A0BD049460162E9
:109DA000002A01D00133EFE700201CBC9046994601
:109DB000A246F0BD41466746013347500262E3E7E1
:109DC00080210225014889004550CFE7003000403E
:109DD000CC220020CD2200201C050000F0B5474613
:109DE00080B407000120002A27D00025B126A8460C
:109DF000134CF6002570134DAF5180274646BF0027
:109E0000EE51114EA951A86021780029FCD0002103
:109E10000020013A2170D1B201310A4E0A4D591881
:109E20001A7872512278002AFCD0013320708B42BC
:109E3000F6D101220020034B5A6104BC9046F0BDCC
:109E4000CC220020003000401C050000F8B584231F
:109E5000154A5B00D158002904D00021D1500122BD
:109E6000124B1A708E23104A5B00D158002904D07F
:109E70000021D15001220E4B1A7092250A4C6D0020
:109E80006359002B0FD00B4EA759FFF731FDB123BB
:109E9000DB000200E3583900074807F085FC032384
:109EA000A35100236351F8BD00300040CD220020B3
:109EB000CC220020C4040000FC2D0200A023E221DB
:109EC0001A4ADB05C90010B55A5008395A50042106
:109ED000174B053AFF3A9950164A02399950002219
:109EE000CD200731FF315A5014315A501249C00465
:109EF0005850A120C1218000890058500539FF39F0
:109F00005A50A022FC39FF39D2009950C023C024F6
:109F10000A4A03315B00D1507C30135824061B02DF
:109F20001B0A23431350116010BDC0460C060000ED
:109F3000003000400C0500002405000000E100E0B6
:109F40008022044BD2009A58002A01D101321A60B3
:109F50007047C0460070004080220021054B52002F
:109F60009950A122D2009A58D3009B1A024A13801A
:109F70007047C046007000404E2800200A4B0B4935
:109F80000B4AC0209950A0210122C9005A50FD3926
:109F9000FF395A50074A000653581B021B0A034355
:109FA000535080231360704700700040041000007D
:109FB0000405000000E100E0F0B5474680B4604CC5
:109FC00082B02578012D32D0002D1CD0022D07D172
:109FD000FFF78EFC5B4B1B68C01A5B4B984250D856
:109FE00032200138C046C046C046C046C046C046C2
:109FF000C046C046C046C046C046C046F1D102B0C9
:10A0000004BC9046F0BDB1227721504BD20099504C
:10A0100080227539920099504D4A4631995001225B
:10A020009A602270FFF764FC464B1860D8E7FFF790
:10A030005FFC444E3368C01A434B9842D0D9454F19
:10A0400003223B0000217720FFF768FE3B78772151
:10A050001A047B7858201B021343BA7813433E4AF4
:10A060001360B122394BD200995002228A31FF315C
:10A070005A50374958509D602270FFF739FC3060C4
:10A08000AEE7344D03222B0000217720FFF746FE78
:10A090002B7800211A046B781B021343AA782F4DEA
:10A0A00013432F4A13606A89288912029B1A984623
:10A0B0001A00002304F00CFE4E06CB110021C20949
:10A0C0003243AE88300412184B41009201930021B4
:10A0D000E8884246002304F0FBFD0E06020A3243E4
:10A0E0006E880B12F003002116001F00424636183E
:10A0F0004F410023A889002104F0EAFDFA23DB0088
:10A100009C464902C00D0843164B60441860124B30
:10A110003200186800213B0004F0DAFDCD02420D48
:10A120004B152A4300980199121A8B4111005B04C8
:10A13000CA0B1A430C4B1A600023237050E7C04629
:10A14000CE220020E82200200F270000003000402F
:10A150001C050000E0220020B02A0020D0220020B0
:10A16000AC2A00202C2700203827002070B5A0241E
:10A17000094E0A4D2B00022221007720FFF7CEFD69
:10A180002B786A781B0202341343E4B23380023620
:10A19000B02CEFD170BDC046D0220020E4220020B8
:10A1A00076DF70477ADF70477CDF70477FDF70476C
:10A1B000A9DF704760DF70472EDF704732DF7047DE
:10A1C00033DF70474CDF70478021A02210B5044B6D
:10A1D0004904D205D1500022002101F0ADFF10BD8D
:10A1E0000C050000F8B50E00151E08D00024044F21
:10A1F000315D38000134FFF773FDAC42F8D3F8BD90
:10A200005028002010B5040003F026FB21001F4851
:10A2100003F07EFB2388112B2BD01ED9132B0ED0DD
:10A22000522B08D11A4B0022188800210023FFF777
:10A23000BFFF00280CD1200003F0D4F910BD144B4F
:10A240000022188885210023FFF7B0FF0028F2D0F4
:10A250000022002101F070FFEDE7102BEBD18021EF
:10A26000A0220C4BD2054905D150A288084B1A8078
:10A27000E1E78021A123A022DB00D2054905D150CE
:10A280000122034B52421A80D5E7C04634230020F6
:10A290006C2000200C05000010B50378002B00D0C6
:10A2A00010BD8021A022084BC903D205D150074B15
:10A2B0003B211888FFF774FF0028F1D0002200210D
:10A2C00001F03AFFECE7C0460C0500006C200020CE
:10A2D0000123024A11784B40137070475D2900201A
:10A2E000F0B57248A9B0FFF7F1FC7148FFF7EEFC3A
:10A2F000002348226F49082003F0C2FC002800D048
:10A30000CEE01AAC082200212000FDF781FF0122D7
:10A310002378200093432370FFF74CFF002800D0E0
:10A32000B9E0654803F0D2FC002803D000220021E8
:10A3300001F002FF0022614B15201A70FFF73EFF6B
:10A3400001211520FFF73CFF1520FFF735FF022103
:10A350000320FFF737FF0F21012203AE33782000DF
:10A360008B43134310220B4013433370D023544AC2
:10A370005449D358FF221340534A07F041FA2000B2
:10A3800007F060FA210082B23000FFF70DFF0028CD
:10A3900000D07BE00CAD082200212800FDF738FF3B
:10A3A00006232B8006336B800023AB809133FF3371
:10A3B0002800EB80FFF7F6FE002803D000220021E2
:10A3C00001F0BAFE002104222000FDF721FF3F4BDF
:10A3D00021003F481A9303F0CBFA002803D0002253
:10A3E000002101F0A9FE382200212800FDF710FF0E
:10A3F000022300272B703822043300212000EB7049
:10A40000AF70FDF705FF01232382324B2422002188
:10A4100030006361FDF7FCFE0123337340233200FB
:10A420003361210000970023280003F01BF8002867
:10A4300003D00022002101F07FFE1C220021200019
:10A44000FDF7E6FE244A00236260F0221203A260B8
:10A4500005221A93E38101332374204B20006361AA
:10A460001F4B2273A36103F0BBF9002803D0002225
:10A47000002101F061FE032003F096F8002803D0CC
:10A480000022002101F058FE29B0F0BD0022002179
:10A4900001F052FE7EE70022002101F04DFE40E770
:10A4A0000022002101F048FE2BE7C0465028002082
:10A4B00074290020EC22002005A201005D29002063
:10A4C00000100010402E0200342E0200E5A1010011
:10A4D0003423002068200020CD0C000099A2010048
:10A4E000C9A1010030B501252048214BA0221860E8
:10A4F000204BD205DB7A84249D401F4B6400D5504D
:10A500000023062203511D4B83B0C25084210359FE
:10A51000164A4900002BF9D0A323DB00D358A02012
:10A520000093A123C005DB00C550009B01330093BD
:10A53000114BC550002360205350104BD05053583E
:10A54000002BFCD0A323094ADB00D358A02201939F
:10A55000A123D205DB00D550019B64200133019378
:10A56000FDF7AAFE012003B030BDC0460040004008
:10A570005C230020502300200C0500001C05000077
:10A58000F0B55F4656464D464446F0B489B006AD38
:10A59000062200212800FDF73BFE40236B70353B6F
:10A5A000AB70023BEB7009332B71013B6B71784B45
:10A5B0002900981D06229A4607F041F8AB7803223D
:10A5C00098464146A0230020C131FF31DB058900B8
:10A5D000CA50E97884468946C131FF318900CA50A2
:10A5E000297944468B46C131FF318900C8506F79C3
:10A5F000A12039004E46C131FF318900CA5065495A
:10A60000C0000C50644C0E515E46A04604340E51FE
:10A6100001263400BC401C506F78604C3F060F513F
:10A620002F785F4D64464F518427543D7F00CC51B5
:10A630004E51E025ED005A515A4D5A518022920157
:10A640001E501A505246584D2960D27A96404246C2
:10A650009E505022554BCC51CA508422C8594D4B64
:10A6600052000028F9D0A321C9005958A020019117
:10A67000A121C005C900465001990127013101916E
:10A68000454946500020494998505F50585084270A
:10A69000995840487F000029F9D00023C351A323D3
:10A6A000DB00C35802938421C3593A4A4900002B66
:10A6B000F9D0A323DB00D358A0200293A123C00527
:10A6C000DB00C650029B01330293334BC65000237C
:10A6D00006205350354BD050842753582D487F00C7
:10A6E000002BF9D0A323DB00C358A0220393A1239E
:10A6F000D205DB00D650039B01330393264BD65083
:10A7000000236022C351294BC250224B9846842318
:10A710005B009946C359002BF7D0A3234246DB00C8
:10A72000D358A0270493A123FF05DB00FE50049B10
:10A73000642001330493FDF7BFFD43462B6053466D
:10A740000121DB7A42469940134B4846F9500023D9
:10A75000135006224046154BC25043464A4698586D
:10A760000028FCD0A3230B4ADB00D358A02205937A
:10A77000A1230120DB00D205D150059B01330593B5
:10A7800009B03CBC90469946A246AB46F0BDC046D7
:10A7900050230020004000400C050000240500006C
:10A7A00054050000340700005C2300201C05000055
:10A7B00030B5554C83B0A37A002B00D197E06B469F
:10A7C000DD1D00232B7023680122597C63681878F3
:10A7D0002B00FFF703FB002800D088E0236801224C
:10A7E0005979636818782B00FFF7F8FA002800D031
:10A7F0007DE0236801221979636818782B00FFF740
:10A80000EDFA002800D072E02423E35C002B36D060
:10A810000C232B70236801221979636818782B00A8
:10A82000FFF7DCFA002862D13230FDF745FDC02386
:10A830002B70A37ADB0762D423680122197963683D
:10A8400018782B00FFF7CAFA002850D1637C002B40
:10A8500058D12B7023680122597C636818782B002B
:10A86000FFF7BCFA002842D1236828705979636841
:10A87000012218782B00FFF7B1FA404235E004239B
:10A880002B70236801221979636818782B00FFF771
:10A89000A5FA00282BD1A27C4023002A2AD02B70B5
:10A8A000236801221979636818782B00FFF796FA5C
:10A8B00000281CD13230FDF7FFFC637C5A1E934107
:10A8C0002B7023680122597C636818782B00FFF7EE
:10A8D00085FA00280BD12300226810335179626871
:10A8E00010780122FFF77AFA404203B030BD012010
:10A8F0004042FAE7A27AD207D1D52033CFE7E0234E
:10A900002B7099E70223A4E77020002070B50600A1
:10A9100082B0282800D9BBE02323694C01ADE35C59
:10A9200000282CD1002B18D02870A27C8023002A6C
:10A9300002D07E3B2B7080332222A25C002A00D002
:10A940008AE023680122D97D636818782B00FFF71D
:10A9500045FA002801D12323E05400232B7007334C
:10A960006B7023680222597D636818782B00FFF70B
:10A9700035FA002800D08BE0207502B070BD012BA5
:10A9800019D030232B70A27C8033002A02D07E3B6A
:10A990002B7080332222A25C002A5BD12368012223
:10A9A000D97D636818782B00FFF718FA002802D1C8
:10A9B00001222323E25420232B70012E6BD0052E7D
:10A9C00059D9142E4AD903236B70A37A002B6FD068
:10A9D00004236A46D370E37A042B69D023680122EA
:10A9E0009978636818786B460333FFF7F7F9002806
:10A9F00060D16B460722DB78E3726B789B011343CF
:10AA0000DBB26B7023680222597D636818782B00D3
:10AA1000FFF7E4F900283BD108230122A372207339
:10AA200022751C33E35C002B12D12374637C002B52
:10AA30000ED16B46DA702368597C636818786B46D0
:10AA40000333FFF7CBF9002802D16B46DB78637440
:10AA5000002092E72B70A1E72B7072E702236B7046
:10AA6000A37A002B05D005236A46D370E37A052B21
:10AA7000B4D18723C5E701236B70A37A002B05D0DF
:10AA800006236A46D370E37A062BA7D14723B8E79B
:10AA90000120404271E700236B70A37A002B05D0A0
:10AAA00006236A46D370E37A062B97D10723A8E7DB
:10AAB000C723A6E76B789A0107231343DBB2A0E70D
:10AAC0007020002010B5114A0100537A012B19D0D3
:10AAD000002B13D0022B0AD0032B0CD110232024DF
:10AAE0000370D37C0020002B00D00C7010BD082315
:10AAF00010240370F5E701204042F7E70223042405
:10AB00000370EEE7042308240370EAE770200020B6
:10AB100070B51C4C82B0A37A002B27D06B46DD1D8C
:10AB2000BB2816D8612817D902232B70E27A002699
:10AB30009A420BD0236801229978636818782B0019
:10AB4000FFF74CF9002811D12B78E372300002B0E6
:10AB500070BD01232B70E9E7292804D8132808D9F0
:10AB600004232B70E2E703232B70DFE701267642F4
:10AB7000ECE7092802D905232B70D7E706232B70B1
:10AB8000D4E7C0467020002070B5584C82B0A37A3C
:10AB90000600002B00D196E02423E35C002B00D0BC
:10ABA00091E0227D002A30D0421E272A00D885E07D
:10ABB0002322A25C01AD002A18D02B70A37C802236
:10ABC000002B02D0022302322B702223E35C002BE5
:10ABD00000D071E023680122D97D636818782B00CA
:10ABE000FFF7FCF8002801D12323E05400232B7049
:10ABF00007336B7023680222597D636818782B0035
:10AC0000FFF7ECF8002800D12075F920032E31D889
:10AC10006B46D870236801225978636818786B46B0
:10AC20000333FFF7DBF800284DD16B46FA20D978C3
:10AC30008000013103F0CAFEA37A80B2E0814008AF
:10AC4000002B14D001ADBB2821D9012301222B7088
:10AC5000E37A93420BD023680122997863681878CD
:10AC60002B00FFF7BBF8002801D12B78E3720020FE
:10AC700002B070BDFA23311C9B009E420FD8FA200F
:10AC800089B2800003F0A2FE0138C0B2C0E761289B
:10AC90000ED829281AD9032303222B70D8E7FA20CB
:10ACA000191C89B2800003F091FE0138C0B2AFE7F1
:10ACB000022302222B70CBE72A708BE7C0B2FFF78A
:10ACC00025FE0020D4E701204042D1E7132805D813
:10ACD000092807D9052305222B70B9E7042304228C
:10ACE0002B70B5E7062306222B70B1E770200020F9
:10ACF000F0B54746242380B4304D82B0EB5C00248D
:10AD0000002B2BD1AC7A002C54D001339843044053
:10AD10002F7C2C74041B621E9441060064420028A0
:10AD200021D12A7D002A30D06A7C002A16D1073230
:10AD30006A4413702B689046597C6B68187813002E
:10AD40000122FFF74BF8002808D143461B786B74AB
:10AD5000002E03D0FFF72CFD002827D1200002B0E1
:10AD600004BC9046F0BD6A7C002AF3D107226A44F5
:10AD700013702B689046597C6B6818781300012279
:10AD8000FFF72CF80028E0D0E4E76B46DA712B6877
:10AD90000122597C6B6818786B460733FFF71EF861
:10ADA0000028DBD16B46DB796B74D7E701242F7465
:10ADB0006442D3E701246442D0E7C04670200020FB
:10ADC000F0B54F4646467023C0B4050083B003403B
:10ADD00069D06B469E1D01233370484C01222368C5
:10ADE000597D636818783300FEF7F8FF002800D01B
:10ADF0007EE0402233783070934323732A4266D03A
:10AE00003A208446373881460138382339220121D7
:10AE10003B278046A80604D443463A00337049468F
:10AE20006346E80601D4130031702A0700D433705A
:10AE300023680122997D636818783300FEF7CEFFFE
:10AE4000002855D108232A009A4320D02323E35C0D
:10AE5000002B1CD06B46D871A37C8022002B03D022
:10AE60006A460223D37182222223E35C002B01D0A5
:10AE70006B46DA7123680122D97D636818786B46C6
:10AE80000733FEF7ABFF002801D12323E054002352
:10AE90003220A5722375FDF70FFA002003B00CBC19
:10AEA00090469946F0BD00281ED16B464027134CB2
:10AEB0009E1D23683770597D63680122187833001E
:10AEC000FEF78CFF002813D13378BB4323733E2059
:10AED0000423844637388146013833703D223833A5
:10AEE00005213F27804695E76A46961D337074E733
:10AEF00000230120A3724042D0E7C046702000200A
:10AF0000802370B5774C84B002AD2B70236801228A
:10AF1000597D636818782B00FEF760FF061E00D08D
:10AF2000C2E06420FDF7C8F923682E70597D63687C
:10AF3000012218782B00FEF751FF002800D0B3E063
:10AF400070232B7023680122D97E636818782B0048
:10AF5000FEF744FF002800D0B5E023680622597EA2
:10AF6000636818782B00FEF7D9FE002800D09BE01C
:10AF700004216B7901269B0019400223EA785200D4
:10AF800013406A780B433240134300D182E0D9B2B8
:10AF9000012B03D0022900D098E00023E3740023A2
:10AFA0002B7023680122D97E636818782B00FEF786
:10AFB00015FF051E00D086E00122FF235242A37236
:10AFC00023726372E372E2812274A3742332FE3B24
:10AFD000A35423732233E054607520752000163A81
:10AFE00016300021FDF714F92423E5540133E5540C
:10AFF000A37AE584002B57D06B46DD1D18232B70F8
:10B00000237A032B0FD0236801229979636818787B
:10B010002B00FEF7E3FE002846D12B78DB082372D5
:10B02000A37A002B40D000232B70637A002B0FD023
:10B0300023680122D979636818782B00FEF7CEFEC9
:10B04000002831D12B78DB086372A37A002B2BD038
:10B0500005232B70E37A052B0BD023680122997806
:10B06000636818782B00FEF7B9FE00281CD12B78F6
:10B07000E372FA208000FFF787FD002814D100203A
:10B08000FFF736FE041E0FD10020FFF799FE2000C7
:10B0900004B070BD23680122D978636818782B004A
:10B0A000FEF73CFE002802D001246442EFE70F22A5
:10B0B0002B78134010D0042B00D06EE70A4806F01E
:10B0C00073FBE6746BE703246442E0E7012407485E
:10B0D00006F06AFB6442DAE70124054806F064FBE7
:10B0E0006442D4E770200020F82E0200802E020077
:10B0F000A82E0200F0B54F4646462423C0B4284C83
:10B1000083B0E35C070089469046002B3BD0A37ACE
:10B11000002B38D0236801AE197B636802221878AF
:10B120003300FEF7FBFD00282DD1357873782D0212
:10B130001D43BD422AD3606843885B089D420CD9F9
:10B1400023680078D97C01223300FEF7E7FD002850
:10B1500019D13378DB061DD460682368FAB2597BB5
:10B1600000784B46FEF7DAFD00280CD139002800A4
:10B1700003F0A2FB434601381870002003B00CBC5A
:10B1800090469946F0BD01204042F7E743461870CB
:10B190000138F3E7FFF70CFB02204042EEE7C04620
:10B1A000702000202223024AD05400207047C0465D
:10B1B00070200020232370B5174C82B0E35C05009B
:10B1C000834224D000281DD1802282200226002123
:10B1D0006B4607331970A17C002901D002001E7054
:10B1E0002221615C002900D01A702268D17D62683A
:10B1F00010780122FEF7F2FD00280AD12323E5543E
:10B2000002B070BDB022B22032263021E0E700202B
:10B21000F6E701204042F3E77020002070B50D00F2
:10B2200082B0161E20D0124CA37A002B1CD0020A2A
:10B2300001AB1A70C0B262685870401851898842D8
:10B2400012DC21681078C97E0222FEF7C7FD0028B3
:10B250000AD12368EAB2197E636818783300FEF7D2
:10B26000BDFD404202B070BD01204042FAE7C04639
:10B2700070200020F0B556465F464D464446F0B477
:10B280008BB003932523514E01910292F35C8246C9
:10B29000002B75D1002973D0002800D194E0040060
:10B2A000102800DD75E0A3B29B46B37A002B67D06F
:10B2B000002305AF70683B707B7043899C425FDC64
:10B2C000019B0025984638E033681078D97E022229
:10B2D0003B00FEF783FD002852D133684A46197EB1
:10B2E0007368187806ABFEF719FD002848D12200D4
:10B2F00006A9404606F094F900284CD15D44ADB251
:10B30000AA454BD953465C1B102C00DD1024A3B278
:10B310009B46019B9846A8444346002B30D0B37A05
:10B32000002B2DD02B0A3B707068EBB222047B708F
:10B33000120CD3184289934222DC33680078D97EFC
:10B3400002223B00FEF74AFD002819D1E3B29946DC
:10B3500033684A46197E736818784346FEF73EFD07
:10B3600000280DD1B37A002B0AD02B0A3B707268EB
:10B37000EBB27B702404240C51891B198B42A3DD92
:10B38000012040420BB03CBC90469946A246AB46D9
:10B39000F0BD102487E702204042F3E7029A130A27
:10B3A0003B7033687A70597F7368022218783B00CB
:10B3B000FEF714FD0028E3D125230122F2546B4649
:10B3C0009B890020F384DDE705AFE8E770200020CB
:10B3D000242330B55A4C83B0E35C834276D00028F6
:10B3E00000D17AE02522A25C002A00D19EE0002B49
:10B3F00000D06EE0A27A002A00D19AE06A46D51DFC
:10B400002B7023680122597C636818782B00FEF7A3
:10B41000E5FC002801D12B786374A37C002B36D087
:10B42000236801221979636818782B00FEF776FCEF
:10B4300000282CD1A37ADB0700D56FE020222B78DF
:10B4400093432B70236801221979636818782B00C5
:10B45000FEF7C4FC00281AD10330FCF72DFF22238D
:10B46000E35C3022002B01D0802380322B70232319
:10B47000E35C002B00D02A7023680122D97D636829
:10B4800018782B00FEF7AAFC002800D1A074E08CED
:10B49000FFF77AFB6B46002206331A70626823219D
:10B4A00010780122FEF79AFC24230122E254223B69
:10B4B0002B702368597C636818782B00FEF78EFC8C
:10B4C000002801D12B786374FFF772F9002003B0D4
:10B4D00030BD6B46DD1D002392E7002B22D1A27AFE
:10B4E000002A29D06A46D51D2B7023680122597C79
:10B4F000636818782B00FEF771FC002801D12B78C7
:10B500006374237C01222B706368232118782B003D
:10B51000FEF764FC00222423E254D5E720232A7896
:10B5200013438EE76B46DD1D2870DEE701204042A5
:10B53000CDE76B46DD1D70E76B46DD1DE1E7C046DC
:10B5400070200020802210B5C823D2000249034891
:10B55000FFF790FE10BDC046902F0200F60B0000D2
:10B56000F0B5404C87B002AF050003AE21000322C6
:10B57000380006F064F8211D0322300006F05FF861
:10B5800021000322083104A806F059F82100032203
:10B590000C3105A806F053F8032108006A466C46F2
:10B5A00028403B5C1370EA080A40BB5CB25C6370E5
:10B5B000AB090B40F95CF35CA170315C01AC21700C
:10B5C000627003216A462848A370FFF727FE00280F
:10B5D00045D1220003212548FFF720FE00283ED157
:10B5E000032204A9684606F02AF8032205A92000D0
:10B5F00006F025F86B0708D56A46012369461278DC
:10B600001A430A70227813432370AB0608D56A46A2
:10B610000123694652781A434A7062781343637073
:10B62000EB0512D488206A460321C000FFF7F6FD1F
:10B63000002814D1220003210D48FFF7EFFD002858
:10B640000DD10C4B1D8107B0F0BD6A460123694640
:10B6500092781A438A70A2781343A370E2E701201C
:10B660004042F0E7442F0200260400002A040000B4
:10B67000310400006023002010B5144986B0040096
:10B680000C22103103A805F0DAFFC82C1AD82100CB
:10B69000C82003F09BF9013880B201AA030A507058
:10B6A00002210B481370FFF7B9FD00280AD103AA45
:10B6B0000C210848FFF7B2FD002803D1064B9C81FE
:10B6C00006B010BD01204042FAE7C046442F0200F8
:10B6D00016020000C10A000060230020F0B505003A
:10B6E00083B043076BD0C823DB00994267D80800BA
:10B6F00004F076F94D4903F0A5FC6B46DC1C071CF1
:10B700002000FFF7DFF92378042B00D17DE033D947
:10B71000082B6AD0102B52D18A21381CC90503F09E
:10B720005BFE03F001FB424986B2381C03F054FE75
:10B7300003F0FAFA80B201AC330A2370030A667090
:10B74000A370E070EB0729D4AB073CD400206B0753
:10B7500037D5EE20220002214000FFF75FFD0028D0
:10B760002DD16B462D309A1D0221FF30FFF756FD7B
:10B77000431E9841404224E0022B20D18D21381CE9
:10B78000C90503F029FE03F0CFFA2A4986B2381C16
:10B7900003F022FE03F0C8FA80B2CCE7EA202200D0
:10B7A00002214000FFF73AFD002808D16B46253002
:10B7B0009A1D0221FF30FFF731FD0028C4D001207F
:10B7C000404203B0F0BDEC20220002214000FFF710
:10B7D00025FD0028F3D16B4629309A1D0221FF3048
:10B7E000FFF71CFD0028B1D0E9E78B21381CC90503
:10B7F00003F0F2FD03F098FA0F4986B2381C03F00B
:10B80000EBFD03F091FA80B295E78C21381CC90555
:10B8100003F0E2FD03F088FA084986B2381C03F011
:10B82000DBFD03F081FA80B285E7C04600004843A3
:10B830000000C04400004046000040450000C045F4
:10B84000F0B54E4645465746E0B486B0924B03AC41
:10B8500006002200042168200393FFF7DFFC40224A
:10B86000A32332402370904600D10DE11D33637055
:10B870000833A370063BE370C0277F00374000D138
:10B88000FDE0C423237108336371063BA371A32336
:10B8900022000A218148E37123726372FFF7BEFC24
:10B8A0000323334099464A462023002A00D1B83367
:10B8B000220001217A4823706D46FFF7AFFC092270
:10B8C0007849B30600D4D8E01C31280005F0B7FE53
:10B8D00097202A000921C000FFF7A0FC002F09D003
:10B8E000F30500D5D4E0704B0393220004216F4888
:10B8F000FFF794FCF30700D4B6E08B20F823220076
:10B90000012100012370FFF789FCFA210720FFF7CE
:10B91000E5FEA4203F232A00012140002B70FFF701
:10B920007DFC002350209A462A000121FF302B7015
:10B93000FFF774FC5346EF202B7014232A000221DA
:10B9400040006B70FFF76AFC5346ED202B706423B8
:10B950002A00022140006B70FFF760FC53462B70F9
:10B960008E23AE206B706B33AB702A00693B0421D1
:10B970004000EB70FFF752FC5346AD202B700823BC
:10B980002A00022140006B70FFF748FC5346AC20B0
:10B990002B7002232A00022140006B70FFF73EFC4F
:10B9A000B307DB0FD8332200012141482370FFF792
:10B9B00035FC730752D53F4B00932A0004213E48C3
:10B9C000FFF72CFCFEF7F4FEF30641D53B4B00934A
:10B9D0002A0004213A48FFF721FCFEF7E9FE08237C
:10B9E000384C33436381FEF7E3FE4346002B22D1FC
:10B9F0000A20434684460C3082461038A373142232
:10BA0000042310211A258046002F04D043462A0023
:10BA1000A373514663461420304201D01300A17332
:10BA20004A46002A00D0A373002006B01CBC9046F2
:10BA30009946A246F0BD1020062384460C3082466B
:10BA40001038A3731A220433162120258046DBE721
:10BA50000422A3212800FCF7DBFBB9E704228B2199
:10BA60002800FCF7D5FBA8E78B20D8232200012172
:10BA700000012370FFF7D2FB92E7283125E7A323CB
:10BA800023716371A37102E76370A370E370F3E63F
:10BA90000D4B039329E7C04602CAE309A70A000039
:10BAA000B60A0000442F0200B080B490A20A000041
:10BAB0003D070000C0C2C4C6980A000020283038E4
:10BAC0009E0A000060230020B28BB69BF0B544466E
:10BAD0005F4656464D460023F0B491B01A9C0600CE
:10BAE00023807C4B0F00987B914608A91B9AFFF797
:10BAF00001FB03B298462380181E74D11422754BA3
:10BB00005B891A4200D075E00325AC46013DA8468A
:10BB1000013DA94600250C2100220420AA460791D8
:10BB200001390691013905910139049101390391D7
:10BB3000013993460291063201390191009201398F
:10BB40005D062DD5524608ADAA5C120292462A0027
:10BB50004D46525D554615433D80454608AA525D07
:10BB600065461202904608AA525D4546154308AA4A
:10BB7000515C105C009A00029346079A08430092B9
:10BB8000049A08219446039A7D809046029AB880D0
:10BB90009146019A20889246014321800598069992
:10BBA000C0277F003B421BD0554608AA575D4D4633
:10BBB000525D45463F02174308AA3780575D6546E8
:10BBC000525D3F02174308AA105C515C000201431A
:10BBD000B180009A702193467780208801432180AC
:10BBE0009B0752D1002011B03CBC90469946A2461A
:10BBF000AB46F0BD089A11BA4A461160099A091479
:10BC000010BA4A4650600A9A8C4612BA92464A4680
:10BC1000554695604D460B9A514612BAEA60654604
:10BC20006D43AC4600140914404312144943524377
:10BC3000604440188018F122120694468022604425
:10BC4000920490423FD88021228849000A432280F2
:10BC5000102293460632009206320792013A06926B
:10BC6000013A0592013A0492013A0392013A029292
:10BC7000013A0192033A9446013A9046013A9146BC
:10BC8000013AEB39142092465AE708AB9C465C46D1
:10BC900064446378E678DA070BD50E4A1268002A06
:10BCA00007D007200100F3083140184001319047C8
:10BCB00063781B0796D5074B5B68002B92D0B009C1
:10BCC000984700208FE7FEF773FD4346012023804D
:10BCD000404288E7602300200023F0B5C356002BC4
:10BCE00036DD302200232024082128261025944602
:10BCF000382703228256002A18DD062141560022E9
:10BD0000002902DD134398B2F0BD00293AD1072182
:10BD1000415640320029F5DC51D1082141564032CC
:10BD20000029EFDC59D1E0225200EBE7002A27D1AD
:10BD3000042282560B00002ADFDC3ED10522825607
:10BD40002B00002AD9DC3B00002AD6D06346D4E77A
:10BD5000002B0CD10123C356002B16DD3122012309
:10BD6000212409212926112594463927C1E73422A7
:10BD7000042324240C212C26142594463C27B8E7C0
:10BD80002300BAE780225200BCE7002B0CD102232B
:10BD9000C356002B16DD3222022322240A212A2632
:10BDA000122594463A27A4E73522052325240D21A0
:10BDB0002D26152594463D279BE733009DE7A022BD
:10BDC00052009FE7002B0BD13722072327240F2196
:10BDD0002F26172594463F278BE70132FF3291E744
:10BDE0003622062326240E212E26162594463E278B
:10BDF0007FE7C046F0B55F4656464D464446F0B430
:10BE0000774B91B004AA944601930E2363440093A8
:10BE10000CAA00230AA908A8FFF758FE43B2002085
:10BE2000002B06D011B03CBC90469946A246AB46CA
:10BE3000F0BD0C9803F08CFDC221890503F0CCFA0B
:10BE4000041C0D9803F084FDC221890503F0C4FA97
:10BE500080460E9803F07CFDC221890503F0BCFAF0
:10BE600081460F9803F074FDC221890503F0B4FAEE
:10BE7000211C051C201C03F0AFFA4146071C40465C
:10BE800003F0AAFA49468246484603F0A5FA291C5F
:10BE90000290281C03F0A0FA5146061C381C03F03F
:10BEA000AFFB029903F0ACFB311C039602F054FF88
:10BEB00005F048FB04900591291C484603F08CFAD4
:10BEC00041468346201C03F087FA011C584602F0C5
:10BED00043FF05F037FB02000B0003F0BFFD049A9F
:10BEE000059B01F0A7FF00223E4B04F007FD05F083
:10BEF000F3FA3D4B291C1880404603F06DFA494681
:10BF00008346201C03F068FA011C584603F078FBB6
:10BF100005F018FBC02300221B0604F0EFFC01F023
:10BF200027FF80268B46844636065E446046002204
:10BF30002C4B310004F0E2FC05F0CEFA2B4B5146BD
:10BF40001880381C02F008FF029903F059FB03998E
:10BF500003F056FB05F0F6FA06000F00404649468E
:10BF600003F03AFA291C8046201C03F035FA011C24
:10BF7000404602F0F1FE05F0E5FA02000B0003F086
:10BF80006DFD32003B0001F055FF0022154B04F01F
:10BF9000B5FC05F0A1FA7022154B188004ABDB89C3
:10BFA0001A4210D101201B0700D43BE704AB1A8BC7
:10BFB000104B1A8004AB5A8B0F4B1A8004AB9A8B30
:10BFC0000E4B1A802EE704AA118A0D4A118004AA8A
:10BFD000518A0C4A118004AA918A0B4A1180E1E728
:10BFE00009260020005FC4402227002034270020BB
:10BFF0000626002046280020022600200C260020CD
:10C000005A2900204A280020842A0020A223A022A6
:10C01000DB00D205D35801209B0604D4024B1878CC
:10C02000431E9841C0B270470926002070B5050034
:10C0300082B000200E00FEF763FF0100324805F0D9
:10C04000B3FB7820FEF7BCFE0100304805F0ACFBE6
:10C050007820FEF74DFE01002D4805F0A5FB0020DD
:10C06000FFF7A0F80120FFF7A5F8002D1FD16B46C0
:10C07000DC1D0122DD711A2123006820FDF7AEFED0
:10C080000100244805F090FBFA203100400102F045
:10C090009DFC013820701921230001226820FDF742
:10C0A0009DFE01001C4805F07FFB02B070BDFFF74C
:10C0B00049FA0100194805F077FB1948FFF70CFE13
:10C0C000FFF74EFA0100174805F06EFB7220FF30B3
:10C0D000FFF7B6FB0100144805F066FB6420FFF78C
:10C0E000CBFA0100114805F05FFB0120FFF770F962
:10C0F00001000F4805F058FB0A20FEF709FD01007A
:10C100000C4805F051FBD0E7AC3B0200C43B0200F9
:10C11000DC3B0200843C02009C3C0200F43B020039
:10C120009C2000200C3C0200243C02003C3C02000D
:10C13000543C02006C3C020010B50B0001000B489F
:10C1400005F032FB8021A123A022FA20C900DB00E8
:10C15000D205D150C000FCF7AFF8BFF34F8F044AAF
:10C16000044BDA60BFF34F8FFEE7C046B43C0200D9
:10C170000400FA0500ED00E080218023184A8902BE
:10C18000D1508022D221174B520289005A50403997
:10C190005A5001222F205A600138C046C046C0467E
:10C1A000C046C046C046C046C046C046C046C0465F
:10C1B000C046F1D19A6000230B4A2F20136001384A
:10C1C000C046C046C046C046C046C046C046C0463F
:10C1D000C046C046C046C046F1D1044A13707047FD
:10C1E00000E100E0001001407023002090230020B7
:10C1F000A021F0B5002347462C4A490080B4535093
:10C200000431535004315350043153504C3953507E
:10C2100004315350264B1B68002B37D0254900268C
:10C2200052582549254F0C68141B00222402240A69
:10C23000904602E0002D1AD02B001A68A24216D8B0
:10C24000A41AB6181A7CDD69002AF3D0424699690F
:10C250001A745A693B68002B1BD0100098470028BD
:10C26000E8D000220021FFF767FF002DE4D1144B36
:10C2700014491A780B789A420ED0134A9B009E50AC
:10C2800080218023114A49035B00D15004BC9046B1
:10C29000F0BD08009047CDE70132D3B2022B01D0A8
:10C2A0000B70EAE700230B70E7E7C046001001407F
:10C2B0007423002004050000702300207823002050
:10C2C00084230020852300208823002000E100E053
:10C2D000F0B55F4656464D464446F0B4C54BC64A97
:10C2E0001B68C6498BB0059309781378994200D131
:10C2F00057E10133DBB2022B00D100231370C04A97
:10C300009B009B58BB4A9A46059B53441B021B0A41
:10C31000136001230193BB4B00241B689B46BA4B5F
:10C320005A461B78914619000393B84B88461B6800
:10C3300047460493AF4B013F1B680793B44B1B78F0
:10C34000099300239C4606930893FBB266469846E1
:10C35000FF2B32D04346D800049B9C461300604418
:10C360000178457800961A00A9421FD046684A0015
:10C37000B446521886780131D200C9B262448E4266
:10C3800000D1EDE01678022E00D1C7E0032EEAD1ED
:10C39000002BE8D01C74DB69002BFBD101334578FE
:10C3A0000093002399461A00A942DFD14746013F76
:10C3B000FBB2009E9846FF2BCCD1089BC846029248
:10C3C000B446002B00D0F0E0069B002B02D0894B36
:10C3D000079A1A606346002B02D04246894B1A60C6
:10C3E000019B002B00D02DE15B46029A00259B1A91
:10C3F0005A1E9341DBB205937E4B00271B680299BE
:10C400009C46804B1B689B46814B1B780693002300
:10C410000193804B994601230093039B013BDBB2C0
:10C420000393FF2B00D1F9E0049ADB0092460E0043
:10C430009A44002D28D06A68A9682C00ED696346EB
:10C44000D31A1B021B0A4B4552D86A4612785B1856
:10C4500023606760A7602274E761002E58D03168BE
:10C460003000994205D3B9E01168994200D3A3E0A6
:10C470001000C2695B1A002AF6D1E2613200236023
:10C48000C4611600002DD6D153461A785B7831006E
:10C490009342C2D0514649685300884651469B1882
:10C4A0000132D2B20A708978DB004344914200D154
:10C4B0009DE0197832000129E3D15C68227C904626
:10C4C000414632000029DCD19A686260D968A160D7
:10C4D0001869E0605B69A361069B002BAFD04346FF
:10C4E000002263606346D31A1B021B0A4B45ACD97A
:10C4F00063469A1A1202120A8A4264D28B1A6A4658
:10C50000127823606760A7602274E761002EA6D1CD
:10C5100022000123A34601931600B3E75668002BBF
:10C5200030D09E421ED0009A1F00944602E09642F0
:10C5300006D01700FA69002AF9D16246009212E784
:10C5400065460095BA420FD01568D269FA61002A93
:10C5500016D013689C466544156045784B4602E743
:10C5600000210FE71A001F00DE69002E0CD0012504
:10C5700000951568D269B1463300FA61002AE8D106
:10C580004578F0E60023EEE60125234B9D600095FB
:10C5900006950025002307950135994608950995CC
:10C5A000D2E700239A460193B5E66A462421521841
:10C5B000174B12781A7007E7C91A1160E2612360FD
:10C5C0003200C4615DE76B461B7827606760A76037
:10C5D0002374E761002E9BD000233168CB1A3360AF
:10C5E00022000123E661A346019316004AE7524662
:10C5F00015705EE77023002084230020852300202F
:10C6000088230020742300207C2300208023002026
:10C6100086230020FEFF7F0000100140019B002BBD
:10C6200000D09DE0029B994236D1059B002B33D16F
:10C630000023534A13700BB03CBC90469946A24667
:10C64000AB46F0BD4F4B002418680025029B00212B
:10C650000026574615E01A68BA4200D984E0D86827
:10C66000BF1A89181E60DC69002807D0DD611D0033
:10C67000059A986052181202120A5A60230020008C
:10C68000019C002BE7D1002C01D03E4B1860002309
:10C69000029301330593AFE6002900D15DE00B68FA
:10C6A00039489846394B3A4DC4583A4B2E781B6856
:10C6B000E11A0902090A0331002E2DD042468A42AE
:10C6C00000D20A00A820D21812022F49130AC00073
:10C6D0002E4D0B504A591B1B121B1202120A1B0231
:10C6E00003321B0A9A42A3D94B590B502F20013811
:10C6F000C046C046C046C046C046C046C046C0460A
:10C70000C046C046C046C046F1D180218023224A9F
:10C7100089025B00D1508BE78026D1277602BF00CB
:10C72000C651403FC651C02280271B4EBF02520057
:10C73000B7503760012606602F200138C046C0463A
:10C74000C046C046C046C046C046C046C046C046B9
:10C75000C046C046F1D12E70B0E7FFF70DFD67E788
:10C760005A46084B1A605DE7BA46002C01D00549CD
:10C7700008605146521A1A600293012305933BE662
:10C7800086230020742300200010014004050000CF
:10C79000902300207023002000E100E0F8B54F4610
:10C7A0004646C0B40326350080460F001400994663
:10C7B00015400720002D03D00CBC90469946F8BDCB
:10C7C000002A44D0FFF7D8FC4A46224B80201A604A
:10C7D0002200214B18321E70204B62601C607B00CF
:10C7E000DB19DB00D218E260D318C0226361257028
:10C7F0006570A77025726572A77225746574A77439
:10C80000C524FF21164B40031D60164B52001D70BE
:10C81000154BA4001D70154B98501A598A433F3987
:10C820000A431A51A122186040461149D20088508B
:10C83000C42080001C580F4A2240C02424022243F6
:10C840001A500D4B0020CA580C4B1A60B4E7034B2A
:10C850001A60B1E7782300207C2300208023002089
:10C8600074230020842300208523002000E100E0C1
:10C8700000100140FF00FFFF0405000070230020AE
:10C8800010B50B4B1B68002B0BD0002A07D00028DB
:10C8900005D0036808201C7C002C04D010BD0720A4
:10C8A000FCE70820FAE759745A610020F6E7C04611
:10C8B00080230020F0B5344B1C68002C06D00028E3
:10C8C00004D00723042903D81800F0BD0823FBE790
:10C8D0004369002BFAD0437C012B44D000262B4B1C
:10C8E00010255B68DB05DB0D25D164196378A5781D
:10C8F0005F1CFFB2BD423AD02578BD4235D05D0005
:10C90000ED186368ED009C4665440423002DDBD0E0
:10C91000033B2B7068601E4B1E48C358E960AB6038
:10C92000802180236A611C4A5B0049032E61677085
:10C93000D1500023C8E7103B5DB2002D19DBAD08D4
:10C94000C035154FAD00ED5903273B40DB00DD40FE
:10C95000AB093B40DBB20025012BC6D00835032BC9
:10C96000C3D00835C1E70E00B9E70423ACE70027C0
:10C97000C2E70F25094FDBB2BC461D40083DAD089C
:10C98000AD0065446D68DFE78023002000ED00E026
:10C99000040500000010014000E100E018ED00E097
:10C9A00010B52C4A03001168082000292AD0002B5A
:10C9B00028D05A69002A25D000221A74264A083045
:10C9C0005268D205D20D1ED109184A788878541CB5
:10C9D000E4B2A04231D00878A0422CD05000821896
:10C9E0004868D200844662440420002A0AD00238F3
:10C9F000107053604C70802380210020174A490337
:10CA00005B00D15010BD103A50B2002817DB8008EF
:10CA1000C030124C8000005903242240D200D04084
:10CA200082092240D2B20020012ACDD00830032A48
:10CA3000CAD00830C8E70420E4E70024CBE70F2081
:10CA4000074CD2B2A44610400838800880006044E9
:10CA50004068E1E78023002000ED00E000E100E015
:10CA600018ED00E0074B1A680823520701D418009C
:10CA70007047002804D0044B5B7803600023F6E77E
:10CA80000E23F4E7602400209423002071DF704718
:10CA900072DF704779DF70477DDF704765DF704771
:10CAA000F0B55F4656464D464446F0B485B09A46CA
:10CAB0000EAB80CB06001B8800919B463B88019300
:10CAC0000388002B63D00023994602ABDD1C3B009A
:10CAD00000241700984603E033880134A3422CDD7C
:10CAE0007368A1009C460422614403A804F0A7FDDA
:10CAF0000022290003A8FFF7D1FF002829D12B78B5
:10CB0000BB42E9D14B46002B2AD043461A88D319A1
:10CB10005B453EDC5244290003A8FFF7BFFF002815
:10CB200017D143462A781B880134D3184246138014
:10CB3000012399463388A342D2DC4B464746002B5B
:10CB400025D03B88019A013B9B1A9BB20C20FF2BFE
:10CB50001AD905B03CBC90469946A246AB46F0BDFA
:10CB600043461B88DA1902325A4512DC4246013329
:10CB700069469BB2138052460978D15443461A88BD
:10CB8000013292B21A80C5E7110052465354002078
:10CB9000DFE70C20DDE7C046F0B55F4656464D4660
:10CBA00044460023F0B417881380436B87B0060017
:10CBB0000D001400002B00D19CE1022F00D891E160
:10CBC0001A7802230B701121238801339BB2238032
:10CBD000E954238801339BB22380EA54238801332C
:10CBE0009BB22380326B002A00D170E01900123111
:10CBF000B94200D976E11121E95423880139013382
:10CC00009BB22380E954238801339BB22380D17BDC
:10CC1000E954238801339BB22380917BE954238814
:10CC200001339BB22380517BE954238801339BB2AB
:10CC30002380117BE954238801339BB22380D17A6E
:10CC4000E954238801339BB22380917AE9542388E5
:10CC500001339BB22380517AE954238801339BB27C
:10CC60002380117AE954238801339BB22380D17940
:10CC7000E954238801339BB223809179E9542388B6
:10CC800001339BB223805179E954238801339BB24D
:10CC900023801179E954238801339BB22380D17812
:10CCA000E954238801339BB223809178E954238887
:10CCB00001339BB223805178E954238801339BB21E
:10CCC00023801278EA54238801339BB223802E22DA
:10CCD000B25C002A00D00FE12D22B25C002A00D005
:10CCE0002CE1B278002A00D055E1F278002A14D065
:10CCF000D91CB94200D9F5E00221E9542388013951
:10CD000001339BB22380E954238801339BB22380F3
:10CD1000EA54238801339BB223807268002A15D01D
:10CD2000D91CB94200D9DDE002211278E9542388E8
:10CD3000083101339BB22380E954238852B2013376
:10CD40009BB22380EA542388013323803389002B4C
:10CD500000D09BE1338A002B00D0B1E1338B002B54
:10CD600000D0C7E1336A002B4BD022880C20911DE4
:10CD70009346B94200D9B6E0198805388A46052994
:10CD800000D8B0E0BB496A468C46D4446146D181A4
:10CD9000D1898C46B84988468C4500D8A3E059888B
:10CDA0008C46052900D89EE0B2496144D18189B200
:10CDB000414500D897E0B1498A4504D08C4502D05E
:10CDC000E24500D98FE005215A46A95422880D3149
:10CDD000013292B22280A9542288013292B222807A
:10CDE0001988AA181170090A51702288023292B269
:10CDF00022805988AB181970090A597023880233A8
:10CE00002380736A9846002B30D09A882188131D9E
:10CE10005B180C20BB4266D8931CFE2B63D80332F0
:10CE20006A54FF22238801339BB22380EA5442468E
:10CE3000238801339BB223801288EB181A70120AE0
:10CE40005A704246238802339BB223809288002A7C
:10CE50000CD0414689680538002944D0E81804F010
:10CE6000EEFB434622889B88D31823802C23F35C57
:10CE7000002B00D0B0E033780020002B33D0328874
:10CE80000720012A2FD02288901CB8422AD8012BD3
:10CE900004D1737802339B189F4223D3023FBA1AFE
:10CEA00004AF93B22818390098463B80FFF7F4FD91
:10CEB000002818D13378022B00D141E1012B00D199
:10CEC000DEE043460821FE2B0CD822885E1CAE54BF
:10CED0002288013292B22280A954228801329B1802
:10CEE000238000E00C2007B03CBC90469946A24647
:10CEF000AB46F0BD002375E6D91C0C20B942F2D830
:10CF00000221E9542388103001339BB22380E85476
:10CF1000238801339BB22380022A00D10BE100D881
:10CF200004E1032A00D109E1042A00D0FCE0032235
:10CF3000EA54238801339BB22380CDE609330C20C9
:10CF4000BB42D0D804A8FFF7A1FD0028CBD108220E
:10CF500023880921EA542388133201339BB22380AA
:10CF6000EA5402AB9C462088153A013080B22080FA
:10CF70006144281804F063FB238802AA0633127A5E
:10CF80009BB22380002A00D00122EA542388013377
:10CF90009BB22380A5E604330C20BB42A3D804A88F
:10CFA000FFF778FD00289ED103222388EA542388C6
:10CFB000163201339BB22380EA54238802AA01333C
:10CFC0009BB212892380EB181A70120A5A702388B8
:10CFD00002339BB2238088E6B36A9846002B00D1C7
:10CFE000A2E09B880233FE2B00D97BE7002291460A
:10CFF000163292461632208893460CE04B46B26AAF
:10D000005B0090464B449B00984443469B88023308
:10D01000FE2B00D966E7524601332B542388013397
:10D020009BB22380EA544246238801339BB223807B
:10D030001288EB181A70120A5A7043462088023080
:10D0400080B220809A88002A0BD0996800296BD082
:10D05000281804F0F4FA434620889B88C01880B250
:10D0600020804B460133DBB299465B46F35C4B456F
:10D07000C4D800E77FF3FFFF7DF30000FFFF00004F
:10D080007378984500D31DE743461BE7082398466D
:10D09000B044019700942B00022202214046FFF782
:10D0A000FFFC002800D01EE7019700942B001022FF
:10D0B00006214046FFF7F4FC002800D013E749E6BC
:10D0C00010239846B044019700942B0002220321BC
:10D0D0004046FFF7E5FC002800D004E701970094E4
:10D0E0002B00102207214046FFF7DAFC002800D071
:10D0F000F9E633E618239846B044019700942B00D4
:10D10000022214214046FFF7CBFC002800D0EAE6BB
:10D11000019700942B00102215214046FFF7C0FC18
:10D12000002800D0DFE61DE60720DCE6012AFBD15F
:10D130000022EA54FDE60122EA54FAE6E954F8E650
:10D140003B880921984500D3BDE64346BAE6C04670
:10D1500030B593B01F236A460C009380D38000281B
:10D1600022D0C3785B071CD501AA02A9FFF714FDE2
:10D1700002AD002816D1002C19D0E378002B10D175
:10D180006B460AA99A1D2000FFF706FD002809D169
:10D190006B469B790AAA694628000979FFF778FC53
:10D1A00000E0072013B030BD90800025E3E76B4618
:10D1B0000022DC800023EEE773DF704770B59F4EDE
:10D1C00086B0072200213000FBF722F89C4C6378E0
:10D1D000002B6ED09B4D2B78012B05D0A278002A16
:10D1E00000D1EFE0022B0FD1974A1268002A00D13C
:10D1F000FDE00121954B0820197090472B78012BF9
:10D2000000D1F7E0022B5FD0227B002A01D1032B53
:10D210007AD0227E002A02D1042B00D107E18A4A6B
:10D220001268002A02D0033B012B77D90022884BD9
:10D230001A70182200216846FAF7EAFF00236A46AE
:10D24000137013722A7801930393022A00D18BE0A2
:10D2500072D9032A00D194E0042A22D16B46A28B12
:10D260001A82228C5A827B4B1A79002A00D1B6E0AE
:10D270002278002A00D1B6E0774A1278002A00D03E
:10D28000B1E0694603930423023274480A72002114
:10D29000C370FFF75DFF002864D10622704B1A703F
:10D2A0002A78002A51D1684B1B68002B56D10020E8
:10D2B00058E0A378634D002BA0D02B78022B93D09D
:10D2C000012BA1D102232B70A378002B17D07378E8
:10D2D000002B00D0B0E0B378002B00D0ACE0F378A6
:10D2E000002B00D0A8E03379002B00D0A4E07379A4
:10D2F000002B00D0A0E0B379002B00D09CE00323EA
:10D300002B70237B002B61D104232B70237E002BF9
:10D3100000D18CE04C4B1A68002A87D02378002B70
:10D3200084D04D4B1B78002B00D07FE70121484B68
:10D330000720197090477CE7012AB2D169464B82D9
:10D340000B82474B01960A701A706846FFF734FF4C
:10D35000002807D13C4B1B68002BA8D0404A10780E
:10D360009847002006B070BD012369460B706B46DC
:10D37000218901965982694663680B82384B1A707D
:10D38000E3E76B46A28A5A82228A1A82314B1A79C3
:10D39000002A1DD02278002A1DD02F4A1278002A98
:10D3A00019D169460393042302322C480A720021E2
:10D3B000C370FFF7CDFE0028D4D10522284B1A7088
:10D3C0002A786EE7022B00D01EE798E7032326E7B2
:10D3D0001A7B002ADED10322214B1A70B5E71A7B93
:10D3E000002A00D044E704221D4B1A70ADE717490C
:10D3F0000A7004E76278002A00D163E77278002A95
:10D4000000D00CE7B278002A00D008E7F278002AB2
:10D4100000D004E73279002A00D000E77279002AB0
:10D4200000D0FCE6B279002A00D14BE7F7E60023F2
:10D430000B4A2B701370F9E60223F0E6D424002087
:10D44000DC24002074250020A8240020752500205D
:10D450005325002024250020CF2400206424002010
:10D4600088250020F8B504000E000E20002C00D105
:10D470007BE0002A79D000203C4908703C490B60D1
:10D4800006993C4B19603C490B0023CA23C323CAAD
:10D4900023C323CA23C3072200213848FAF7B8FE62
:10D4A000374B384A384D1A60384A00219A602800B4
:10D4B0003822FAF7ADFE237822002B70A3781032C1
:10D4C000AB70E378EB7063786B702B00103303CA9A
:10D4D00003C32B00103A083303CA03C32B000832DE
:10D4E000183303CA03C3636A002B11D0284B294F9A
:10D4F0006B62616A9F600A881A8088889880002819
:10D5000006D000238A68D25CFA5401338342F9D1F1
:10D51000A36A002B14D0204B204FAB62A06A9F60FF
:10D520008188998002881A800023002905D08268AA
:10D53000D25CFA5401338B42F9D12C23E25CEA54D9
:10D54000236A002B06D0164B2B62226A5188598021
:10D5500012881A806368002B03D0124B6B606368DB
:10D560006B6031002800FFF7F3FDF8BD7425002043
:10D57000A8240020D0240020DC240020D424002073
:10D5800024250020002500206424002054250020AC
:10D590009C240020B02400207C250020342500207D
:10D5A000782500202025002010B500240B4B82B0E8
:10D5B000187001A80194FFF755FA082809D000282F
:10D5C00005D1019B002B05D00122054B1A7002B03A
:10D5D00010BD0194FFF7F2FDF9E7C0467425002065
:10D5E000AC24002030B5038883B0112B1ED0192B3A
:10D5F00007D0102B01D003B030BD82882D4B1A808C
:10D60000F9E78479002CF6D12B4B1D78022D4ED0F2
:10D6100038D9032D23D0042DEDD1284B1C70284B75
:10D620001B68002BE7D000209847E4E70024254B37
:10D630001C70204B82881B889A42DCD101251E4B2E
:10D6400001A81D700194FFF70DFA082824D00028C6
:10D6500027D1019B002B20D01B4B1D70CBE7174A15
:10D660001570042201A81A700194FFF7FBF908282D
:10D6700012D0002815D1019B002B0ED00122124B95
:10D680001A70B8E7012DB6D1022201A81A700194D0
:10D69000FFF7E8F90828DAD10194FFF78FFD002899
:10D6A000A9D00A4B1B68002BA5D09847A3E70322FB
:10D6B000D8E7C046A6200020742500208825002039
:10D6C000A8240020CF240020AC240020D024002057
:10D6D00075DF704776DF70477ADF70477BDF704712
:10D6E00010B5184B82B01888174B984214D0174ABF
:10D6F000174C13780133DBB21370217B99420DD2A2
:10D7000000231370237C002B12D16369002B03D0FC
:10D71000002201A80270984702B010BD0D49FFF722
:10D72000D7FF0028F8D0A369002BF5D09847F3E77E
:10D730003B21FFF7CFFF0028E7D0A369002BE4D0FF
:10D740009847E2E7D4250020FFFF00009425002041
:10D7500098250020D825002030B51B4B1B4A5B883C
:10D76000118883B099420FD852889A420CD3184B33
:10D770005B69002B03D0012201A802709847154C69
:10D780000023237003B030BD124C2378002B08D047
:10D790000F4B5B69002BF3D0002201A80270984761
:10D7A000EEE70D4B0A4D1B78002B0BD0A968002229
:10D7B0000A48FFF77FF80028E2D0AB69002BDFD0E2
:10D7C0009847DDE76968F2E78C250020D82500201E
:10D7D000982500208925002094250020B4250020CC
:10D7E000164902000B0070B532CA32C332CA32C3C6
:10D7F00012681A600022124B01681A70002916D0B4
:10D80000104C0832200003F01AFF2000FFF764FFDD
:10D8100000280BD101220C4B52421A8000220B4BE4
:10D8200000211A700A480B4AFFF72AF870BD054814
:10D83000FFF754FF0028EDD0F8E7C04698250020F8
:10D8400089250020D8250020D425002094250020FB
:10D85000DC3C0200E1D6010010B50388112B35D065
:10D8600021D9122B17D0502B1CD1214CC288E3890F
:10D870009A4217D1C38B022B14D11E33C35CDB0732
:10D880000ED41C48FFF78CF800280BD0A369002B9E
:10D8900008D0984706E0811D0822174803F0CFFE04
:10D8A000FFF75AFF10BD102BFCD101008288134BEB
:10D8B00016311A801048082203F0C1FE0022104BD6
:10D8C0001A700B4BDB89002BECD1E9E701220B4BE3
:10D8D00052421A8000220A4B06481A70FFF760F87D
:10D8E0000028DFD0024B9B69002BDBD09847D9E79B
:10D8F00098250020B42500208C250020D425002068
:10D9000094250020A0DF7047A2DF704763DF7047D7
:10D9100010B5002808D0002906D00B88112B15D08F
:10D92000502B02D0102B0ED010BDCB88028A9A4209
:10D9300010D082889A42F7D18369002BF4D0CA8B29
:10D9400020319847F0E78B888382EDE701235B4223
:10D950008382E9E7CA8B022AEBD12023CA5C1F3BF2
:10D96000134002D001238375DEE78375DCE7C046F0
:10D97000F0B54D465F46444656461023F0B495B088
:10D9800004000D0010227B4904A899460E2703F0DD
:10D9900056FE002C0ED0002D0CD001235B42A3823A
:10D9A0002B682100A361002304A8A375FFF7AEFF35
:10D9B000071E07D0380015B03CBC90469946A246D9
:10D9C000AB46F0BD237802A98B700123A21C012075
:10D9D0000B80FFF797FF071EECD10322002168465A
:10D9E000FAF716FC6B460F221B78924693430122EE
:10D9F00093465A46134352461340102290464246DD
:10DA000013436A4613705378524693435A4613435E
:10DA100052461340424613436A4653709378062297
:10DA20009343043A13436A460DAD937000211C22C0
:10DA30002800FAF7EDFB42462B7801AE13432B701A
:10DA40006B466A466B612378002193730323300091
:10DA5000938103226F60EF602F61AF61FAF7D8FB0B
:10DA600052463378002193435A461343524613409B
:10DA70004246134352463370737808A893435A467C
:10DA80001343524613404246134306227370B37841
:10DA90009343043A1343DBB2063293434A4693431B
:10DAA0005A4613431422B370FAF7B2FB03AB089340
:10DAB00001226B461A8514225F859A8523006088AF
:10DAC0000C3308AA29000996FFF71EFF071E00D095
:10DAD00070E71C2200212800FAF79AFB08232A7815
