:020000021000EC
:1080000000400020C5E901000DEA01000FEA01006F
:108010000000000000000000000000000000000060
:1080200000000000000000000000000011EA010054
:10803000000000000000000013EA010015EA010042
:1080400017EA010017EA010001A60100A5A8010036
:1080500017EA01000000000017EA0100B1A90100C1
:1080600017EA0100C5A201000DA2010017EA0100F4
:1080700017EA010017EA010017EA010017EA0100F8
:1080800017EA0100A1CE010017EA010017EA01007A
:1080900081CF010029AD010091E9010017EA01003B
:1080A00017EA010017EA01000000000000000000CC
:1080B00000000000000000000000000000000000C0
:1080C00010B5064C2378002B07D1054B002B02D0AE
:1080D000044800E000BF0123237010BDB42000203D
:1080E00000000000FC4C0200084B10B5002B03D030
:1080F0000749084800E000BF07480368002B00D18B
:1081000010BD064B002BFBD09847F9E7000000009C
:10811000B8200020FC4C0200B42000200000000029
:10812000164B002B00D1144B9D46402292029A1A06
:10813000924600218B460F461348144A121A00F04B
:1081400067F80F4B002B00D098470E4B002B00D048
:1081500098470020002104000D000D48002802D09F
:108160000C4800E000BF00F02DF82000290000F0CE
:10817000D7FA00F011F8C0460000080000400020C7
:108180000000000000000000B4200020542B00205C
:108190000000000000000000084B10B50400002B98
:1081A00002D0002100E000BF054B1868836A002B55
:1081B00000D09847200000F033F8C04600000000CF
:1081C0008C3502000E4B70B500251E000D4CE41AD4
:1081D000A410A54204D0AB00F35898470135F8E746
:1081E0000BF0C6F9084B00251E00084CE41AA41039
:1081F000A54204D0AB00F35898470135F8E770BDAD
:10820000AC200020AC200020AC200020B0200020BA
:1082100003008218934202D019700133FAE77047C5
:10822000FEE7C0461D4B1B78012B00D070471C4B4E
:108230001B681B07FAD1F0221A4B1B68134018D198
:10824000194B1B6813421CD0154B1B681B07EDD143
:10825000F022144B1B681340402BE7D1124B1B68D4
:108260001342E3D1C12380220121DB00D205D1508A
:10827000DCE7102B01D0302BEAD10B4B1B681342EB
:10828000E6D10A4A0A4B1A6080220A4B12021A608F
:10829000024B1B78012BD7D0C8E7C046E00F00F097
:1082A000E40F00F0E80F00F0EC0F00F0DFFF07C074
:1082B00004050040186C004082B00190019B002B27
:1082C00014D0019B0A48013B01930138C046C046C7
:1082D000C046C046C046C046C046C046C046C0466E
:1082E000C046C046F1D1019B002BEAD102B07047D5
:1082F000E703000070B5092800D9E6E0834B800051
:108300001B589F46824C2378082B09D0002B2AD17A
:1083100000F0A4FF002826D07E4B1B78002B22D033
:10832000082323701FE07C480AF096F87B4C04E099
:1083300002F02EF8002800D0B6E00022A35E002B49
:10834000F6DC0222A35E002BF2DC0422A35E002BEB
:10835000EEDC0622A35E002BEADC00226D4B1A70D5
:108360006B4B09321A7070BD694C2378032B01D016
:10837000012B0DD800236A4823700AF06DF8F2E74C
:10838000634C2378002B00D18BE0032B00D188E0D5
:1083900001232370E7E75E4C2378002B00D09FE099
:1083A0005C4B1B78002BDED002232370DBE7584C9C
:1083B0002378042B09D0002BD5D100F04FFF0028E3
:1083C000D1D0544B1B78002BCDD004232370CAE7A7
:1083D0004F4C2378002BC6D16421012004F07EFC91
:1083E00001F0C6FF05004F480AF036F801F074F8B6
:1083F00001F0BEFFFA21401B890007F0B5F801002B
:1084000049480AF029F803232370ACE7404C23784D
:10841000062B01D0002BA6D13E4B1B78002BA2D0FF
:108420006421002004F05AFC01F0A2FF05003D4841
:108430000AF012F801F004FA01F09AFFFA21401B49
:10844000890007F091F8010037480AF005F8062383
:10845000237088E72E4B1A78052A00D083E7334A29
:1084600033481188334A118007221A70324B063A7A
:108470001A7009F0F1FF76E7254C2378052B3BD0E5
:10848000002B31D0042B37D0072B00D06BE72B4AC1
:108490001278002ADCD105232948237009F0DCFF7B
:1084A00061E7002323705EE72388053B2380638810
:1084B000053B6380A388053BA380E388053BE380FD
:1084C00000F046FB01F06AFF37E7A02380211D4A38
:1084D000DB059A58C903520211D51B4A995042E74D
:1084E000022B00D03FE75FE700F0B8FE00280AD07B
:1084F000084B1B78002B06D00523237033E7A122FD
:10850000D20099502FE72378BCE7C046903502008F
:10851000AB270020DE29002064360200FC2A002060
:10852000E0350200EC35020004360200B2270020DC
:108530004C360200F029002098260020062B00204F
:108540002C360200040500000C05000070B5092857
:1085500000D9AEE0614B80001B589F460022604B63
:108560001A805A809A80DA8000F0F2FA5D4B1B780C
:10857000002B00D088E05C4B1B785BB2002B00D056
:1085800082E05A4B1B785BB2002B00D07CE0584B4A
:108590001B785BB2002B00D076E00122554B1A709D
:1085A00070BD00F07DFDFBE7534B1A88534B1B88D1
:1085B0009A4200D18CE00022514B52481A7009F0C7
:1085C0004BFFEDE70122504B1A70E9E74F4809F0E5
:1085D00043FF434C03E001F0DBFE002858D10022AA
:1085E000A35E002BF7DC0222A35E002BF3DC042247
:1085F000A35E002BEFDC0622A35E002BEBDC002346
:108600003C4A1370424A1370CAE70322404B1A7067
:10861000C6E700F055FBC3E7022200213D4B304C7A
:108620001A70324B304A5956334B12781D88304BF2
:1086300052B21B7889B25BB292B25B009BB248190E
:10864000AE1A691AAA18C01A9E19C91A9B1800B244
:1086500036B209B21BB220806680A180E380B42DBF
:108660000FD9B32801DCB4222280B32E01DCB4225E
:108670006280B32901DCB422A280B32B01DCB423D5
:10868000E38000F065FA8BE700221A4B1A7087E747
:108690002388053B23806388053B6380A388053BD3
:1086A000A380E388053BE38000F052FA01F076FEF8
:1086B00095E7A0238021184ADB059A58C903520286
:1086C00002D5164A99506BE7A122D200995067E76C
:1086D00001220B4B1A7000F01DFD61E7B835020056
:1086E000FC2A0020C8280020F3290020F2290020BD
:1086F000E8290020DE290020B2270020F0290020F0
:10870000062B002078360200072B0020643602007A
:10871000AB270020DA290020040500000C0500002A
:10872000F0B55F4656464D464446F0B489B001F078
:10873000A9FF01F01FFD01F037FE02F04BF902F036
:10874000E9F86421012004F0C9FA02F03BFA02F0D2
:10875000F5FB02F0F1FA022001F0FAFC052009F025
:10876000A3FD8E4B13219946186000238C4A8D4E31
:10877000137092468C4A337013708C4A0027137022
:108780008B4A002513708B4A8B4C13708B4A1170E7
:108790000D228B490A708B4902320A7014218A4AD1
:1087A00011708A4A13708A4A01331370894A137010
:1087B00000239B46884B984662E042465B00C833E4
:1087C0001380AF229200934203D9AF224346920016
:1087D0001A8001F0DDFD00284CD0804B1F783378E3
:1087E000BB4260D03800FFF785FD37786B1C052150
:1087F0002800079306F03EFF00292FD1A023784AD6
:10880000DB0599588022D20511425ED1A121C90011
:108810005A500620215E734B734A1B7812780591DB
:108820000420215E5BB204910220215E52B20391CA
:108830000020215E6D4802916D49097801916D49D2
:10884000097849B20091390009F006FE5D4B6A488B
:108850001A785B4B197809F0FFFD377802F09CF825
:10886000664B1988664B994201D8002F30D101F030
:1088700095FD079D04F022FA002875D153461F7814
:10888000002F5BD1484601F0B1FB43461F80584B97
:108890001B78642B91D8002B9BD05A009B18424622
:1088A0006433138095E7434B1B78002B9ED0072F32
:1088B0009CD100233F4A534813703D4A137005333F
:1088C000337009F0C9FD377890E74F495A50A0E757
:1088D0004E4809F0C1FD494B4D4A1B889342C6D80A
:1088E0004C4809F0B9FD03E001F052FD002814D115
:1088F0000022A35E002BF7DC0222A35E002BF3DC38
:108900000422A35E002BEFDC0622A35E002BEBDC2F
:108910000023264A33701370A9E72388053B238080
:108920006388053B6380A388053BA380E388053B00
:10893000E38000F00DF901F031FDD9E74B461868EE
:1089400009F0BCFC5946344809F086FD334809F06B
:1089500083FD6420FFF7B0FCBFF34F8F304A314BEB
:10896000DA60BFF34F8FFEE73378062B07D004F0B1
:1089700055F802F04DF83078FFF7E8FD7EE701F09A
:10898000F7FC050001F0BAF901F0F2FC451BAB451C
:10899000EFD2254B9D42ECD8AB46EAE79C2600205F
:1089A000072B0020AB270020BD270020DE29002058
:1089B000062B002098260020FC2A0020082B0020EF
:1089C00095260020AA270020D0280020C9280020B2
:1089D00090260020BC270020B2270020BE270020C0
:1089E00004050000F2290020F3290020D8360200F7
:1089F000C8280020E829002010370200CE280020D7
:108A00004B040000B83602000C0500008836020056
:108A10001A040000643602002437020038370200CE
:108A20000400FA0500ED00E03F4B4C00F0B5414B6F
:108A30001C88414B0021595E404B66181D88404BF5
:108A4000611A1888471BBFB2BE1933B29C466246F2
:108A50003C4B28181A803C4A80B20026925F791855
:108A6000A51AA218451982182DB209B212B25D805A
:108A70009980DA809F2C3CD800221A805A809A80F4
:108A8000DA8002215A5EFA2189008A4218DD598073
:108A900004215A5EFA2189008A421BDD9980062151
:108AA0005A5EFA2189008A421EDDD980274A198838
:108AB00011805988518099889180DB88D380F0BDDE
:108AC000002AE5DA00225A8004215A5EFA21890040
:108AD0008A42E3DC002AE2DA00229A8006215A5E0A
:108AE000FA2189008A42E0DC002ADFDA0022DA80FB
:108AF000DCE7B42C10D96046B32801DCB420188020
:108B0000B32D01DCB4205880B32901DCB421998055
:108B1000B32A01DCB422DA800022995EFA229200A4
:108B2000914201DD1A80ACE70029AADA00221A80FE
:108B3000A7E7C046B2270020102B00201C2B0020E6
:108B4000242B0020FC2A0020202B0020E0290020DC
:108B5000214B0022995EFA229200914230DC0029DA
:108B600030DB0222995EFA229200914226DC002933
:108B70002BDB0422995EFA229200914212DC00293A
:108B800026DB06215A5EFA2189008A4211DDD9804E
:108B9000124A198811805988518099889180DB8800
:108BA000D38070479A8006215A5EFA2189008A4252
:108BB000EDDC002AECDA0022DA80E9E75A80D8E717
:108BC0001A80CEE700221A80CBE700225A80D0E735
:108BD00000229A80D5E7C046FC2A0020E029002028
:108BE00070B5062000F040FB0302181AC417640495
:108BF000640C2018C01304B20020294B05211C80EE
:108C0000284B185606F03AFD274B40B20419187845
:108C1000264A4443264DA4B2168823B22B80F21A6A
:108C2000F92A1CDCFA2E1AD9FA239B1B9BB2E418F2
:108C30005B421BB21F492048F2180C802B808242F5
:108C400024DCF21A1C498A4211DDFA2E0FD91B4A84
:108C50001849B21892B2D31A0B802A8007E0F11893
:108C6000F92905DD14488142ECDDFA2E16D870BDD5
:108C7000FA2EE7D9FA239B1B9BB21C1B0D491BB292
:108C80000D48F2180C802B808242DADD0B4AB218B4
:108C900092B2D31852420B802A80E8E70549F5E7E3
:108CA000262B0020E8290020082B0020B2270020D6
:108CB0001C2B0020182B0020EE02000012FDFFFFED
:108CC00070B5062000F0D0FA0302181AC417640425
:108CD000640C2018C01304B200202F4B05211C8007
:108CE0002E4B185606F0CAFC2D4B40B204191878CA
:108CF0002C4A44432C4DA4B2168823B22B80F21A7E
:108D0000F92A1CDCFA2E1AD9FA239B1B9BB2E41811
:108D10005B421BB225492648F2180C802B80824208
:108D200030DCF21A22498A4211DDFA2E0FD9214A8B
:108D30001E49B21892B2D31A0B802A8007E0F118AC
:108D4000F92911DD1A488142ECDDFA2E22D80022E1
:108D5000194B9A56194B1A800022194B9A56194BE7
:108D60001A80FFF763FE70BDFA2EDBD9FA239B1B36
:108D70009BB21C1B0D491BB20D48F2180C802B80B6
:108D80008242CEDD0B4AB21892B2D31852420B8007
:108D90002A80DCE70549F5E7262B0020E82900209A
:108DA000082B0020B22700201C2B0020182B0020AD
:108DB000EE02000012FDFFFFF3290020202B00200F
:108DC000F2290020102B0020F0B5474680B40A207D
:108DD00082B000F049FA05000100394809F03CFB77
:108DE000384C05212368980006F048FC0521060050
:108DF000280006F043FC31183348216009F02CFBB1
:108E0000324B0720984642462368314E136000F0EB
:108E10002BFA022100B200F0EFFF2E4A85141088D1
:108E20006421431918B22C4B10801F7806F026FCE1
:108E30002A4B78431A882A49131A2A4A9BB2128865
:108E40001CB2A0180C80B04219DDFA2A24D8264B97
:108E50000A211868421C1A6006F0F6FC00290AD0A4
:108E60004346224A1B68019712782100009220484D
:108E70002A0009F0F1FA02B004BC9046F0BDF928CE
:108E8000E5DCFA2AE3D9FA239A1A92B21948141B9C
:108E9000048014B20C80DAE717481418A4B2E3185F
:108EA0001448644224B20380A3180C80F92BCEDC52
:108EB000FA239A1A92B2141B048014B20C80C6E7EB
:108EC00048370200D420002058370200142B00201D
:108ED000EE020000D0200020C9280020282B00200E
:108EE000242B0020B2270020D8200020D0280020EA
:108EF00064370200222B002012FDFFFFF0B5474629
:108F0000052080B400F0B0F90400042000F0ACF9B2
:108F1000594B24121A78594B54431B880012E418F9
:108F20005043574BA4B21B88564D181A80B2564B6B
:108F300002B21A809846554B26B21B882E80991A89
:108F4000F9293ADCFA2B38D9FA22D21A504992B2CE
:108F5000801808808C464146524212B24D480A8021
:108F6000991881424FDC4B48991A814230DC9A1B98
:108F7000F92A01DCFA2B52D89E19F92E65DCFA2B5E
:108F800000D86DE0FA22D21A92B24348141B048032
:108F900012B2404C99182A80A1424DDC3D48991AE2
:108FA00081425ADDFA2B58D93C498C4663449BB226
:108FB00039499A1A0A802B804FE09F18F92F12DD49
:108FC0003448874201DDFA2B51D832488142CEDD48
:108FD000FA2BCCD931492E48591889B28A1A028005
:108FE0004246118018E0FA2BEFD9FA22D21A28490A
:108FF00092B2101A08808C46414612B225480A8067
:1090000099188142AFDD60462449591889B28A18FF
:1090100002804246494211809A1BF92AACDCFA22AE
:10902000D21A92B21C48A418524212B20480194CAF
:1090300099182A80A142B1DD18498C4663449BB23D
:109040009A185B4202802B8007E000216A5E11497A
:1090500098188842A2DDFA2B0CD804BC9046F0BDCB
:1090600000216A5E0B4998188842F6DC96E70849A9
:109070008C46C8E70848DFE7AA2700201E2B0020FF
:109080002A2B0020102B0020202B0020B2270020AC
:109090000C2B0020EE0200002C2B002012FDFFFF05
:1090A00010B5164B03211878421C1A7006F0E2FA2C
:1090B000C9B200291DD1012000F0D6F80400022019
:1090C00000F0D2F80E4B64121B785BB21A11131B1E
:1090D0000C4A14780C4A6343127852B211114212AE
:1090E00018008A1A62430949094B0A801880FFF761
:1090F00077FDFFF703FFFFF799FC10BDDC20002090
:10910000F329002095260020F22900201E2B0020A4
:109110002A2B0020F0B54E4645465746414BE0B459
:109120009846414B05259946404C414E0A2000F097
:109130009BF801000700404609F08EF923680521DD
:10914000980006F09BFA05218246380006F096FA50
:10915000010048465144216009F07EF92368013D31
:109160003360002DE2D1334B03211878421C1A7072
:1091700006F080FAC9B2002921D10A2000F074F863
:1091800001000500404609F067F9236805219800B1
:1091900006F074FA05218046280006F06FFA0100F7
:1091A00048464144216009F057F92368224A316852
:1091B0001360224A5B1A12785343214A1380FFF747
:1091C00003FE204B03211878421C1A7006F052FA55
:1091D000C9B200291DD1012000F046F80400022088
:1091E00000F042F8184B64121B785BB21A11131B83
:1091F000164A1478164A6343127852B21111421279
:1092000018008A1A62431349134B0A801880FFF72B
:10921000E7FCFFF773FEFFF709FC1CBC904699467C
:10922000A246F0BD4837020058370200D420002083
:10923000302B0020D2200020142B0020D02800202A
:10924000282B0020DC200020F32900209526002078
:10925000F22900201E2B00202A2B0020014B187819
:109260007047C046DD2000200A2851D8294B8000D5
:109270001B589F46284B294A1B681068181A7047CC
:10928000274B00229B5E274A0020105E181AF6E743
:10929000254B00229B5E254A0020105E181AEEE73F
:1092A000234B00229B5E234A0020105E181AE6E73B
:1092B000214B00229B5E214A0020105E181ADEE737
:1092C0001F4B00229B5E1F4A0020105E181AD6E733
:1092D0001D4B00229B5E1D4A0020105E181ACEE72F
:1092E0001B4B00229B5E1B4A0020105E181AC6E72B
:1092F000194B00229B5E194A0020105E181ABEE727
:10930000174B00229B5E174A0020105E181AB6E722
:109310000020B4E7A8370200B8270020FC20002076
:10932000A8270020F6200020B427002000210020DC
:1093300092260020F8200020DC290020F0200020C8
:10934000CA280020F2200020042B0020F420002056
:10935000C6280020EC2000208E260020EE200020D1
:1093600096260020DE200020A023F0B556464D466C
:1093700044465F465B00C35CF0B49C002150A424CB
:109380000026422564000655043C045983B001922E
:10939000FF354F2C1FD8425D92001258914200DDDC
:1093A0004355A1256D00425D9200125891423CDB6D
:1093B000A2220134520084505A1CD2B24F2A30D912
:1093C000A0224F3B5200835403B03CBC90469946C8
:1093D000A246AB46F0BDA846455DAB4227D0AD00E6
:1093E0002F58B94202DB42460F008354A126760073
:1093F000855DAB4240D0AD002D58A94201DC0D0087
:109400008355019A7F1B9742D2D2A4220121520098
:109410008154A2220134520084505A1CD2B24F2AE5
:10942000CED8A0235B00C254CEE74355C0E7002549
:10943000425F01259446424686541A3AFF3A9346C3
:10944000061D9B4408E03FB2BC464A464746C2550B
:1094500001350436502D34D0EFB2B9463768674530
:10946000F6DBF0D14B4501D2AB45F1DA282292462A
:10947000AA445345ECDCE6E70021425E0021944615
:10948000282293468155051D0131B1469B4408E0D1
:1094900032B2944646464A46865401310435502934
:1094A00015D0CEB2B0462E686645F6DCF0D1434505
:1094B00001D28B45F1DA282292468A445345ECDCEE
:1094C000E6E74225FF35455DAD002F588EE7F231C6
:1094D000415C89000D5894E7F0B5444656464D4628
:1094E0005F46A0220023F0B4A04C5200A54411AC6A
:1094F000A3540232A3544222FF32A3540332A35096
:109500000432A3544532FF32A354994AA354994AD2
:10951000A3540332A3500432A3544532FF32A35460
:10952000954AA354954AA3540332A3500432A3543A
:10953000934AA354934AA354934AA3540332A35087
:10954000924AA3544532FF32A354914AA354914AFC
:10955000A354914AA3500432A354904AA354904A6E
:10956000A354904AA3540332A3508F4AA3548F4A62
:10957000A3548F4AA3548F4AA3548F4AA350043252
:10958000A3548E4AA3548E4AA3548E4AA3548E4A9F
:10959000A3508E4AA3544532FF32A3548C4AA3549D
:1095A0008C4AA3548C4AA3508C4AA3548C4B9A46A1
:1095B0008C4B99468C4B9846A423A5275B000A2622
:1095C0009B460125BF005B46E35CE25D6B401900F2
:1095D00013006E4A6B40A25C0B436A401343CF22D8
:1095E000D200A25C6A4013436F4AA25C6A401343F4
:1095F00091221201A25C6A401343744AA25C6A4041
:109600001343764ADBB2A25C9A4242D803F056FB7F
:109610000028FBD0013EF6B203F000FA002ED2D1B2
:1096200053461B8803AD2B804B461B8827006B805D
:1096300043461B88AB806D4B1B88EB806C4B1B88B3
:109640002B816C4B1B886B816B4B1B88AB816B4BED
:109650001B88EB816A4B1B882B82A95F3800142280
:109660004D370236FFF780FEFF370C2EF5D102ABE7
:109670009C460026634F6744AB1938000C21595EA5
:1096800096224D370236FFF76FFEFF37062EF3D1D5
:1096900092E701F0BDF92422002108A8FEF7B8FDE9
:1096A00002AB9C46584E08AD664420002300413072
:1096B0002A68FF3002CB52188342FBD14D34FF346D
:1096C00004C5B442F1D10898502105F0D7FF4F4BA3
:1096D00050211880099B1800019305F0CFFF4C4BD7
:1096E000502118800A9B1800019305F0C7FF494BD1
:1096F000502118800B9B1800019305F0BFFF464BCB
:10970000502118800C9B1800019305F0B7FF434BC4
:10971000502118800D9B1800019305F0AFFF404BBE
:10972000502118800E9B1800019305F0A7FF3D4BB8
:10973000502118800F9B1800019305F09FFF3A4BB2
:1097400050211880109805F099FF384B1880384B3D
:109750001A68384B1A600122374B1A70374B9D44F8
:109760003CBC90469946A246AB46F0BD0CF4FFFFC8
:109770008E0200008D020000DA030000D903000011
:109780002405000026050000250500002C0500002A
:10979000720600007106000074060000BC0700009D
:1097A000BE070000BD070000C40700000809000054
:1097B0000A090000090900000C090000540A000011
:1097C000560A0000550A0000580A00005C0A000012
:1097D000A20B0000A10B0000A40B0000A80B0000CE
:1097E000A8270020B427002092260020DC29002092
:1097F000CA280020042B0020C62800208E26002026
:109800009626002004080000E80B0000F620002047
:1098100000210020F8200020F0200020F22000206D
:10982000F4200020EC200020EE200020DE2000208C
:10983000B8270020FC200020DD200020F40B0000D1
:10984000F0B544465F4656464D46F0B4DB4C242204
:10985000A544002108A8FEF7DBFCA022002311ACE0
:109860005200A3540232A3544222FF32A3540332C3
:10987000A3500432A3544532FF32A354D04AA35418
:10988000D04AA3540332A3500432A3544532FF32CA
:10989000A354CD4AA354CD4AA3540332A350043257
:1098A000A354CB4AA354CB4AA354CB4AA354033268
:1098B000A350CA4AA3544532FF32A354C84AA35402
:1098C000C84AA354C84AA3500432A354C74AA35455
:1098D000C74AA354C74AA3540332A350C64AA35449
:1098E000C64AA354C64AA354C64AA354C64AC74F3D
:1098F000A3500432A354C64AC64EA354C64AA35426
:10990000C64AA354C64AA350C64AA3544532FF329E
:10991000A354C54AA354C54AA354C54AA350C54A33
:10992000A354C54B984600250123AC4AA25C5A407B
:109930001100CF22D200A25C5A400A43AE49615CBA
:1099400059400A4391210901615C59400A43B549D4
:10995000615C4B401343B74ADBB2A25C9A4273D8B6
:1099600003F0ACF90028FBD003F064F94346022170
:109970000020185E00F040FA012138600023F05EFC
:1099800000F03AFAAD4B032118609A46AC4B013512
:1099900099460020185E00F02FFA8022920094462B
:1099A0004246A84B494618603B68604463449B129A
:1099B0001BB213805246126880126244921212B295
:1099C00000B2EDB2328008800A2DADD103ADAB817B
:1099D000FFAB2C339A46002399469B49EA810988BC
:1099E0002882E980994909882981994909886981EA
:1099F0004B46EB180621595E50461422FFF7B4FC83
:109A000002239C464B33E144FF339C464B46E244E1
:109A1000062BEDD102AA94468E4B63449A4600234E
:109A200099464B46EB180C21595E50469622FFF79B
:109A30009BFC02239C464B33E144FF339C464B4640
:109A4000E244062BEDD16EE702AA9446824BFFAEAC
:109A500063449C460BAF2C363000330041303A68EB
:109A6000FF3002CB52189842FBD14D36FF3604C767
:109A70006645F1D1794B50219B460B9B1800019311
:109A800005F0FCFD5B461880754B502198460C9BF9
:109A90001800019305F0F2FD434618800D9B5021FC
:109AA0001800019305F0EAFD6E4B502118800E9BC3
:109AB0001800019305F0E2FD6B4B07B21F800F9B6E
:109AC00050211800019305F0D9FD684B06B21E80A5
:109AD000109B50211800019305F0D0FD644A03B299
:109AE0001380644ABF0217609246634AB60216604A
:109AF0009146624A9B02454E1360A5239B00E15CA0
:109B00004D3BFF3BE25C483BFF3B4B409A4200D958
:109B1000B6E003F0D3F80028FBD003F08BF8464BF7
:109B200002210020185E00F067F93A4B30600121F5
:109B30000020185E00F060F9404F414B386003216F
:109B40000020185E00F058F95A463E4B1188186004
:109B50003D4B38681B880122591A4B461B6809B2D5
:109B6000C01A00F09FF94246384B11881B883268B2
:109B7000591A53461B68019009B2D01A022200F00C
:109B800091F90135EDB207000A2DB6D1802292007D
:109B90009446019BC53A6344991209B2FF3A2000EA
:109BA000FFF7E2FB80239B00F918891209B23C22DF
:109BB00064A8FFF7D9FB00259FE7C0460CF4FFFF20
:109BC0008E0200008D020000DA030000D9030000BD
:109BD0002405000026050000250500002C050000D6
:109BE000720600007106000074060000BC07000049
:109BF000BE070000BD070000C40700000809000000
:109C00000A090000090900000C090000342B00209B
:109C1000540A00008E260020560A0000550A000053
:109C2000580A00005C0A0000A20B0000A10B000013
:109C3000A40B0000A80B0000C62800203C2B00202D
:109C400096260020382B0020DC290020CA2800207E
:109C5000042B002004080000E80B0000F020002086
:109C6000F2200020F4200020EC200020EE20002034
:109C7000DE200020E0200020E4200020E82000205A
:109C800000F0C6FE089861AA08CCC018A242FBD119
:109C9000099C64ABB4A904CBA4189942FBD1502110
:109CA00005F0ECFC0D4B50211880200005F0E6FC7F
:109CB0000B4B18800B4B1A880B4B1A800B4B1A68F6
:109CC0000B4B1A6001220B4B1A700B4B9D443CBC92
:109CD00090469946A246AB46F0BDC046F62000200D
:109CE00000210020DE200020F8200020B8270020DE
:109CF000FC200020DD200020F40B0000F0B54746DA
:109D000080B402F097FF2C4B022198460020185E89
:109D100000F072F8294D2A4E286001210023F05EE0
:109D200000F06AF8274F284C386003210023E05EDA
:109D300000F062F88022920094464246234B244968
:109D400018602B68098863449B12138063463A6845
:109D50006044D3189B1233801E4B80121B882080D6
:109D6000591A1D4B09B21868101A012200F09AF80E
:109D700080239B009C46194B604480121880184A2F
:109D8000184B11881B88184A591A10682B6809B299
:109D9000181A022200F086F880239B009C46134A82
:109DA000134B604480121288188023889B1A114A32
:109DB000138004BC9046F0BDC6280020342B002040
:109DC0008E2600203C2B002096260020382B0020D9
:109DD000F0200020DC290020E4200020A82700201B
:109DE000F2200020CA280020E0200020DE200020F1
:109DF000B427002092260020F8B50500012923D0C1
:109E0000022931D00020032900D0F8BD1E4F1F4E7B
:109E10003C6872687B68B2607C6032686400641978
:109E2000BB6072603D60E4180A223168184800F097
:109E30007FF8241A88200A22B168800000F078F8A0
:109E4000201A30604001E0E7124B134E1C68716825
:109E50005A68B1605C603168640024189A60A41884
:109E6000716018600A22E1E70C4B0D4E1C687268A5
:109E70005968B2605C60326864002418996072604E
:109E800018606418D0E7C0462C210020442100202F
:109E900080FAFFFF542100201C2100200421002013
:109EA00010210020F0B5012A19D01B4F1B4E3B6832
:109EB0001B4D9A12336889029A1AD4102B6892119A
:109EC000A21A9C1A231A1811201A3C689A11A44647
:109ED0005B126244D31828603B603160F0BD114BC7
:109EE000114F9C461B68114E9D123B6889025D1BF9
:109EF0003368EA10D418AD11621B6446131A1811A6
:109F00002468101A9A113060161962465B12F31811
:109F100013603960E2E7C046382100203C21002070
:109F20005021002060210020402100202821002015
:109F3000484310417047C04630B504000020002956
:109F400007D00023034DE25C01335040285C8B4274
:109F5000F9DB30BDD437020010B50F24007804407F
:109F600040060C70400F1A49800009588F46039B29
:109F70001B78FF2B02D0039A0133137010BD029B94
:109F80001B78002BFAD0029A013B1370F6E7137886
:109F9000FF2BF3D001331370F0E71378012BEDD0D2
:109FA000013B1370EAE71A78FF2AE7D001321A70F2
:109FB000E4E71A78002AE1D0013A1A70DEE7029B42
:109FC0001B78FF2BDAD0029A01331370D6E7C04614
:109FD000D438020010B504780C7041781170827882
:109FE0001A70C378029A137010BDC046F0B54D4682
:109FF0005F4644465646434B83469946F0B4424D2D
:10A00000424C8BB082267600A35B062B3BD900F036
:10A01000AFF92860200000F09DFBFF28F4D120005C
:10A0200000F098FB6B460027D87607AE200000F0C2
:10A0300091FBF0550137042FF8D108AB98466B46D9
:10A0400042462120DB7E310013706844042208F070
:10A050004EF9200000F07EFB052182464046FFF7C6
:10A060006BFF824520D04B464A461B782848013377
:10A07000137008F0F1F94B461B78022BC2D901226C
:10A08000244B1A7009E000F073F92B68224AC11AB8
:10A0900091422CDC0022214B1A700BB03CBC904644
:10A0A0009946A246AB46F0BD1B201D4B1D4A0493AA
:10A0B0001D4B184903931D4B684402931C4B01939D
:10A0C0001C4B00931C4BFFF747FF1C4B1C4A009393
:10A0D0001C491D4B3000FFF77DFF5B4605221868C9
:10A0E000414608F004F90022064B1A708AE7002B5B
:10A0F000D3D00124074A14700200144808F0ACF9C8
:10A10000CBE7C0466821002064210020A026002063
:10A11000F4380200BE270020E093040069210020EB
:10A12000BC270020082B002090260020C9280020F2
:10A13000D0280020AA27002095260020C82800202B
:10A14000F2290020F3290020E8290020103902001C
:10A1500010B5054B1B88002B02D1044B187010BDA5
:10A16000034808F079F9FAE76A2100206C21002001
:10A170005C390200A222194B1949D20099501949A1
:10A18000194A802099501949043299501849194A9E
:10A19000C0039950A023EB210322DB05C9005A50CC
:10A1A00008315A5010315A5008315A50A121C90073
:10A1B000585080204004585080204005585080203E
:10A1C000C00558500C495A5004315A5028395A5039
:10A1D00008395A500021094A9950704700600040E0
:10A1E00003151300031713001405000003191300CF
:10A1F000031D13001C0500004C070000140700009D
:10A200000122014B1A707047442B0020A622274BD5
:10A2100052009958002931D00021995024490A68E8
:10A220003932FF320A6001229A64224A1278002AE7
:10A2300024D1A922D2009A58F423FF339A421DD880
:10A240001D4B0422995E1D4A914218DDFA22FA2024
:10A2500092009A800622995E184AC00091421BDC47
:10A260000A1C00291DDBFA2112B289005118DA807C
:10A27000A8220E4BD2009850114A995070470A1CE0
:10A28000002910DBFA2112B2890050189A800622A8
:10A29000995E0A4A9142E3DDFA21FA22C90092004E
:10A2A000E5E70022DFE70022ECE7C04600A000401F
:10A2B000402B0020DF290020E0290020E7030000D8
:10A2C00044050000A622254B5200995800292DD0A4
:10A2D000002199504C3AFF3A9A64214A1278002A98
:10A2E00024D1A922D2009A58F423FF339A421DD8D0
:10A2F0001C4B0022995E1C4A914218DDFA22FA207A
:10A3000092001A800222995E174AC00091421BDC1B
:10A310000A1C00291DDBFA2112B2890051185A804B
:10A32000A8220E4BD2009850104A995070470A1C30
:10A33000002910DBFA2112B2890050181A8002227B
:10A34000995E094A9142E3DDFA21FA22C90092009E
:10A35000E5E70022DFE70022ECE7C046009000407E
:10A36000DF290020E0290020E70300004405000069
:10A370000122054B9A64A922D2009858034BC008C9
:10A380001B68C0187047C04600A00040402B00204A
:10A39000014B18787047C046442B00200022014B27
:10A3A0001A707047442B0020F8B55F4656464D465C
:10A3B00044460023504AF0B41360504AA22613705A
:10A3C000C1239B009A4680231B039B4601215346D1
:10A3D0005846A8254A4AF6009151D0504948E433DE
:10A3E000ED0053519C461350474B4848802713506B
:10A3F0009946082350465C46BF00D3519846444BCB
:10A40000D16099511C5060463E4C585118514846F5
:10A410003E4C18514046D851D9601160C0225200BC
:10A4200094468022D2009046196062464146394BDC
:10A43000043C9950F8395A5891464846364A0240E9
:10A44000C020000402435A5042461A6062469F50A0
:10A450005A5894466046314A0240C02000020243E6
:10A460005A501F602E4A2F4B2F499A512F4A0836B7
:10A470005A502F49234899512E4E9A51A4222E4EBC
:10A48000D2009E502D4A2E4E9A51043699512D4994
:10A4900010365A50A6222C49D20099502B4A2C49EA
:10A4A0005A502C4999512C4E9A512C4A5A512C4AA7
:10A4B0001A501951154900205A50FF21294A995024
:10A4C0000023294AFA3902F0C1FF002803D00022F4
:10A4D000002102F089FC254A0121254803F028F8D3
:10A4E00000222449244803F03DF83CBC904699469C
:10A4F000A246AB46F8BDC046402B0020442B0020AE
:10A5000000A0004044050000C40900004C05000004
:10A510000090004000E100E0FFFF00FFFF00FFFFB0
:10A520004091004000F00140140500000060004030
:10A530004C9100401C050000449100400460004024
:10A54000240500002C05000040A1004008600040E8
:10A55000340500004CA100403C05000044A100402F
:10A560000C600040040500007021002001A20100E1
:10A57000D03B02006606000038230020F0B55F469D
:10A5800056464D464446F0B483B00192002A24DD7D
:10A59000802399467C3B9246984600230C008A44CF
:10A5A000124E134D04279B4609E05B46114A337057
:10A5B000114B0134D15043462B6054450DD04B46CE
:10A5C0002178EF503378002BEFD10C4800F0B4F82D
:10A5D000434601342B605445F1D1019803B03CBC93
:10A5E00090469946A246AB46F0BDC0466420002086
:10A5F00000E100E0002000401C050000C027002012
:10A60000842210B5194B5200995800291ED18E236F
:10A61000164C5B00E258002A09D000221448E25090
:10A62000183BC35A002B1BD10122124B1A709222E5
:10A630000E4B52009958002907D0002199509022C2
:10A64000D20099580C4807F007FF10BD002199501F
:10A65000A322D20099580948C9B200F06DF8D6E794
:10A6600000F078F8064BE050E1E7C04600200040DB
:10A67000C027002064200020D43B0200A026002038
:10A680001C05000010B51E4800F04CF81D4800F0F5
:10A6900049F8A023E7220321DB05D2009950E821E5
:10A6A00000220E20C9005A50174B1849585018491B
:10A6B00002305850174818495850A0200421C000B3
:10A6C0001950842040001A5014301A5001329A60F8
:10A6D0001A60C2221E38FF3892009850A120043A16
:10A6E00080009850C0230D4A5B00D1507C30145834
:10A6F0000B4B2340C024240423431350116010BD8E
:10A70000A0260020C0270020002000400C050000EB
:10A710001405000000E0D7012405000000E100E07E
:10A72000FFFF00FF80220023FF21520083520232EC
:10A730008152023283527047812210B5FF245200A9
:10A74000835A013323408352C1540232835A013366
:10A75000835210BD802110B5FF2402004900435AE6
:10A76000C05C0133234053520431535A013B5352CE
:10A7700010BDC046F0B557464E4645468446E0B447
:10A7800089469A460120002A3BD0B1230027614622
:10A79000244E254D254CDB002F702770F150494683
:10A7A000234BF150802189007750B060297800292F
:10A7B000FCD000212970012A2ED0802101251948C2
:10A7C0008900455001211748894601608021890090
:10A7D0008846FF39A325FF39534600268C46ED00F5
:10A7E00021780029FCD026704159013AD2B2197063
:10A7F000012A0BD049460162002A01D00133EFE75C
:10A8000000201CBC90469946A246F0BD41466746D2
:10A81000013347500262E3E78021022501488900A5
:10A820004550CFE700300040582300205923002036
:10A830001C050000F0B5474680B407000120002A3F
:10A8400027D00025B126A846134CF6002570134DDD
:10A85000AF5180274646BF00EE51114EA951A86066
:10A8600021780029FCD000210020013A2170D1B2CA
:10A8700001310A4E0A4D59181A7872512278002A6D
:10A88000FCD0013320708B42F6D101220020034B13
:10A890005A6104BC9046F0BD5823002000300040AF
:10A8A0001C050000F8B58423154A5B00D158002927
:10A8B00004D00021D1500122124B1A708E23104A6D
:10A8C0005B00D158002904D00021D15001220E4B49
:10A8D0001A7092250A4C6D006359002B0FD00B4E55
:10A8E000A759FFF745FDB123DB000200E35839000B
:10A8F000074807F0B1FD0323A35100236351F8BDBE
:10A90000003000405923002058230020C4040000D8
:10A91000E83B0200A023E2211A4ADB05C90010B57A
:10A920005A5008395A500421174B053AFF3A9950AA
:10A93000164A023999500022CD200731FF315A5072
:10A9400014315A501249C0045850A120C12180002E
:10A95000890058500539FF395A50A022FC39FF3977
:10A96000D2009950C023C0240A4A03315B00D15061
:10A970007C30135824061B021B0A2343135011601A
:10A9800010BDC0460C060000003000400C05000061
:10A990002405000000E100E08022044BD2009A5818
:10A9A000002A01D101321A607047C0460070004091
:10A9B00080220021054B52009950A122D2009A58C2
:10A9C000D3009B1A024A13807047C04600700040B3
:10A9D000CE2800200A4B0B490B4AC0209950A021D9
:10A9E0000122C9005A50FD39FF395A50074A000662
:10A9F00053581B021B0A03435350802313607047B4
:10AA000000700040041000000405000000E100E0B8
:10AA1000F0B5474680B4604C82B02578012D32D025
:10AA2000002D1CD0022D07D1FFF7A2FC5B4B1B6849
:10AA3000C01A5B4B984250D832200138C046C046FD
:10AA4000C046C046C046C046C046C046C046C046D6
:10AA5000C046C046F1D102B004BC9046F0BDB12260
:10AA60007721504BD200995080227539920099502D
:10AA70004D4A4631995001229A602270FFF778FCC6
:10AA8000464B1860D8E7FFF773FC444E3368C01A92
:10AA9000434B9842D0D9454F03223B0000217720F9
:10AAA000FFF768FE3B7877211A047B7858201B0259
:10AAB0001343BA7813433E4A1360B122394BD20094
:10AAC000995002228A31FF315A50374958509D60BF
:10AAD0002270FFF74DFC3060AEE7344D03222B00AF
:10AAE00000217720FFF746FE2B7800211A046B78AF
:10AAF0001B021343AA782F4D13432F4A13606A8910
:10AB0000288912029B1A98461A00002304F01AFFA3
:10AB10004E06CB110021C2093243AE883004121810
:10AB20004B41009201930021E8884246002304F043
:10AB300009FF0E06020A32436E880B12F003002151
:10AB400016001F00424636184F410023A8890021F5
:10AB500004F0F8FEFA23DB009C464902C00D0843CE
:10AB6000164B60441860124B3200186800213B00FD
:10AB700004F0E8FECD02420D4B152A4300980199DE
:10AB8000121A8B4111005B04CA0B1A430C4B1A605A
:10AB90000023237050E7C0465A230020742300206E
:10ABA0000F270000003000401C0500006C2300202F
:10ABB0004C2B00205C230020482B0020AC270020D9
:10ABC000B827002070B5A024094E0A4D2B000222A0
:10ABD00021007720FFF7CEFD2B786A781B02023424
:10ABE0001343E4B233800236B02CEFD170BDC046BF
:10ABF0005C2300207023002076DF70477ADF7047E7
:10AC00007CDF70477FDF7047A9DF704760DF7047E8
:10AC10002EDF704732DF704733DF70474CDF7047FD
:10AC20008021A02210B5044B4904D205D150002246
:10AC3000002102F0D9F810BD0C050000F8B50E0097
:10AC4000151E08D00024044F315D38000134FFF791
:10AC500073FDAC42F8D3F8BDD428002010B5040031
:10AC600003F052FC21001F4803F0AAFC2388112B9B
:10AC70002BD01ED9132B0ED0522B08D11A4B0022E9
:10AC8000188800210023FFF7BFFF00280CD1200007
:10AC900003F000FB10BD144B00221888852100230F
:10ACA000FFF7B0FF0028F2D00022002102F09CF84C
:10ACB000EDE7102BEBD18021A0220C4BD2054905EA
:10ACC000D150A288084B1A80E1E78021A123A0225D
:10ACD000DB00D2054905D1500122034B52421A80B4
:10ACE000D5E7C046782300206C2000200C0500002A
:10ACF00010B50378002B00D010BD8021A022084B96
:10AD0000C903D205D150074B3B211888FFF774FFC8
:10AD10000028F1D00022002102F066F8ECE7C046DE
:10AD20000C0500006C2000200123024A11784B40E2
:10AD300013707047DF290020F0B57248A9B0FFF703
:10AD4000F1FC7148FFF7EEFC002348226F49082010
:10AD500003F0EEFD002800D0CEE01AAC082200215E
:10AD60002000FDF755FA0122237820009343237039
:10AD7000FFF74CFF002800D0B9E0654803F0FEFD66
:10AD8000002803D00022002102F02EF80022614B9F
:10AD900015201A70FFF73EFF01211520FFF73CFF39
:10ADA0001520FFF735FF02210320FFF737FF0F21A2
:10ADB000012203AE337820008B43134310220B4053
:10ADC00013433370D023544A5449D358FF221340BD
:10ADD000534A07F06DFB200007F08CFB210082B284
:10ADE0003000FFF70DFF002800D07BE00CAD0822FB
:10ADF00000212800FDF70CFA06232B8006336B8018
:10AE00000023AB809133FF332800EB80FFF7F6FE81
:10AE1000002803D00022002101F0E6FF00210422D7
:10AE20002000FDF7F5F93F4B21003F481A9303F04E
:10AE3000F7FB002803D00022002101F0D5FF3822C3
:10AE400000212800FDF7E4F9022300272B703822A7
:10AE5000043300212000EB70AF70FDF7D9F9012316
:10AE60002382324B2422002130006361FDF7D0F9A8
:10AE70000123337340233200336121000097002304
:10AE8000280003F047F9002803D00022002101F038
:10AE9000ABFF1C2200212000FDF7BAF9244A002351
:10AEA0006260F0221203A26005221A93E38101334B
:10AEB0002374204B200063611F4B2273A36103F0B6
:10AEC000E7FA002803D00022002101F08DFF0320C3
:10AED00003F0C2F9002803D00022002101F084FF12
:10AEE00029B0F0BD0022002101F07EFF7EE70022A4
:10AEF000002101F079FF40E70022002101F074FFFA
:10AF00002BE7C046D4280020F429002094230020F9
:10AF10005DAC0100DF290020001000102C3C020075
:10AF2000203C02003DAC0100782300206820002076
:10AF3000CD0C0000F1AC010021AC0100F0B55F4682
:10AF400056464D464446F0B489B006AD062200216F
:10AF50002800FDF75DF940236B70353BAB70023B79
:10AF6000EB7009332B71013B6B71784B2900981DF5
:10AF700006229A4607F0BBF9AB7803229846414671
:10AF8000A0230020C131FF31DB058900CA50E978D8
:10AF900084468946C131FF318900CA502979444627
:10AFA0008B46C131FF318900C8506F79A12039002B
:10AFB0004E46C131FF318900CA506549C0000C506E
:10AFC000644C0E515E46A04604340E5101263400F6
:10AFD000BC401C506F78604C3F060F512F785F4D7E
:10AFE00064464F518427543D7F00CC514E51E0259B
:10AFF000ED005A515A4D5A51802292011E501A505A
:10B000005246584D2960D27A964042469E50502270
:10B01000554BCC51CA508422C8594D4B5200002880
:10B02000F9D0A321C9005958A0200191A121C00540
:10B03000C900465001990127013101914549465007
:10B040000020494998505F505850842799584048EB
:10B050007F000029F9D00023C351A323DB00C3588C
:10B0600002938421C3593A4A4900002BF9D0A32303
:10B07000DB00D358A0200293A123C005DB00C650FB
:10B08000029B01330293334BC650002306205350DA
:10B09000354BD050842753582D487F00002BF9D0D2
:10B0A000A323DB00C358A0220393A123D205DB0016
:10B0B000D650039B01330393264BD65000236022C6
:10B0C000C351294BC250224B984684235B009946BA
:10B0D000C359002BF7D0A3234246DB00D358A02747
:10B0E0000493A123FF05DB00FE50049B6420013381
:10B0F0000493FDF7E1F843462B6053460121DB7AC8
:10B1000042469940134B4846F950002313500622FB
:10B110004046154BC25043464A4698580028FCD03A
:10B12000A3230B4ADB00D358A0220593A1230120BF
:10B13000DB00D205D150059B0133059309B03CBC1F
:10B1400090469946A246AB46F0BDC046DC2300209F
:10B15000004000400C0500002405000054050000DC
:10B1600034070000E82300201C05000030B5554CD2
:10B1700083B0A37A002B00D197E06B46DD1D00233E
:10B180002B7023680122597C636818782B00FFF725
:10B1900051FB002800D088E02368012259796368B8
:10B1A00018782B00FFF746FB002800D07DE02368CD
:10B1B00001221979636818782B00FFF73BFB002800
:10B1C00000D072E02423E35C002B36D00C232B70DC
:10B1D000236801221979636818782B00FFF72AFB8E
:10B1E000002862D13230FDF767F8C0232B70A37AB4
:10B1F000DB0762D4236801221979636818782B0071
:10B20000FFF718FB002850D1637C002B58D12B701E
:10B2100023680122597C636818782B00FFF70AFB2A
:10B22000002842D123682870597963680122187870
:10B230002B00FFF7FFFA404235E004232B70236810
:10B2400001221979636818782B00FFF7F3FA0028B8
:10B250002BD1A27C4023002A2AD02B702368012204
:10B260001979636818782B00FFF7E4FA00281CD1DD
:10B270003230FDF721F8637C5A1E93412B7023680E
:10B280000122597C636818782B00FFF7D3FA002855
:10B290000BD12300226810335179626810780122A3
:10B2A000FFF7C8FA404203B030BD01204042FAE740
:10B2B000A27AD207D1D52033CFE7E0232B7099E7CC
:10B2C0000223A4E77020002070B5060082B0282871
:10B2D00000D9BBE02323694C01ADE35C00282CD1ED
:10B2E000002B18D02870A27C8023002A02D07E3B3D
:10B2F0002B7080332222A25C002A00D08AE02368CF
:10B300000122D97D636818782B00FFF793FA002893
:10B3100001D12323E05400232B7007336B70236883
:10B320000222597D636818782B00FFF783FA002802
:10B3300000D08BE0207502B070BD012B19D03023F6
:10B340002B70A27C8033002A02D07E3B2B7080338E
:10B350002222A25C002A5BD123680122D97D636886
:10B3600018782B00FFF766FA002802D10122232368
:10B37000E25420232B70012E6BD0052E59D9142EA8
:10B380004AD903236B70A37A002B6FD004236A463B
:10B39000D370E37A042B69D023680122997863681B
:10B3A00018786B460333FFF745FA002860D16B46E7
:10B3B0000722DB78E3726B789B011343DBB26B707F
:10B3C00023680222597D636818782B00FFF732FA50
:10B3D00000283BD108230122A372207322751C335D
:10B3E000E35C002B12D12374637C002B0ED16B46DF
:10B3F000DA702368597C636818786B460333FFF76B
:10B4000019FA002802D16B46DB786374002092E7BA
:10B410002B70A1E72B7072E702236B70A37A002BCD
:10B4200005D005236A46D370E37A052BB4D1872370
:10B43000C5E701236B70A37A002B05D006236A466B
:10B44000D370E37A062BA7D14723B8E70120404207
:10B4500071E700236B70A37A002B05D006236A46A0
:10B46000D370E37A062B97D10723A8E7C723A6E773
:10B470006B789A0107231343DBB2A0E7702000200A
:10B4800010B5114A0100537A012B19D0002B13D0AB
:10B49000022B0AD0032B0CD1102320240370D37C61
:10B4A0000020002B00D00C7010BD08231024037066
:10B4B000F5E701204042F7E7022304240370EEE79A
:10B4C000042308240370EAE77020002070B51C4CA8
:10B4D00082B0A37A002B27D06B46DD1DBB2816D87F
:10B4E000612817D902232B70E27A00269A420BD0EA
:10B4F000236801229978636818782B00FFF79AF97E
:10B50000002811D12B78E372300002B070BD012306
:10B510002B70E9E7292804D8132808D904232B70B5
:10B52000E2E703232B70DFE701267642ECE70928E8
:10B5300002D905232B70D7E706232B70D4E7C0462A
:10B540007020002070B5584C82B0A37A0600002B02
:10B5500000D196E02423E35C002B00D091E0227D13
:10B56000002A30D0421E272A00D885E02322A25C80
:10B5700001AD002A18D02B70A37C8022002B02D0B2
:10B58000022302322B702223E35C002B00D071E0F7
:10B5900023680122D97D636818782B00FFF74AF9E8
:10B5A000002801D12323E05400232B7007336B7054
:10B5B00023680222597D636818782B00FFF73AF957
:10B5C000002800D12075F920032E31D86B46D870A1
:10B5D000236801225978636818786B460333FFF7B4
:10B5E00029F900284DD16B46FA20D9788000013125
:10B5F00004F044F8A37A80B2E0814008002B14D014
:10B6000001ADBB2821D9012301222B70E37A93429B
:10B610000BD0236801229978636818782B00FFF714
:10B6200009F9002801D12B78E372002002B070BD27
:10B63000FA23311C9B009E420FD8FA2089B2800069
:10B6400004F01CF80138C0B2C0E761280ED82928E0
:10B650001AD9032303222B70D8E7FA20191C89B2C8
:10B66000800004F00BF80138C0B2AFE702230222D9
:10B670002B70CBE72A708BE7C0B2FFF725FE0020C6
:10B68000D4E701204042D1E7132805D8092807D97B
:10B69000052305222B70B9E7042304222B70B5E79C
:10B6A000062306222B70B1E770200020F0B5474634
:10B6B000242380B4304D82B0EB5C0024002B2BD1CE
:10B6C000AC7A002C54D00133984304402F7C2C7466
:10B6D000041B621E944106006442002821D12A7D89
:10B6E000002A30D06A7C002A16D107326A441370CF
:10B6F0002B689046597C6B68187813000122FFF77D
:10B7000099F8002808D143461B786B74002E03D0AB
:10B71000FFF72CFD002827D1200002B004BC904682
:10B72000F0BD6A7C002AF3D107226A4413702B68AB
:10B730009046597C6B68187813000122FFF77AF85D
:10B740000028E0D0E4E76B46DA712B680122597CCF
:10B750006B6818786B460733FFF76CF80028DBD16D
:10B760006B46DB796B74D7E701242F746442D3E70F
:10B7700001246442D0E7C04670200020F0B54F4657
:10B7800046467023C0B4050083B0034069D06B46C1
:10B790009E1D01233370484C01222368597D636844
:10B7A00018783300FFF746F8002800D07EE04022EA
:10B7B00033783070934323732A4266D03A2084460C
:10B7C0003738814601383823392201213B2780460A
:10B7D000A80604D443463A00337049466346E80657
:10B7E00001D4130031702A0700D43370236801227A
:10B7F000997D636818783300FFF71CF8002855D14D
:10B8000008232A009A4320D02323E35C002B1CD07A
:10B810006B46D871A37C8022002B03D06A4602239A
:10B82000D37182222223E35C002B01D06B46DA71B4
:10B8300023680122D97D636818786B460733FEF7C9
:10B84000F9FF002801D12323E05400233220A57200
:10B850002375FCF731FD002003B00CBC90469946DF
:10B86000F0BD00281ED16B464027134C9E1D236857
:10B870003770597D6368012218783300FEF7DAFFCC
:10B88000002813D13378BB4323733E20042384461E
:10B8900037388146013833703D22383305213F2740
:10B8A000804695E76A46961D337074E700230120B1
:10B8B000A3724042D0E7C04670200020802370B5BC
:10B8C000774C84B002AD2B7023680122597D6368E8
:10B8D00018782B00FEF7AEFF061E00D0C2E06420F1
:10B8E000FCF7EAFC23682E70597D63680122187802
:10B8F0002B00FEF79FFF002800D0B3E070232B70D1
:10B9000023680122D97E636818782B00FEF792FF26
:10B91000002800D0B5E023680622597E63681878B5
:10B920002B00FEF727FF002800D09BE004216B7955
:10B9300001269B0019400223EA78520013406A78DE
:10B940000B433240134300D182E0D9B2012B03D024
:10B95000022900D098E00023E37400232B702368B1
:10B960000122D97E636818782B00FEF763FF051E5D
:10B9700000D086E00122FF235242A3722372637239
:10B98000E372E2812274A3742332FE3BA354237337
:10B990002233E054607520752000163A16300021DD
:10B9A000FCF736FC2423E5540133E554A37AE584FF
:10B9B000002B57D06B46DD1D18232B70237A032BE9
:10B9C0000FD0236801229979636818782B00FEF75D
:10B9D00031FF002846D12B78DB082372A37A002B95
:10B9E00040D000232B70637A002B0FD023680122F4
:10B9F000D979636818782B00FEF71CFF002831D135
:10BA00002B78DB086372A37A002B2BD005232B70D5
:10BA1000E37A052B0BD023680122997863681878A4
:10BA20002B00FEF707FF00281CD12B78E372FA20C9
:10BA30008000FFF787FD002814D10020FFF736FEB5
:10BA4000041E0FD10020FFF799FE200004B070BD46
:10BA500023680122D978636818782B00FEF78AFEE4
:10BA6000002802D001246442EFE70F222B78134014
:10BA700010D0042B00D06EE70A4806F0EDFCE67407
:10BA80006BE703246442E0E70124074806F0E4FC86
:10BA90006442DAE70124054806F0DEFC6442D4E79C
:10BAA00070200020E43C02006C3C0200943C020048
:10BAB000F0B544465F4656464D4698462423F0B4BA
:10BAC000954C91B004900B91E35C002B00D01BE1EE
:10BAD00042461370A37A002B00D115E1237C002B82
:10BAE00000D111E15A0600D5BCE000220392029277
:10BAF00006329146043A9346924606329446043AF8
:10BB00000A9209920632089207920692063A059224
:10BB100000220627062608250820022101929A06FF
:10BB200010D55A460392524602920A9AE14693462B
:10BB3000099A2F009246089A060094460191079DA3
:10BB400006980599DA0607D55A4603925246E14609
:10BB50002F000600029201911B0703D4039B029F52
:10BB60009946019E23680DAD197B636802221878FF
:10BB70002B00FEF7FFFD002800D0C5E02B786A7887
:10BB80001B021A439246BA4200D286E0626853888A
:10BB90005B089A450ED923681078D97C01222B00C6
:10BBA000FEF7E8FD002800D0AEE02B78DB0600D5DC
:10BBB000ADE0626823681078597B32002B00FEF7F5
:10BBC000D9FD8346002800D09EE04946504603F048
:10BBD00055FD1A9B013818705A4643461A70002EBC
:10BBE00002D0237C1B076CD405239A46013B99465F
:10BBF0009B46023B01939C46032601220021002321
:10BC0000BB424AD0237C580614D56B5CAA5C1B024D
:10BC10001343049A138043461A7840231343424641
:10BC20001370BC4539D048463200DC465646237C6A
:10BC300001990190980632D4DB062ED56B5CAA5C84
:10BC40001B021343049A0020938043461A78102362
:10BC500013434246137011B03CBC90469946A2462D
:10BC6000AB46F0BD02220392029206329146043A9C
:10BC70009346924606329446043A0A920992063254
:10BC8000089207920692063A0592043A0827082677
:10BC90000A250A200421019241E70020DBE76B5CC2
:10BCA000AA5C1B021343049A538043461A7820234C
:10BCB000134342461370BC45EFD0237C32000199F8
:10BCC000BAE72B786A780B991B0213430B80AB7889
:10BCD000EA781B0213434B802B796A791B021343CA
:10BCE0008B8043461A7808231343424613700B2374
:10BCF0009A46013B99469B46023B01939C46092686
:10BD000007220621023B7BE701204042A3E7FFF721
:10BD10002DFA022040429EE770200020F0B54F46E9
:10BD200046462423C0B4284C83B0E35C0700894610
:10BD30009046002B3BD0A37A002B38D0236801AE6D
:10BD4000197B6368022218783300FEF713FD002880
:10BD50002DD1357873782D021D43BD422AD36068FA
:10BD600043885B089D420CD923680078D97C012266
:10BD70003300FEF7FFFC002819D13378DB061DD411
:10BD800060682368FAB2597B00784B46FEF7F2FCF4
:10BD900000280CD13900280003F0E6FB43460138A7
:10BDA0001870002003B00CBC90469946F0BD0120ED
:10BDB0004042F7E7434618700138F3E7FFF7D6F93A
:10BDC00002204042EEE7C046702000202223024AB3
:10BDD000D05400207047C04670200020232370B547
:10BDE000174C82B0E35C0500834224D000281DD1AB
:10BDF00080228220022600216B4607331970A17C25
:10BE0000002901D002001E702221615C002900D0AF
:10BE10001A702268D17D626810780122FEF70AFD4F
:10BE200000280AD12323E55402B070BDB022B2200D
:10BE300032263021E0E70020F6E701204042F3E718
:10BE40007020002070B50D0082B0161E20D0124C5C
:10BE5000A37A002B1CD0020A01AB1A70C0B2626830
:10BE6000587040185189884212DC21681078C97EC8
:10BE70000222FEF7DFFC00280AD12368EAB2197E0D
:10BE8000636818783300FEF7D5FC404202B070BDFD
:10BE900001204042FAE7C04670200020F0B5564627
:10BEA0005F464D464446F0B48BB003932523514E74
:10BEB00001910292F35C8246002B75D1002973D068
:10BEC000002800D194E00400102800DD75E0A3B242
:10BED0009B46B37A002B67D0002305AF70683B7098
:10BEE0007B7043899C425FDC019B0025984638E0CB
:10BEF00033681078D97E02223B00FEF79BFC0028B5
:10BF000052D133684A46197E7368187806ABFEF73B
:10BF100031FC002848D1220006A9404606F0D8F995
:10BF200000284CD15D44ADB2AA454BD953465C1BA9
:10BF3000102C00DD1024A3B29B46019B9846A84418
:10BF40004346002B30D0B37A002B2DD02B0A3B7008
:10BF50007068EBB222047B70120CD31842899342B2
:10BF600022DC33680078D97E02223B00FEF762FCB7
:10BF7000002819D1E3B2994633684A46197E73689E
:10BF800018784346FEF756FC00280DD1B37A002BF3
:10BF90000AD02B0A3B707268EBB27B702404240C2D
:10BFA00051891B198B42A3DD012040420BB03CBCE0
:10BFB00090469946A246AB46F0BD102487E7022082
:10BFC0004042F3E7029A130A3B7033687A70597F54
:10BFD0007368022218783B00FEF72CFC0028E3D19E
:10BFE00025230122F2546B469B890020F384DDE770
:10BFF00005AFE8E770200020242330B55A4C83B009
:10C00000E35C834276D0002800D17AE02522A25C4E
:10C01000002A00D19EE0002B00D06EE0A27A002A18
:10C0200000D19AE06A46D51D2B7023680122597C05
:10C03000636818782B00FEF7FDFB002801D12B78F0
:10C040006374A37C002B36D02368012219796368BE
:10C0500018782B00FEF78EFB00282CD1A37ADB0783
:10C0600000D56FE020222B7893432B7023680122A8
:10C070001979636818782B00FEF7DCFB00281AD1C9
:10C080000330FCF719F92223E35C3022002B01D0A6
:10C09000802380322B702323E35C002B00D02A7096
:10C0A00023680122D97D636818782B00FEF7C2FB54
:10C0B000002800D1A074E08CFFF744FA6B46002200
:10C0C00006331A706268232110780122FEF7B2FB52
:10C0D00024230122E254223B2B702368597C63689D
:10C0E00018782B00FEF7A6FB002801D12B7863748B
:10C0F000FFF73CF8002003B030BD6B46DD1D002388
:10C1000092E7002B22D1A27A002A29D06A46D51DB7
:10C110002B7023680122597C636818782B00FEF786
:10C1200089FB002801D12B786374237C01222B70BA
:10C130006368232118782B00FEF77CFB0022242360
:10C14000E254D5E720232A7813438EE76B46DD1DA2
:10C150002870DEE701204042CDE76B46DD1D70E729
:10C160006B46DD1DE1E7C04670200020802210B53F
:10C17000C823D20002490348FFF790FE10BDC04615
:10C180007C3D0200F60B0000F0B5404C87B002AFDA
:10C19000050003AE21000322380006F0A8F8211D97
:10C1A0000322300006F0A3F821000322083104A87E
:10C1B00006F09DF8210003220C3105A806F097F83F
:10C1C000032108006A466C4628403B5C1370EA086D
:10C1D0000A40BB5CB25C6370AB090B40F95CF35C7A
:10C1E000A170315C01AC2170627003216A4628485D
:10C1F000A370FFF727FE002845D122000321254820
:10C20000FFF720FE00283ED1032204A9684606F06D
:10C210006EF8032205A9200006F069F86B0708D51F
:10C220006A460123694612781A430A70227813433A
:10C230002370AB0608D56A460123694652781A4333
:10C240004A70627813436370EB0512D488206A4603
:10C250000321C000FFF7F6FD002814D122000321BE
:10C260000D48FFF7EFFD00280DD10C4B1D8107B0E5
:10C27000F0BD6A460123694692781A438A70A27813
:10C280001343A370E2E701204042F0E7303D020093
:10C29000260400002A04000031040000EC230020E2
:10C2A00010B5144986B004000C22103103A806F022
:10C2B0001EF8C82C1AD82100C82003F0DFF9013875
:10C2C00080B201AA030A507002210B481370FFF7D5
:10C2D000B9FD00280AD103AA0C210848FFF7B2FDD6
:10C2E000002803D1064B9C8106B010BD01204042BE
:10C2F000FAE7C046303D020016020000C10A000005
:10C30000EC230020F0B5050083B043076BD0C823B1
:10C31000DB00994267D8080004F09CF94D4903F00E
:10C32000CBFC6B46DC1C071C2000FFF7A9F8237828
:10C33000042B00D17DE033D9082B6AD0102B52D1C9
:10C340008A21381CC90503F081FE03F027FB42490E
:10C3500086B2381C03F07AFE03F020FB80B201ACF9
:10C36000330A2370030A6670A370E070EB0729D4C8
:10C37000AB073CD400206B0737D5EE20220002210A
:10C380004000FFF75FFD00282DD16B462D309A1D30
:10C390000221FF30FFF756FD431E9841404224E042
:10C3A000022B20D18D21381CC90503F04FFE03F06C
:10C3B000F5FA2A4986B2381C03F048FE03F0EEFA7B
:10C3C00080B2CCE7EA20220002214000FFF73AFDCC
:10C3D000002808D16B4625309A1D0221FF30FFF757
:10C3E00031FD0028C4D00120404203B0F0BDEC2054
:10C3F000220002214000FFF725FD0028F3D16B4603
:10C4000029309A1D0221FF30FFF71CFD0028B1D012
:10C41000E9E78B21381CC90503F018FE03F0BEFACA
:10C420000F4986B2381C03F011FE03F0B7FA80B250
:10C4300095E78C21381CC90503F008FE03F0AEFA1D
:10C44000084986B2381C03F001FE03F0A7FA80B257
:10C4500085E7C046000048430000C0440000404655
:10C46000000040450000C045F0B54E4645465746E1
:10C47000E0B486B0924B03AC060022000421682091
:10C480000393FFF7DFFC4022A32332402370904642
:10C4900000D10DE11D3363700833A370063BE370D8
:10C4A000C0277F00374000D1FDE0C423237108334B
:10C4B0006371063BA371A32322000A218148E37123
:10C4C00023726372FFF7BEFC0323334099464A464A
:10C4D0002023002A00D1B833220001217A4823709A
:10C4E0006D46FFF7AFFC09227849B30600D4D8E0C7
:10C4F0001C31280005F0FBFE97202A000921C0000E
:10C50000FFF7A0FC002F09D0F30500D5D4E0704B55
:10C510000393220004216F48FFF794FCF30700D433
:10C52000B6E08B20F8232200012100012370FFF7E1
:10C5300089FCFA210720FFF7E5FEA4203F232A000B
:10C54000012140002B70FFF77DFC002350209A460C
:10C550002A000121FF302B70FFF774FC5346EF20B7
:10C560002B7014232A00022140006B70FFF76AFC35
:10C570005346ED202B7064232A00022140006B708B
:10C58000FFF760FC53462B708E23AE206B706B332D
:10C59000AB702A00693B04214000EB70FFF752FCAE
:10C5A0005346AD202B7008232A00022140006B70F7
:10C5B000FFF748FC5346AC202B7002232A000221CF
:10C5C00040006B70FFF73EFCB307DB0FD83322004F
:10C5D000012141482370FFF735FC730752D53F4BCB
:10C5E00000932A0004213E48FFF72CFCFEF7BEFD15
:10C5F000F30641D53B4B00932A0004213A48FFF74C
:10C6000021FCFEF7B3FD0823384C33436381FEF76A
:10C61000ADFD4346002B22D10A20434684460C3010
:10C6200082461038A3731422042310211A25804651
:10C63000002F04D043462A00A373514663461420BA
:10C64000304201D01300A1734A46002A00D0A373E0
:10C65000002006B01CBC90469946A246F0BD1020B2
:10C66000062384460C3082461038A3731A22043302
:10C67000162120258046DBE70422A3212800FBF7B2
:10C68000C7FDB9E704228B212800FBF7C1FDA8E70D
:10C690008B20D8232200012100012370FFF7D2FB59
:10C6A00092E7283125E7A32323716371A37102E781
:10C6B0006370A370E370F3E60D4B039329E7C04664
:10C6C00002CAE309A70A0000B60A0000303D0200D2
:10C6D000B080B490A20A00003D070000C0C2C4C6EA
:10C6E000980A0000202830389E0A0000EC23002021
:10C6F000B28BB69BF0B544465F4656464D46002386
:10C70000F0B491B01A9C060023807C4B0F00987BFC
:10C71000914608A91B9AFFF701FB03B298462380B4
:10C72000181E74D11422754B5B891A4200D075E033
:10C730000325AC46013DA846013DA94600250C2134
:10C7400000220420AA46079101390691013905917A
:10C75000013904910139039101399346029106325E
:10C7600001390191009201395D062DD5524608AD7F
:10C77000AA5C120292462A004D46525D5546154368
:10C780003D80454608AA525D65461202904608AAB9
:10C79000525D4546154308AA515C105C009A0002A0
:10C7A0009346079A08430092049A08219446039AF4
:10C7B0007D809046029AB8809146019A20889246E0
:10C7C0000143218005980699C0277F003B421BD07A
:10C7D000554608AA575D4D46525D45463F021743F0
:10C7E00008AA3780575D6546525D3F02174308AA85
:10C7F000105C515C00020143B180009A70219346A5
:10C8000077802088014321809B0752D1002011B0FE
:10C810003CBC90469946A246AB46F0BD089A11BA78
:10C820004A461160099A091410BA4A4650600A9A99
:10C830008C4612BA92464A46554695604D460B9A2A
:10C84000514612BAEA6065466D43AC4600140914BD
:10C850004043121449435243604440188018F12267
:10C860001206944680226044920490423FD8802170
:10C87000228849000A432280102293460632009201
:10C8800006320792013A0692013A0592013A049261
:10C89000013A0392013A0292013A0192033A944614
:10C8A000013A9046013A9146013AEB3914209246FA
:10C8B0005AE708AB9C465C4664446378E678DA073E
:10C8C0000BD50E4A1268002A07D007200100F30892
:10C8D000314018400131904763781B0796D5074BCC
:10C8E0005B68002B92D0B009984700208FE7FEF7D5
:10C8F0003DFC434601202380404288E7EC23002092
:10C900000023F0B5C356002B36DD3022002320244F
:10C910000821282610259446382703228256002A0B
:10C9200018DD062141560022002902DD134398B28A
:10C93000F0BD00293AD10721415640320029F5DCEB
:10C9400051D10821415640320029EFDC59D1E02273
:10C950005200EBE7002A27D1042282560B00002A5E
:10C96000DFDC3ED1052282562B00002AD9DC3B00B9
:10C97000002AD6D06346D4E7002B0CD10123C3563E
:10C98000002B16DD3122012321240921292611251E
:10C9900094463927C1E73422042324240C212C2671
:10C9A000142594463C27B8E72300BAE780225200BA
:10C9B000BCE7002B0CD10223C356002B16DD32221C
:10C9C000022322240A212A26122594463A27A4E784
:10C9D0003522052325240D212D26152594463D2796
:10C9E0009BE733009DE7A02252009FE7002B0BD16D
:10C9F0003722072327240F212F26172594463F2768
:10CA00008BE70132FF3291E73622062326240E21DE
:10CA10002E26162594463E277FE7C046F0B55F4692
:10CA200056464D464446F0B4774B91B004AA94461E
:10CA300001930E23634400930CAA00230AA908A8BB
:10CA4000FFF758FE43B20020002B06D011B03CBCCB
:10CA500090469946A246AB46F0BD0C9803F0B2FD55
:10CA6000C221890503F0F2FA041C0D9803F0AAFD17
:10CA7000C221890503F0EAFA80460E9803F0A2FD70
:10CA8000C221890503F0E2FA81460F9803F09AFD6E
:10CA9000C221890503F0DAFA211C051C201C03F0D1
:10CAA000D5FA4146071C404603F0D0FA4946824673
:10CAB000484603F0CBFA291C0290281C03F0C6FA62
:10CAC0005146061C381C03F0D5FB029903F0D2FB3B
:10CAD000311C039602F07AFF05F06EFB049005917D
:10CAE000291C484603F0B2FA41468346201C03F055
:10CAF000ADFA011C584602F069FF05F05DFB02002B
:10CB00000B0003F0E5FD049A059B01F0EBFF00220A
:10CB10003E4B04F02DFD05F019FB3D4B291C188000
:10CB2000404603F093FA49468346201C03F08EFAF0
:10CB3000011C584603F09EFB05F03EFBC02300227B
:10CB40001B0604F015FD01F06BFF80268B46844622
:10CB500036065E44604600222C4B310004F008FD8E
:10CB600005F0F4FA2B4B51461880381C02F02EFFCA
:10CB7000029903F07FFB039903F07CFB05F01CFB9B
:10CB800006000F004046494603F060FA291C804623
:10CB9000201C03F05BFA011C404602F017FF05F071
:10CBA0000BFB02000B0003F093FD32003B0001F091
:10CBB00099FF0022154B04F0DBFC05F0C7FA702248
:10CBC000154B188004ABDB891A4210D101201B07DA
:10CBD00000D43BE704AB1A8B104B1A8004AB5A8B82
:10CBE0000F4B1A8004AB9A8B0E4B1A802EE704AAC7
:10CBF000118A0D4A118004AA518A0C4A118004AA94
:10CC0000918A0B4A1180E1E794260020005FC4401E
:10CC1000A8270020B427002092260020C628002044
:10CC20008E26002096260020DC290020CA2800201D
:10CC3000042B002000B5194B89B000930F2306A9DF
:10CC40006B44002204A8FEF733FF41B2002920D133
:10CC50006B467022DB7B1A420BD06A46118A104A5F
:10CC600011806A46518A0F4A11806A46918A0E4A9B
:10CC700011801B070BD56B461A8B0C4B1A806B4629
:10CC80005A8B0B4B1A806B469A8B0A4B1A8009B051
:10CC900000BD094805F0E0FBF9E7C04694260020F6
:10CCA000DC290020CA280020042B0020C6280020F0
:10CCB0008E2600209626002074490200A223A0227E
:10CCC000DB00D205D35801209B0604D4024B187810
:10CCD000431E9841C0B270479426002070B50500ED
:10CCE00082B000200E00FEF7E9FD0100324805F099
:10CCF000B3FB7820FEF742FD0100304805F0ACFBA5
:10CD00007820FEF7D3FC01002D4805F0A5FB00209C
:10CD1000FFF75CF80120FFF761F8002D1FD16B468B
:10CD2000DC1D0122DD711A2123006820FDF782FD40
:10CD30000100244805F090FBFA203100400102F088
:10CD40009DFC013820701921230001226820FDF785
:10CD500071FD01001C4805F07FFB02B070BDFFF7BC
:10CD600005FA0100194805F077FB1948FFF7C8FDDF
:10CD7000FFF70AFA0100174805F06EFB7220FF303A
:10CD8000FFF772FB0100144805F066FB6420FFF713
:10CD900087FA0100114805F05FFB0120FFF72CF92D
:10CDA00001000F4805F058FB0A20FEF78FFB010039
:10CDB0000C4805F051FBD0E798490200B049020049
:10CDC000C8490200704A0200884A0200E049020095
:10CDD0009C200020F8490200104A0200284A020064
:10CDE000404A0200584A020010B50B0001000B48EF
:10CDF00005F032FB8021A123A022FA20C900DB002C
:10CE0000D205D150C000FBF757FABFF34F8F044A49
:10CE1000044BDA60BFF34F8FFEE7C046A04A020022
:10CE20000400FA0500ED00E080218023184A890201
:10CE3000D1508022D221174B520289005A504039DA
:10CE40005A5001222F205A600138C046C046C046C1
:10CE5000C046C046C046C046C046C046C046C046A2
:10CE6000C046F1D19A6000230B4A2F20136001388D
:10CE7000C046C046C046C046C046C046C046C04682
:10CE8000C046C046C046C046F1D1044A1370704740
:10CE900000E100E000100140FC2300201C240020E1
:10CEA000A021F0B5002347462C4A490080B45350D6
:10CEB0000431535004315350043153504C395350C2
:10CEC00004315350264B1B68002B37D025490026D0
:10CED00052582549254F0C68141B00222402240AAD
:10CEE000904602E0002D1AD02B001A68A24216D8F4
:10CEF000A41AB6181A7CDD69002AF3D04246996953
:10CF00001A745A693B68002B1BD010009847002800
:10CF1000E8D000220021FFF767FF002DE4D1144B79
:10CF200014491A780B789A420ED0134A9B009E50EF
:10CF300080218023114A49035B00D15004BC9046F4
:10CF4000F0BD08009047CDE70132D3B2022B01D0EB
:10CF50000B70EAE700230B70E7E7C04600100140C2
:10CF60000024002004050000FC23002004240020ED
:10CF700010240020112400201424002000E100E0EF
:10CF8000F0B55F4656464D464446F0B4C54BC64ADA
:10CF90001B68C6498BB0059309781378994200D174
:10CFA00057E10133DBB2022B00D100231370C04ADA
:10CFB0009B009B58BB4A9A46059B53441B021B0A85
:10CFC000136001230193BB4B00241B689B46BA4BA3
:10CFD0005A461B78914619000393B84B88461B6844
:10CFE00047460493AF4B013F1B680793B44B1B7834
:10CFF000099300239C4606930893FBB26646984625
:10D00000FF2B32D04346D800049B9C46130060445B
:10D010000178457800961A00A9421FD046684A0058
:10D02000B446521886780131D200C9B262448E42A9
:10D0300000D1EDE01678022E00D1C7E0032EEAD130
:10D04000002BE8D01C74DB69002BFBD10133457841
:10D050000093002399461A00A942DFD14746013FB9
:10D06000FBB2009E9846FF2BCCD1089BC84602928B
:10D07000B446002B00D0F0E0069B002B02D0894B79
:10D08000079A1A606346002B02D04246894B1A6009
:10D09000019B002B00D02DE15B46029A00259B1AD4
:10D0A0005A1E9341DBB205937E4B00271B68029901
:10D0B0009C46804B1B689B46814B1B780693002344
:10D0C0000193804B994601230093039B013BDBB204
:10D0D0000393FF2B00D1F9E0049ADB0092460E0087
:10D0E0009A44002D28D06A68A9682C00ED6963462F
:10D0F000D31A1B021B0A4B4552D86A4612785B189A
:10D1000023606760A7602274E761002E58D0316801
:10D110003000994205D3B9E01168994200D3A3E0E9
:10D120001000C2695B1A002AF6D1E2613200236066
:10D13000C4611600002DD6D153461A785B783100B1
:10D140009342C2D0514649685300884651469B18C5
:10D150000132D2B20A708978DB004344914200D197
:10D160009DE0197832000129E3D15C68227C904669
:10D17000414632000029DCD19A686260D968A1601A
:10D180001869E0605B69A361069B002BAFD0434642
:10D19000002263606346D31A1B021B0A4B45ACD9BD
:10D1A00063469A1A1202120A8A4264D28B1A6A469B
:10D1B000127823606760A7602274E761002EA6D111
:10D1C00022000123A34601931600B3E75668002B03
:10D1D00030D09E421ED0009A1F00944602E0964234
:10D1E00006D01700FA69002AF9D16246009212E7C8
:10D1F00065460095BA420FD01568D269FA61002AD7
:10D2000016D013689C466544156045784B4602E786
:10D2100000210FE71A001F00DE69002E0CD0012547
:10D2200000951568D269B1463300FA61002AE8D149
:10D230004578F0E60023EEE60125234B9D6000953E
:10D24000069500250023079501359946089509950F
:10D25000D2E700239A460193B5E66A462421521884
:10D26000174B12781A7007E7C91A1160E261236040
:10D270003200C4615DE76B461B7827606760A7607A
:10D280002374E761002E9BD000233168CB1A3360F2
:10D2900022000123E661A346019316004AE75246A5
:10D2A00015705EE7FC2300201024002011240020CC
:10D2B0001424002000240020082400200C24002036
:10D2C00012240020FEFF7F0000100140019B002B74
:10D2D00000D09DE0029B994236D1059B002B33D1B3
:10D2E0000023534A13700BB03CBC90469946A246AB
:10D2F000AB46F0BD4F4B002418680025029B00216F
:10D300000026574615E01A68BA4200D984E0D8686A
:10D31000BF1A89181E60DC69002807D0DD611D0076
:10D32000059A986052181202120A5A6023002000CF
:10D33000019C002BE7D1002C01D03E4B186000234C
:10D34000029301330593AFE6002900D15DE00B683D
:10D3500039489846394B3A4DC4583A4B2E781B6899
:10D36000E11A0902090A0331002E2DD042468A42F1
:10D3700000D20A00A820D21812022F49130AC000B6
:10D380002E4D0B504A591B1B121B1202120A1B0274
:10D3900003321B0A9A42A3D94B590B502F20013854
:10D3A000C046C046C046C046C046C046C046C0464D
:10D3B000C046C046C046C046F1D180218023224AE3
:10D3C00089025B00D1508BE78026D1277602BF000F
:10D3D000C651403FC651C02280271B4EBF0252009B
:10D3E000B7503760012606602F200138C046C0467E
:10D3F000C046C046C046C046C046C046C046C046FD
:10D40000C046C046F1D12E70B0E7FFF70DFD67E7CB
:10D410005A46084B1A605DE7BA46002C01D0054910
:10D4200008605146521A1A600293012305933BE6A5
:10D4300012240020002400200010014004050000F8
:10D440001C240020FC23002000E100E0F8B54F463A
:10D450004646C0B40326350080460F0014009946A6
:10D4600015400720002D03D00CBC90469946F8BD0E
:10D47000002A44D0FFF7D8FC4A46224B80201A608D
:10D480002200214B18321E70204B62601C607B0012
:10D49000DB19DB00D218E260D318C022636125706B
:10D4A0006570A77025726572A77225746574A7747C
:10D4B000C524FF21164B40031D60164B52001D7002
:10D4C000154BA4001D70154B98501A598A433F39CB
:10D4D0000A431A51A122186040461149D2008850CF
:10D4E000C42080001C580F4A2240C024240222433A
:10D4F0001A500D4B0020CA580C4B1A60B4E7034B6E
:10D500001A60B1E704240020082400200C24002025
:10D5100000240020102400201124002000E100E05D
:10D5200000100140FF00FFFF04050000FC23002065
:10D5300010B50B4B1B68002B0BD0002A07D000281E
:10D5400005D0036808201C7C002C04D010BD0720E7
:10D55000FCE70820FAE759745A610020F6E7C04654
:10D560000C240020F0B5344B1C68002C06D0002899
:10D5700004D00723042903D81800F0BD0823FBE7D3
:10D580004369002BFAD0437C012B44D000262B4B5F
:10D5900010255B68DB05DB0D25D164196378A57860
:10D5A0005F1CFFB2BD423AD02578BD4235D05D0048
:10D5B000ED186368ED009C4665440423002DDBD024
:10D5C000033B2B7068601E4B1E48C358E960AB607C
:10D5D000802180236A611C4A5B0049032E616770C9
:10D5E000D1500023C8E7103B5DB2002D19DBAD0818
:10D5F000C035154FAD00ED5903273B40DB00DD4042
:10D60000AB093B40DBB20025012BC6D00835032B0C
:10D61000C3D00835C1E70E00B9E70423ACE7002703
:10D62000C2E70F25094FDBB2BC461D40083DAD08DF
:10D63000AD0065446D68DFE70C24002000ED00E0DC
:10D64000040500000010014000E100E018ED00E0DA
:10D6500010B52C4A03001168082000292AD0002B9D
:10D6600028D05A69002A25D000221A74264A083088
:10D670005268D205D20D1ED109184A788878541CF8
:10D68000E4B2A04231D00878A0422CD050008218D9
:10D690004868D200844662440420002A0AD0023836
:10D6A000107053604C70802380210020174A49037A
:10D6B0005B00D15010BD103A50B2002817DB800833
:10D6C000C030124C8000005903242240D200D040C8
:10D6D00082092240D2B20020012ACDD00830032A8C
:10D6E000CAD00830C8E70420E4E70024CBE70F20C5
:10D6F000074CD2B2A446104008388008800060442D
:10D700004068E1E70C24002000ED00E000E100E0CB
:10D7100018ED00E0074B1A680823520701D41800DF
:10D720007047002804D0044B5B7803600023F6E7C1
:10D730000E23F4E7EC2400202024002071DF704742
:10D7400072DF704779DF70477DDF704765DF7047B4
:10D75000F0B55F4656464D464446F0B485B09A460D
:10D760000EAB80CB06001B8800919B463B88019343
:10D770000388002B63D00023994602ABDD1C3B00DD
:10D7800000241700984603E033880134A3422CDDBF
:10D790007368A1009C460422614403A804F0A7FD1D
:10D7A0000022290003A8FFF7D1FF002829D12B78F8
:10D7B000BB42E9D14B46002B2AD043461A88D319E5
:10D7C0005B453EDC5244290003A8FFF7BFFF002859
:10D7D00017D143462A781B880134D3184246138058
:10D7E000012399463388A342D2DC4B464746002B9F
:10D7F00025D03B88019A013B9B1A9BB20C20FF2B42
:10D800001AD905B03CBC90469946A246AB46F0BD3D
:10D8100043461B88DA1902325A4512DC424601336C
:10D8200069469BB2138052460978D15443461A8800
:10D83000013292B21A80C5E71100524653540020BB
:10D84000DFE70C20DDE7C046F0B55F4656464D46A3
:10D8500044460023F0B417881380436B87B006005A
:10D860000D001400002B00D19CE1022F00D891E1A3
:10D870001A7802230B701121238801339BB2238075
:10D88000E954238801339BB22380EA54238801336F
:10D890009BB22380326B002A00D170E01900123154
:10D8A000B94200D976E11121E954238801390133C5
:10D8B0009BB22380E954238801339BB22380D17B20
:10D8C000E954238801339BB22380917BE954238858
:10D8D00001339BB22380517BE954238801339BB2EF
:10D8E0002380117BE954238801339BB22380D17AB2
:10D8F000E954238801339BB22380917AE954238829
:10D9000001339BB22380517AE954238801339BB2BF
:10D910002380117AE954238801339BB22380D17983
:10D92000E954238801339BB223809179E9542388F9
:10D9300001339BB223805179E954238801339BB290
:10D9400023801179E954238801339BB22380D17855
:10D95000E954238801339BB223809178E9542388CA
:10D9600001339BB223805178E954238801339BB261
:10D9700023801278EA54238801339BB223802E221D
:10D98000B25C002A00D00FE12D22B25C002A00D048
:10D990002CE1B278002A00D055E1F278002A14D0A8
:10D9A000D91CB94200D9F5E00221E9542388013994
:10D9B00001339BB22380E954238801339BB2238037
:10D9C000EA54238801339BB223807268002A15D061
:10D9D000D91CB94200D9DDE002211278E95423882C
:10D9E000083101339BB22380E954238852B20133BA
:10D9F0009BB22380EA542388013323803389002B90
:10DA000000D09BE1338A002B00D0B1E1338B002B97
:10DA100000D0C7E1336A002B4BD022880C20911D27
:10DA20009346B94200D9B6E0198805388A460529D7
:10DA300000D8B0E0BB496A468C46D4446146D181E7
:10DA4000D1898C46B84988468C4500D8A3E05988CE
:10DA50008C46052900D89EE0B2496144D18189B243
:10DA6000414500D897E0B1498A4504D08C4502D0A1
:10DA7000E24500D98FE005215A46A95422880D318C
:10DA8000013292B22280A9542288013292B22280BD
:10DA90001988AA181170090A51702288023292B2AC
:10DAA00022805988AB181970090A597023880233EB
:10DAB0002380736A9846002B30D09A882188131DE2
:10DAC0005B180C20BB4266D8931CFE2B63D8033234
:10DAD0006A54FF22238801339BB22380EA544246D2
